:020000040800F2
:10000000E8040020A1010008871700084117000834
:1000100085170008AD020008DD1A00080000000086
:100020000000000000000000000000008B17000826
:10003000BD02000800000000891700088D170008A5
:10004000BB010008BB010008BB010008BB010008A0
:10005000BB010008BB010008BB010008BB01000890
:10006000BB010008BB010008BB010008BB01000880
:10007000BB010008BB010008BB010008BB01000870
:10008000BB010008BB010008BB010008BB01000860
:10009000B1020008BB010008BB010008BB01000859
:1000A000BB010008BB010008BB010008BB01000840
:1000B000BB010008BB010008BB010008BB01000830
:1000C000BB010008BB010008BB010008BB01000820
:1000D000BB010008BB010008D11A0008BB010008E1
:1000E000BB010008BB010008BB010008BB01000800
:1000F000BB010008BB010008BB010008BB010008F0
:10010000BB010008BB010008BB010008BB010008DF
:10011000BB010008BB010008BB010008BB010008CF
:10012000BB010008BB010008BB010008BB010008BF
:10013000BB010008BB010008BB010008BB010008AF
:10014000BB010008BB010008BB010008BB0100089F
:10015000BB010008BB010008BB010008BB0100088F
:10016000BB010008BB010008BB010008BB0100087F
:10017000BB010008BB010008BB0100080000000033
:10018000BB010008BB010008DFF810D000F07CF8CC
:10019000004800471D1B0008AFF30080E804002062
:1001A0000648804706480047FEE7FEE7FEE7FEE711
:1001B000FEE7FEE7FEE7FEE7FEE7FEE72918000898
:1001C000890100082DE9F05F0546002092469B4614
:1001D00088460646814640241BE02846414647465D
:1001E000224600F041F853465A46C01A914110D3B6
:1001F00011461846224600F028F82D1A67EB010830
:100200004F4622460120002100F01FF817EB00099D
:100210004E41201EA4F10104DFDC484631462A4647
:100220004346BDE8F09FD2B201E000F8012B491E21
:10023000FBD270470022F6E710B513460A46044683
:100240001946FFF7F0FF204610BD202A04DB203AB4
:1002500000FA02F1002070479140C2F1200320FA19
:1002600003F3194390407047202A04DB203A21FA17
:1002700002F00021704721FA02F3D040C2F12002BF
:100280009140084319467047064C074D06E0E06868
:1002900040F0010394E8070098471034AC42F6D3CD
:1002A000FFF776FFF81B0008181C0008FEE70000A7
:1002B000014800F080B9000020000020704790F84D
:1002C0002020012A07D0022A05D0416A41F480216A
:1002D000416201207047006842690A434261002080
:1002E0007047F0B590F820500468A468012D05D03F
:1002F000022D03D0416A41F480215DE014F0406F8B
:1003000001D1E50055D5C4F30164022C03D9416A3B
:1003100041F4000150E00125A5401D608D684FF4B7
:10032000C0739DB1CE6835434E6845EAC605066880
:1003300003EB0417F5514FF4C275076805EB04157C
:100340000E697E51097D012905D009E00E88CD682E
:1003500045EA4655EBE701684E5946F480764E5122
:100360001179D579567941EA056195792D0445EAE7
:10037000062529434FF4C676056806EB0416A951F5
:100380001178D57841EA0561957852782D0445EACF
:10039000022211434FF4C475026805EB0415515154
:1003A000006803EB0411425842F001024250002061
:1003B000F0BD416A41F4001141620120F0BD00002E
:1003C00010B590F82020012A07D0022A05D0416AF2
:1003D00041F480214162012010BD3B48D0F8002249
:1003E00042F00102C0F80022D0F8002222F47C5230
:1003F000C0F80022D0F800224B6A42EA0322C0F87B
:1004000000220A7D02F01F0301229A40D0F81C321C
:100410009343C0F81C32CB69B3B9D0F80C32934384
:10042000C0F80C328C894B6864F31F434C6900EBB5
:10043000C404C4F840320C890B6864F31F434C6950
:1004400000EBC404C4F84432CB69012B16D1D0F8B8
:100450000C321343C0F80C320C884B6864F31F4312
:100460004C6900EBC404C4F840320C89CB6864F3D7
:100470001F434C6900EBC404C4F844328B69002B61
:10048000D0F804320ED01343C0F804320B69002BAD
:10049000D0F8143208D01343C0F81432096A012985
:1004A00004D008E09343EFE79343F5E7D0F81C123C
:1004B0001143C0F81C12D0F8001221F00101C0F85D
:1004C0000012002010BD000000640040704730B5ED
:1004D00090F82040012C05D0022C03D0416A41F451
:1004E00080215DE00468002955D02469A40754D018
:1004F0004FF4D874056804EB01142D5915F0040568
:10050000956005682D594ED0ED08556005682C5949
:1005100004F00204D4604FF4DA74056804EB0114AB
:100520002D5905F00F05156105682D59C5F30725EF
:10053000956105682C59240C54614FF4DC720468F1
:1005400002EB0112A4581C700468A458240A5C70C1
:100550000468A458240C9C700468A258120EDA7027
:100560004FF4DE72046802EB0112A4581C71046897
:10057000A458240A5C710468A458240C9C71046873
:10058000A258120EDA71006881B1016941F02001B0
:100590000161002030BDE468A8E7416A41F4001120
:1005A0004162012030BD6D0D1560AFE7C16841F0BB
:1005B0002001C160EDE72DE9F05F054600680024E9
:1005C0004669D0F804908768D0F80CB0D0F810A035
:1005D000D0F81880F10748D0F90714D001218160C4
:1005E000B80703D5284600F0FAF90CE0780702D5E1
:1005F0004FF4006407E0380702D54FF4805402E05E
:10060000284600F0EBF9F80516D529684FF48070FC
:100610008860B80503D5284600F0E3F90CE07805BA
:1006200002D544F4005407E0380502D544F4804470
:1006300002E0284600F0D4F9F80316D529684FF4F3
:1006400080308860B80303D5284600F0CCF90CE070
:10065000780302D544F4004407E0380302D544F49B
:10066000803402E0284600F0BDF9300707D55FEA84
:10067000CB6004D52968102044F40074C86070076A
:100680004FF0080707D55FEA0B7004D52868C760EC
:10069000284600F059F9B00706D52868C0688007D9
:1006A00002D0284600F052F9700607D55FEACA600A
:1006B00004D52968102044F480640861B00607D589
:1006C0005FEA0A7004D528680761284600F056F9E9
:1006D000F00606D528680069800702D0284600F099
:1006E0004EF9B00308D55FEAC96005D52968102026
:1006F0004860284600F044F9F00307D55FEA097026
:1007000004D528684760284600F06EF9300446D5C5
:100710005FEA497040D5F00504D55FEAC87001D0A2
:1007200044F00104B00504D55FEA887001D544F0B7
:100730000204700504D55FEA487001D544F0040452
:10074000300529D518F0700F26D008F07000402829
:1007500015D006DC102809D020280AD0302816D160
:100760000AE050280ED0602811D10EE044F00804B1
:100770000DE044F010040AE044F0200407E044F0E7
:10078000400404E044F0800401E044F480742868EC
:10079000816921F070018161296804204860002C82
:1007A00005D0686A204368622846FFF78FFEBDE8DF
:1007B000F09F70B5040003D094F8200010B104E05D
:1007C000012070BD204600F081F82068016821F00A
:1007D0000201016000F058FA0546052604E000F029
:1007E00053FA401B0A2811D8206840688007F6D4C5
:1007F0002068016841F00101016000F045FA0546FA
:100800000BE000F041FA401B0A2806D9606A40F468
:100810000030606284F82060D2E720684068C0073A
:10082000EFD0207E0128206801683DD021F08001B2
:100830000160607E01282068016838D021F0400105
:100840000160A07E01282068016833D021F02001DA
:100850000160E07E0128206801682ED041F010017F
:100860000160207F01282068016829D021F008015B
:100870000160607F01282068016824D021F0040114
:100880000160D4E902010843D4E90412114308438A
:100890006168491E08432168C86100206062012028
:1008A00084F82000002070BD41F08001C0E741F0D5
:1008B0004001C5E741F02001CAE721F01001CFE770
:1008C00041F00801D4E741F00401D9E710B586B042
:1008D000044614216846FFF7ADFC18492068884299
:1008E00029D117480021026842F0007202600068B6
:1008F00000F00070059012481038026842F00202C1
:100900000260006800F0020005904FF44070009013
:100910000220CDE9010103200390092004906946DB
:10092000084800F0BBF802220021142000F01CFA55
:10093000142000F00BFA06B010BD00000064004067
:100940004038024000040240704700000A4A10B5D7
:10095000084B0021A2F18400FFF7B9FD08B172B67F
:10096000FEE7054864230522BDE8104001495C38D4
:1009700000F08CBE09000020A400002070477047E2
:100980007047000070B5044690F82000012804D09C
:10099000606A40F40020606218E0022084F82000C1
:1009A0002068016821F00101016000F06DF9054641
:1009B0000EE000BF00F068F9401B0A2808D9606A01
:1009C00040F400306062052084F82000012070BDF2
:1009D00020684068C007EDD1606270BD7047704705
:1009E000704770477047704770472DE9F0410446E3
:1009F000876D00F049F9064694F835000025022875
:100A000006D08020606584F834500120BDE8F08174
:100A10002068016821F0160101602068416921F019
:100A200080014161206C08B9A06C20B12068016888
:100A300021F0080101602068016821F001010160D6
:100A40000BE000F021F9801B052806D92020606505
:100A500004F8345F03206070D8E720680068C0079E
:100A6000EFD194F85C103F208840B86004F8345F00
:100A7000012060700020C9E790F83510022903D0EA
:100A80008021416501207047052180F835100068FC
:100A9000016821F001010160002070472DE9F84F45
:100AA000DFF8B8A1002201250AF1040B03264FF05C
:100AB0000F090BF1040E00BF0B6805FA02F4234086
:100AC000A3426FD10F7907F00307012F01D0022F46
:100AD00016D187684FEA420806FA08FC27EA0C0795
:100AE000D1F80CC00CFA08FC4CEA070CC0F808C09E
:100AF0004768A7430C79C4F3001494403C43446016
:100B00000C79E443A4070AD0C4684FEA420C06FA01
:100B10000CF7BC438F6807FA0CF72743C7600C79C2
:100B200004F00304022C12D1D40800EB840CDCF88E
:100B300020405707FF0E09FA07F824EA0804D1F805
:100B4000108008FA07F848EA0408CCF82080046806
:100B50004FEA420C06FA0CF7BC430F7907F0030783
:100B600007FA0CF7274307604C68E40070D53C4C4B
:100B7000276847F480472760246822F0030704F4BD
:100B800080440094374C07EB040CDCF808489707C6
:100B90004FEA177809FA08F7BC43334FB84202D13D
:100BA000002724E054E0314FB84201D101271EE074
:100BB0002F4FB84201D1022719E02E4FB84201D180
:100BC000032714E02C4FB84201D104270FE02B4F2C
:100BD000B84201D105270AE0294FB84201D10627C2
:100BE00005E0284FB84201D1072700E0082707FA9F
:100BF00008F72743CCF80878DAF800405746D1F8D0
:100C000004C09C435FEACC3C00D51C433C60DBF84D
:100C100000405F46D1F804C09C435FEA8C3C00D59D
:100C20001C433C60DEF800407746D1F804C09C438A
:100C30005FEACC2C00D51C433C60084F0C373C6865
:100C4000D1F804C09C435FEA8C2C00D51C433C6067
:100C5000521C102AFFF430AFBDE8F88F003C014071
:100C600044380240003001400000024000040240CD
:100C700000080240000C0240001002400014024034
:100C800000180240001C02400148806870470000C4
:100C9000100000200248816802781144816070478A
:100CA000100000200B4810B5016841F4007101608C
:100CB000016841F480610160016841F48071016064
:100CC000032000F071F8002000F006F800F024F88E
:100CD000002010BD003C024070B50D4D04464FF49D
:100CE0007A712878B1FBF0F00A490968B1FBF0F09D
:100CF00000F00CFB48B9102C07D200222146501EF0
:100D000000F032F800206C6070BD012070BD000062
:100D1000100000201C0000200B4882B0016841F444
:100D200080410160006800F4804000900648001F88
:100D3000016841F080510160006800F0805000902F
:100D4000072002B000F030B844380240002809DB28
:100D500000F01F02012191404009800000F1E020D5
:100D6000C0F8001170470000F0B40E4B1B680C4631
:100D7000C3F30223C3F10705042D00D90425191D6F
:100D8000072901D2002300E0DB1E012606FA05F147
:100D9000491E214099409E40761E16403143F0BCCA
:100DA00000F09DBE0CED00E0064900F00702086867
:100DB0004FF6FF03184040EA0220034A1043086040
:100DC000704700000CED00E00000FA052DE9F04747
:100DD0000E46050065D0DFF81481D8F80000F7B2A0
:100DE00000F00700B04207D288F80070D8F8000081
:100DF00000F00700B04254D128683D4C810712D55D
:100E0000400703D5206840F4E050206028780007B0
:100E100003D5206840F4604020602068A96820F075
:100E2000F000084320602878C0072DD0304968685A
:100E30000839012812D0022813D0032811D00968DC
:100E4000890700292DDA216821F00301014321607F
:100E5000FFF71AFF814641F2883A0EE009688903DC
:100E6000EFE709688901ECE7FFF70EFFA0EB090146
:100E7000514502D90320BDE8F0872068696800F079
:100E80000C00B0EB810FEFD1D8F80010404601F014
:100E90000701B14207D90770006800F00700B042AF
:100EA00001D00120E7E72878400705D52068E968E8
:100EB00020F4E050084320602878000706D5206819
:100EC000296920F4604040EAC100206000F038F851
:100ED0002168084AC1F30311515CC8400649086003
:100EE00006480068FFF7F8FE0020C4E7003C024017
:100EF00008380240E01B00081C00002014000020FD
:100F00000448054900680968044AC1F38221515C1C
:100F1000C84070471C00002008380240F01B000841
:100F20000448054900680968044AC1F34231515C2C
:100F3000C84070471C00002008380240F01B000821
:100F4000154810B5006810F00C02144813D0411079
:100F5000042A0FD0082A0ED10F4C241F22682368C0
:100F600002F03F025B0207D52068C0F38810A0FBA7
:100F7000010106E0084610BD2168C1F38811A1FBFC
:100F800000010023FFF71EF92168C1F30141491C4C
:100F90004900B0FBF1F010BD083802400024F40015
:100FA0002DE9F84F04006ED02078DFF84C93C0078D
:100FB000A9F104054AD009F104000168C1F38101D7
:100FC000012908D00068C0F3810002280AD1D9F8AD
:100FD0000000400206D52868800337D560680028E5
:100FE000E1D033E06068B0F5803F10D0B0F5A02FBD
:100FF000286810D020F480302860286820F48020F1
:1010000028606068A8B1FFF73FFE06460DE028683B
:1010100040F48030F4E740F480202860F7E700BF18
:10102000FFF732FE801B642873D828688003F7D549
:101030000CE0FFF729FE064605E000BFFFF724FE9F
:10104000801B6428F0D828688003F7D42078DFF864
:10105000AC8280074FF0000A3ED5A748001D01680A
:1010600011F00C0F08D00068C0F3810002280BD1EA
:10107000D9F80000400207D42868800716D5E06838
:10108000012800D112E033E1E068B8B10120C8F8CE
:101090000000FFF7F9FD064605E000BFFFF7F4FD8D
:1010A000801B0228C0D828688007F7D528682169E6
:1010B00020F0F80040EAC10028600DE0C8F800A068
:1010C000FFF7E2FD064604E0FFF7DEFD801B022885
:1010D0001FD828688007F7D42078000722D5864FCC
:1010E00087486169703771B101210160FFF7CCFD5C
:1010F000064604E0FFF7C8FD801B022809D83868BF
:101100008007F7D50EE0C0F800A0FFF7BDFD06464A
:1011100005E082E0FFF7B8FD801B02287DD8386823
:101120008007F7D42078400768D5DFF8CCB10027D6
:101130000BF13C0BDBF80000C0000BD4DBF8001017
:1011400041F08051CBF80010DBF80000012700F0DF
:10115000805000906B4E3068C00510D4306840F469
:1011600080703060FFF790FD009005E0FFF78CFD88
:101170000099401A022850D83068C005F6D55E4E56
:10118000A0686C3601280FD00528306810D020F0F8
:1011900001003060306820F004003060A068B8B111
:1011A000FFF772FD00900FE0306840F00100F4E7B7
:1011B00040F004003060F7E7FFF766FD0099411A40
:1011C00041F28830814266D830688007F4D50EE05D
:1011D000FFF75AFD009007E0FFF756FD0099411A0E
:1011E00041F28830814256D830688007F4D42FB15C
:1011F000DBF8001021F08051CBF80010A069C8B3D3
:101200003D49091D0968C1F3810102294AD002281C
:10121000504607D0C8F8600000E03CE0FFF734FD1E
:1012200004463BE04746C8F86000FFF72DFD064640
:1012300005E000BFFFF728FD801B02282BD8286897
:101240008001F7D4D4E907010843A16A2E4A49086E
:1012500002EB0141626A41EA8211084394F82C10C2
:1012600040EA0161C9F8001001203866FFF70CFD63
:10127000044606E03EE000BFFFF706FD001B022823
:1012800009D828688001F7D534E000BFFFF7FCFCDF
:10129000001B022802D90320BDE8F88F28688001CE
:1012A000F4D427E00128F7D0D9F80000E26900F46F
:1012B000800191421CD1226A00F03F01914217D176
:1012C00047F6C071626A0140B1EB821F10D1A26A79
:1012D0004FF0FF3300F4403103EB5202B1EB024F09
:1012E00006D194F82C1000F07060B0EB016F01D0C3
:1012F0000120D1E70020CFE7043802400000474238
:10130000800E4742007000400000FFFF10B5401EF5
:10131000B0F1807F01D3012010BD4FF0E024606167
:101320000F21601700F0DBFB0020A0610720206187
:10133000002010BD70477047F8B502680446106879
:10134000D168536910F00F0F4FF0000553D003F030
:10135000010601F4907737435FD0C20705D0CA0574
:1013600003D5226C42F001022264420705D5DA0758
:1013700003D0226C42F002022264820705D5DA070C
:1013800003D0226C42F004022264020707D501F068
:101390002002324303D0226C42F008022264226C05
:1013A000002A34D0800604D5880602D5204600F0F5
:1013B00063FA20684069216CC0F38010090700D4EB
:1013C00030B3204600F040FA2068416949061BD539
:1013D000416921F040014161A06BA8B15949016503
:1013E000A06BFFF749FB002811D0A06B016D01B085
:1013F000BDE8F040084783060FD58B060DD5204683
:10140000BDE8F84000F038BA2046FFF794FFF8BD79
:101410002046FFF790FF2564F8BD266B2023012EA0
:1014200053D1C60651D5CE064FD5106850680090EE
:10143000506940062BD5A16B086840680004000C79
:10144000EAD0A68D8642E7D9E085C869B0F5807FED
:1014500018D0D06820F48070D0602068416921F0F5
:10146000010141612068416921F04001416184F836
:101470003E3025632068C16821F01001C160A06B77
:10148000FFF7B3FAA08DE18D401A81B219E0A08D6B
:10149000E18D401A81B2E08D0028BDD00029BBD07B
:1014A000D06820F49070D0602068426922F0010278
:1014B000426184F83E3025632068C26822F0100241
:1014C000C2602046FFF736FFF8BD05062BD50D0696
:1014D00029D594F83D002128F6D1A068B0F5805FA9
:1014E00001D12069B0B1206A411C216221680078D5
:1014F0004860E08C401E0004000CE084E4D12068C9
:10150000C16821F08001C1602068C16841F04001DC
:10151000C160F8BD206A0088C0F308005060206AEE
:10152000801C2062E5E74006F3D54806F1D5D16876
:10153000204621F04001D16084F83D3000F0FFF8F2
:10154000F8BD00003918000870B5040004D094F804
:101550003D00002510B106E0012070BD84F83C502C
:10156000204600F023F8242084F83D002068C1685C
:1015700021F40051C160204600F0D6F920680169CD
:1015800021F4904101612068416921F02A01416103
:101590002068C16841F40051C1602564202084F8AE
:1015A0003D0084F83E00002070BD000010B586B0FC
:1015B000044614216846FEF73DFE1749206888421C
:1015C00028D116480021026842F400320260006807
:1015D00000F40030059011481038026842F0010212
:1015E0000260006800F0010005900C2000900220CD
:1015F000CDE90101032003900720049069460848C3
:10160000FFF74CFA002211462620FFF7ADFB2620FB
:10161000FFF79CFB06B010BD00440040403802407C
:101620000000024090F83E30202B0ED159B152B14B
:1016300090F83C30012B08D0012380F83C30002387
:10164000036300F0F7B901207047022070470000E3
:1016500010B505220B490C48FFF7E4FF094A0020AA
:10166000511F135C0B54401C0528FADB054B06493F
:10167000093B1A1D4431BDE81040A1F16C00FEF792
:1016800030BE000009000020480000202DE9F8438A
:10169000044690F83D001F4616460D4620284CD1C2
:1016A000C5B1BEB194F83C00012846D0012084F8B1
:1016B0003C004FF00008C4F84080212084F83D0031
:1016C000FFF7E2FAA6848146E684A068B0F5805F61
:1016D00003D004E00120BDE8F883206928B12E463C
:1016E0005FF0000584F83C800EE00026FAE78021D8
:1016F000204600F0BAF9A0B9AEB116F8010B216886
:101700004860E08C401EE084E08C4B464FF00002C5
:1017100000970028EBD14FF04001204600F0A5F9DA
:1017200030B10320D7E735F8020BC0F30800E6E735
:10173000202084F83D000020CDE70220CBE7704751
:10174000FEE700000E4810B50C490160062141601B
:1017500000214FF420228160C0E903124FF480126F
:101760004261017641768176C17601774177FFF754
:1017700020F8002801D072B6FEE710BD00640040DA
:1017800020000020FEE7FEE770477047FFF782BAAF
:1017900030B593B030216846FEF74CFD14210CA8FB
:1017A000FEF748FD1E480025016841F080510160A8
:1017B000006800F0805011901A48016841F480419F
:1017C00001600068022400F4804011900120009024
:1017D000000401908001CDE90640082008904FF4F4
:1017E000A870CDE9090407200B906846FFF7D8FBE5
:1017F00008B172B6FEE70CA90F2081E831004FF462
:10180000A0500F904FF48050109005210CA8FFF7C6
:10181000DDFA002801D072B6FEE713B030BD00003B
:1018200040380240007000400248016841F47001F5
:101830000160704788ED00E010B5806B0021C18524
:10184000C184FFF778FD10BD0168CA6822F4907268
:10185000CA6001684A6922F001024A61016B0129EC
:1018600004D10168CA6822F01002CA60202180F801
:101870003E1000210163704710B5044690F83E0009
:10188000222801D0022010BDA1684FF4805291425D
:1018900001D1206920B1A06A91421BD049B10AE070
:1018A0002168A06A4968C1F308010180A06A801C10
:1018B00008E0216971B12168496801F07F01017078
:1018C000A06A401CA062E08D401E0004000CE08570
:1018D00003D01CE021684968F1E72068C16821F065
:1018E0002001C1602068C16821F48071C160206856
:1018F000416921F001014161202084F83E00206B04
:10190000012806D02046FFF7A3FE00202063002018
:1019100010BD2068C16821F01001C160A18D204672
:10192000FFF708FDF1E7000070B5044600680169A3
:10193000E26821F44051114301612169A068E26924
:1019400008436169114308432168CA6849F20C637E
:101950009A430243CA6020684169A26921F4407138
:101960001143416131492068884202D030498842A0
:1019700002D1FFF7D5FA01E0FFF7C2FAE2690023CE
:10198000192164253226B2F5004F626828D0A0FBE9
:101990000101930F9200FEF715FC0146B0FBF5F034
:1019A0006FF01802504301EB800006EB0010B0FB13
:1019B000F5F000F0F002B1FBF5F002EB0012B1FB24
:1019C000F5F06FF01803584301EB800006EB0010B0
:1019D000B0FBF5F000F00F0021681044886070BD86
:1019E000A0FB010192185B41FEF7ECFB0146B0FB46
:1019F000F5F00201B1FBF5F06FF01803584301EB6D
:101A0000800006EBC000B0FBF5F000F0F80002EB40
:101A10004002B1FBF5F0584301EB800006EBC0003B
:101A2000B0FBF5F000F00700D6E700000010014021
:101A30000014014081628285C28500210164222256
:101A400080F83E2080F83C100168CA6842F4807239
:101A5000CA6001684A6942F001024A610068C168CF
:101A600041F02001C160002070472DE9F041984607
:101A700017460E460446069D1DE0681C1BD02DB17E
:101A8000FFF702F9A0EB0800A84214D92068C1684A
:101A900021F4D071C1602068416921F001014161E8
:101AA000202084F83D0084F83E00002084F83C00AB
:101AB0000320BDE8F0812068006836EA000004D009
:101AC0000020B842D9D00020F3E70120F9E7000058
:101AD0000148FFF731BC000048000020FEE709077D
:101AE000090E002804DB00F1E02080F800147047A4
:101AF00000F00F0000F1E02080F8141D704702E0B4
:101B000008C8121F08C1002AFAD170477047002088
:101B100001E001C1121F002AFBD1704708B5FFF791
:101B2000C1F8FFF735FE2A480024016841F0800122
:101B30000160016801F080010091016841F001013C
:101B40000160016801F001010091016841F00201AA
:101B50000160006800F002000090FFF7F3FD1E48EE
:101B60001C4901604FF4E131C0E901140C21C4604B
:101B7000C0E904418461C461FFF7E6FC08B172B6B4
:101B8000FEE7052215491448FFF74CFD12480521D0
:101B900044308460C0E9034140F2452101603430A3
:101BA0004FF491410461C0E9001484600121C161D6
:101BB000C46001620146A038FEF702FC06482838DE
:101BC000FEF7E0FE044802212838FEF778FBFEE726
:101BD0003038024000440040480000200900002046
:101BE00000000000000000000102030406070809CD
:101BF0000000000001020304181C0008000000207F
:101C000020000000FE1A0008381C000820000020F8
:101C1000C80400000E1B00080000000000000000C7
:101C200000000000000000000100000010000000A3
:081C3000000000000024F40094
:040000050800018965
:00000001FF
