:020000040800F2
:1000000008050020A1010008B7200008ED1F000826
:10001000B5200008490700088924000800000000F6
:10002000000000000000000000000000BB200008ED
:10003000C907000800000000B9200008BD20000822
:10004000BB010008BB010008BB010008BB010008A0
:10005000BB010008BB010008BB010008BB01000890
:10006000BB010008BB010008BB010008BB01000880
:10007000BB010008BB010008BB010008BB01000870
:10008000BB010008BB010008BB010008BB01000860
:100090004D070008BB010008BB010008BB010008B8
:1000A000BB010008BB010008BB010008BB01000840
:1000B000BB010008BB010008BB010008BB01000830
:1000C000BB010008BB010008BB010008BB01000820
:1000D000BB010008BB0100087D240008BB0100082B
:1000E000BB010008BB010008BB010008BB01000800
:1000F000BB010008BB010008BB010008BB010008F0
:10010000BB010008BB010008BB010008BB010008DF
:10011000BB010008BB010008BB010008BB010008CF
:10012000BB010008BB010008BB010008BB010008BF
:10013000BB010008BB010008BB010008BB010008AF
:10014000BB010008BB010008BB010008BB0100089F
:10015000BB010008BB010008BB010008BB0100088F
:10016000BB010008BB010008BB010008BB0100087F
:10017000BB010008BB010008BB0100080000000033
:10018000BB010008BB010008DFF810D000F09AFAAC
:1001900000480047F52D0008AFF300800805002057
:1001A0000648804706480047FEE7FEE7FEE7FEE711
:1001B000FEE7FEE7FEE7FEE7FEE7FEE7592100085F
:1001C000890100082DE9F05F0546002092469B4614
:1001D00088460646814640241BE02846414647465D
:1001E000224600F0EFF953465A46C01A914110D307
:1001F00011461846224600F0D6F92D1A67EB010881
:100200004F4622460120002100F0CDF917EB0009EE
:100210004E41201EA4F10104DFDC484631462A4647
:100220004346BDE8F09FD2B201E000F8012B491E21
:10023000FBD270470022F6E710B513460A46044683
:100240001946FFF7F0FF204610BD2DE9FE4F80460E
:1002500081EA0300C00F0C46009021F0004123F01A
:100260000045B8EB0200A94105D240462146904620
:100270001C460B46024623F00040104347D0270D92
:10028000C7F30A00C3F30A510290401A01904028B4
:100290006BDAC3F3130040F4801B0098924620B140
:1002A0000023D2EB030A63EB0B0B01985946C0F114
:1002B0004002504600F077F906460D465046594632
:1002C000019A00F08FF910EB08006141002487EAE1
:1002D000115284EAE7731A4340D0009A62B3019A3C
:1002E000012A4FEA075215DC001B61EB02014FF0B7
:1002F000004202EA0752CDE90042001C41F580119C
:1003000032462B4600F08FF903B0BDE8F08F40462F
:100310002146F9E7001B61EB0201001C41F5801347
:1003200000185B412018A2F5001747EB030140EAD3
:10033000D570B6196D4111E06D084FEA360645EAF1
:10034000C0754FEA0752001B61EB0201001C41F52A
:10035000801149084FEA30000019514132462B46BE
:1003600003B0BDE8F04F00F04FB900980122400003
:100370000023D0EB020263EBE073009821464FEAC2
:10038000E074B8EB000061EB0401E9E783F000439F
:100390005BE781F0004158E72DE9FE4F81EA030455
:1003A00004F0004421F0004100944FF0000B23F0D2
:1003B000004350EA01045ED052EA03045BD0C3F369
:1003C0000A54C1F30A552C44A4F2F3340194A0FB5F
:1003D0000254C1F3130141F48011C3F3130343F436
:1003E000801301FB024400FB034E840A970A44EA8F
:1003F000815447EA8357A4FB076802958D0A05FBE1
:1004000007854FEA932C04FB0C542705029D4FEA05
:10041000065847EA1637B5EB08056EEB070C870E52
:10042000920E47EA811742EA8312A7FB0201B6EB5C
:100430000B0164EB00042B0D43EA0C335E1844EB14
:100440001C50DA465146E7FB0201C5F313044FEA9C
:100450000B3343EA14534FEA0432019C43EA060388
:10046000A4F10C040294009CCDE900B400F0DBF888
:1004700003B0BDE8F08F00200146F9E72DE9F04D0B
:1004800081EA030404F0004B21F0004514464FF0CC
:10049000000A23F0004150EA050220D054EA01028C
:1004A0001DD0C5F30A570246C5F31303C1F3130069
:1004B000C1F30A5640F4801543F48013A7EB0608F5
:1004C000101BD64608F2FD3873EB050002D308F185
:1004D000010801E092185B41B8F1000F03DA002037
:1004E0000146BDE8F08D00204FF480110646844699
:1004F0000EE0171B73EB050705D3121B63EB050317
:1005000006434CEA010C49084FEA300092185B415F
:1005100050EA0107EDD152EA030012D082EA04004A
:1005200083EA0501084305D0101BAB4106D2012226
:10053000002306E000224FF0004302E06FF00102CA
:1005400053101AEB06004CEB085110EB0A0041EB7C
:100550000B01BDE8F04D00F057B80EB540F2334145
:1005600002910021CDE900110A460B4600F05BF82C
:1005700003B000BDC1F30A5210B5C1F3130140F23C
:10058000FF3341F480119A4201DA002010BD40F29D
:1005900033439A42A2F2334203DC524200F012F893
:1005A00010BD904010BD202A04DB203A00FA02F171
:1005B000002070479140C2F1200320FA03F3194351
:1005C00090407047202A04DB203A21FA02F00021F3
:1005D000704721FA02F3D040C2F120029140084353
:1005E00019467047202A06DBCB17203A41FA02F061
:1005F00043EAE07306E041FA02F3D040C2F1200280
:10060000914008431946704710B5141E73F1000459
:1006100008DA401C41F1000192185B411A4301D1F4
:1006200020F0010010BD2DE9F04D92469B4611B11E
:10063000B1FA81F202E0B0FA80F220329046FFF780
:10064000B2FF04460F4640EA0A0041EA0B01534656
:100650005A46084313D0114653EA010019D0C8F195
:1006600040025046FFF7AEFF05460E46504659463B
:100670004246FFF798FF084305D0012004E02046DA
:100680003946BDE8F08D0020054346EAE0762C436C
:1006900037430A986305E40AA0EB08000022FD0A2C
:1006A00044EA47540A3002D500200146E9E7010533
:1006B00010196941DDE9084500196941BDE8F04DAF
:1006C000A2E70000064C074D06E0E06840F0010399
:1006D00094E8070098471034AC42F6D3FFF758FD72
:1006E00028300008483000080EB5C10F80EAE070DD
:1006F0000844CA07002140F233438DE80E000A4641
:100700000B46FFF790FF03B000BD70B5C1F30A526E
:1007100001F000450024C1F3130140F2FF3341F41E
:1007200080119A4201DA002070BD40F233439A42B0
:10073000A2F2334203DC5242FFF744FF00E0904054
:100740002C43F1D0404270BDFEE70000014800F0AC
:100750001CBA000080000020184910B50A220A6067
:1007600007220A6100228A60CA6015498022A1F12D
:100770000C040A7087224A7077228A700278CA7045
:100780004078087102F5BF721044A080020A4A71D5
:1007900088710B1F0A460949A1F1280000F027F8CB
:1007A00020B101225103074800F0F2FD0348A1687F
:1007B000283800F0B8FB0028F8D110BDA8000020B0
:1007C0000C000020000C0240704790F82020012A05
:1007D00007D0022A05D0416A41F4802141620120FC
:1007E000704700684269114341610020704770B44E
:1007F00090F82040D0F800C0DCF808C0012C08D0E8
:10080000022C06D0416A41F48021416270BC012073
:1008100070470CF080640CF000652C4302D11CF092
:10082000805F5FD0CCF3016CBCF1020F06D9416A46
:1008300041F40001416270BC01207047012404FAB8
:100840000CF41C608B684FF4C0749BB1CD6804EB52
:100850000C162B434D6843EAC5030568AB514FF4B2
:10086000C273066803EB0C130D69F550097D01296D
:1008700009D00DE00D88CB6804EB0C1643EA455314
:100880000568AB51EBE70168CD5845F48075CD5054
:100890001179D379557941EA036193791B0443EACD
:1008A000052319434FF4C675036805EB0C15595120
:1008B0001178D37841EA0361937852781B0443EAB4
:1008C000022211434FF4C473026803EB0C13D1509E
:1008D000016804EB0C100A5842F001020A5070BC87
:1008E00000207047416A41F40011416270BC012050
:1008F0007047000090F82020012A07D0022A05D076
:10090000416A41F480214162012070474248D0F899
:10091000002242F00102C0F80022D0F8002222F4A6
:100920007C52C0F80022D0F800224B6A42EA03222F
:10093000C0F800220A7D012302F01F0203FA02F22E
:10094000D0F81C329343C0F81C32CB69D3B9D0F82D
:100950000C329343C0F80C32B1F80CC04B686CF306
:100960001F43D1F814C000EBCC0CCCF84032B1F8E6
:1009700008C00B686CF31F43D1F814C000EBCC0C1B
:10098000CCF84432CB69012B1AD1D0F80C32134386
:10099000C0F80C32B1F800C04B686CF31F43D1F8BB
:1009A00014C000EBCC0CCCF84032B1F808C0CB68D6
:1009B0006CF31F43D1F814C000EBCC0CCCF84432DC
:1009C0008B697BB1D0F804321343C0F804320B6951
:1009D00073B1D0F814321343C0F81432096A0129F4
:1009E0000CD010E0D0F804329343C0F80432EEE7A4
:1009F000D0F814329343C0F81432EFE7D0F81C1249
:100A00001143C0F81C12D0F8001221F00101C0F807
:100A1000001200207047000000640040704710B4CE
:100A200090F820C0BCF1010F09D0BCF1020F06D034
:100A3000416A41F48021416210BC0120704739B104
:100A4000D0F800C0DCF810C01CF0030F7DD006E029
:100A5000D0F800C0DCF80CC01CF0030F7BD04FF4C2
:100A6000D87C04680CEB011C54F80C4004F004041E
:100A70009460002C7DD0046854F80C40E408546065
:100A8000046854F80CC00CF0020CC2F80CC04FF40F
:100A9000DA7C04680CEB011C54F80C4004F00F04E1
:100AA0001461046854F80C40C4F30724946104688A
:100AB00054F80CC04FEA1C4CC2F814C04FF4DC725E
:100AC000D0F800C002EB01125CF802C083F800C04D
:100AD000D0F800C05CF802C04FEA1C2C83F801C0BB
:100AE000D0F800C05CF802C04FEA1C4C83F802C08A
:100AF000D0F800C05CF80220120EDA704FF4DE72FB
:100B0000D0F800C002EB01125CF802C083F804C008
:100B1000D0F800C05CF802C04FEA1C2C83F805C076
:100B2000D0F800C05CF802C04FEA1C4C83F806C045
:100B3000D0F800C05CF80220120EDA71F9B100683A
:100B4000016941F02001016102E00BE003E010E0E7
:100B500010BC00207047416A41F40011416210BC92
:100B600001207047416A41F40011416210BC01202C
:100B70007047046854F80C40640D146080E7006806
:100B8000C16841F02001C160DEE72DE9F05F054654
:100B9000002428684669D0F804908768D0F80CA033
:100BA000D0F810B0D0F8188016F0010F54D017F01C
:100BB000010F17D00121816017F0020F03D02846E2
:100BC00000F050FA0EE017F0040F02D04FF400646A
:100BD00008E017F0080F02D04FF4805402E02846D6
:100BE00000F03FFA17F4807F19D029684FF4807025
:100BF000886017F4007F03D0284600F035FA0EE035
:100C000017F4806F02D044F4005408E017F4006F2A
:100C100002D044F4804402E0284600F024FA17F49D
:100C2000803F19D029684FF48030886017F4003F66
:100C300003D0284600F01AFA0EE017F4802F02D0F5
:100C400044F4004408E017F4002F02D044F4803448
:100C500002E0284600F009FA16F0080F07D01AF053
:100C6000100F04D044F4007429681020C86016F0F6
:100C7000040F4FF0080707D01AF0080F04D02868B7
:100C8000C760284600F09EF916F0020F07D02868CA
:100C9000C06810F0030F02D0284600F095F916F056
:100CA000400F07D01BF0100F04D044F48064296873
:100CB0001020086116F0200F07D01BF0080F04D099
:100CC00028680761284600F097F916F0100F07D042
:100CD0002868006910F0030F02D0284600F08DF953
:100CE00016F4003F08D019F0100F05D02968102025
:100CF0004860284600F082F916F4803F07D019F0CA
:100D0000080F04D028684760284600F0B0F916F4B0
:100D1000004F4AD019F0040F44D016F4807F04D05D
:100D200018F0010F01D044F0010416F4007F04D044
:100D300018F0020F01D044F0020416F4806F04D0C2
:100D400018F0040F01D044F0040416F4006F29D009
:100D500018F0700F26D008F07000402815D006DC7F
:100D6000102809D020280AD0302816D10AE05028AF
:100D70000ED0602811D10EE044F008040DE044F0DC
:100D800010040AE044F0200407E044F0400404E0CA
:100D900044F0800401E044F480742868816921F003
:100DA00070018161296804204860002C05D0686AC0
:100DB000204368622846FFF731FEBDE8F09F70B51A
:100DC0000446002C03D094F8200010B104E0012068
:100DD00070BD204600F0B8F82068016821F00201DB
:100DE000016000F0DDFA0546206840684FF0050616
:100DF00010F0020F11D000F0D3FA401B0A2807D9D7
:100E0000606A40F40030606284F82060012070BDA8
:100E10002068406810F0020FEDD12068016841F0B1
:100E20000101016000F0BCFA05462068406810F03E
:100E3000010F11D100F0B4FA401B0A2807D9606AEB
:100E400040F40030606284F82060012070BD2068AA
:100E5000406810F0010FEDD0207E01283FD02068BF
:100E6000016821F080010160607E01283DD020688A
:100E7000016821F040010160A07E01283BD020687C
:100E8000016821F020010160E07E012839D020684E
:100E9000016841F010010160207F012837D02068EF
:100EA000016821F008010160607F012835D02068C9
:100EB000016821F004010160E168A06862690843EB
:100EC0002169114308436168491E08432168C861CC
:100ED00000206062012084F82000002070BD20689E
:100EE000016841F080010160BEE72068016841F0BF
:100EF00040010160C0E72068016841F02001016005
:100F0000C2E72068016821F010010160C4E7206891
:100F1000016841F008010160C6E72068016841F0FE
:100F200004010160C8E7002390F82020012A01D0C5
:100F3000022A06D100688906806831EA000000D0E4
:100F4000012318467047000010B586B004461421EE
:100F50006846FFF76FF918492068884229D1174879
:100F60000021026842F000720260006800F0007028
:100F7000059012481038026842F0020202600068D0
:100F800000F0020005904FF4407000900220CDE97F
:100F9000010103200390092004906946084800F0ED
:100FA000DFF802220021142000F06CFA142000F077
:100FB0005BFA06B010BD00000064004040380240FB
:100FC00000040240704700000A4A10B5084B002197
:100FD000A2F14000FFF723FD08B172B6FEE7054815
:100FE00064230722BDE810400149843800F098BF0F
:100FF00013000020C000002070477047704770B594
:10100000044694F82000012805D0606A40F40020CE
:101010006062012070BD022084F820002068016811
:1010200021F00101016000F0BBF90546206840682D
:1010300010F0010F12D000F0B3F9401B0A2808D9B4
:10104000606A40F400306062052084F820000120CE
:1010500070BD2068406810F0010FECD10020606284
:1010600070BD704770477047704770477047704752
:101070002DE9F0410446A66D00F092F9054694F87A
:1010800035000027022806D08020606584F834707F
:101090000120BDE8F0812068016821F0160101609F
:1010A0002068416921F080014161206C08B9A06C81
:1010B00020B12068016821F0080101602068016802
:1010C00021F0010101602068006810F0010F12D0CA
:1010D00000F066F9401B052808D92020606584F8D7
:1010E0003470032084F83500BDE8F0812068006882
:1010F00010F0010FECD194F85C003F2101FA00F0F0
:10110000B06084F83470012084F835000020BDE818
:10111000F08190F83510022903D08021416501202B
:101120007047052180F835100068016821F0010141
:10113000016000207047000070B5044600F030F9EF
:101140000546B4F1FF3F02D004480078044400F0A3
:1011500027F9401BA042FAD370BD00002C000020EC
:101160002DE9F84F0022DFF81492DFF814A2DFF81F
:1011700014B24FF0010E03274FF00F080EFA02FCD5
:101180000B6803EA0C0363457DD10C7904F003047A
:10119000012C01D0022C14D18568540007FA04F602
:1011A000B543CE6806FA04F42C438460446824EA0C
:1011B0000C0C0C79C4F30014944044EA0C0CC0F8F5
:1011C00004C0D1F804C037EA0C0C0CD0C4684FEA54
:1011D000420C07FA0CF5AC438D6805FA0CFC4CEA9E
:1011E000040CC0F80CC091F804C00CF0030CBCF166
:1011F000020F12D14FEAD20C00EB8C04256A4FEAA1
:10120000427C4FEADC6C08FA0CF6B5430E6906FA2C
:101210000CFC4CEA050CC4F820C004684FEA420CF0
:1012200007FA0CF5AC430D7905F0030505FA0CFC43
:101230004CEA040CC0F800C0D1F804C01CF0805F78
:101240007DD0D9F800C04CF4804CC9F800C0D9F862
:1012500000C00CF4804CCDF800C022F0030C0CF15F
:10126000804505F59835D5F808C89407240F08FA85
:1012700004F62CEA0606A0F1804CBCF5003C64D0D4
:10128000A0F1804C00E05AE0BCF5013C60D0A0F138
:10129000804CBCF5023C5ED0A0F1804CBCF5033C18
:1012A0005CD0A0F1804CBCF5043C5AD0A0F1804C3D
:1012B000BCF5053C58D0A0F1804CBCF5063C56D09E
:1012C000A0F1804CBCF5073C54D04FF0080C0CFA50
:1012D00004FC4CEA060CC5F808C8DAF800C02CEA91
:1012E000030C4C6814F4803F01D04CEA030CCAF89C
:1012F00000C0254CD4F800C02CEA030C4D6815F44E
:10130000003F01D04CEA030CC4F800C0DBF800C079
:101310002CEA030C4C6814F4801F01D04CEA030C37
:10132000CBF800C0194CD4F800C02CEA030C4D686F
:1013300015F4001F01D04CEA030CC4F800C0521C85
:10134000102AFFF41BAFBDE8F88F4FF0000CBEE78A
:101350004FF0010CBBE74FF0020CB8E74FF0030C65
:10136000B5E74FF0040CB2E74FF0050CAFE74FF0D4
:10137000060CACE74FF0070CA9E700004438024028
:10138000003C0140083C0140043C01400C3C014051
:10139000002A01D081617047090481617047000013
:1013A00001488068704700002C00002002488168D6
:1013B00002781144816070472C00002010B50B4862
:1013C000016841F400710160016841F480610160CD
:1013D000016841F480710160032000F087F800206B
:1013E00000F006F800F026F8002010BD003C024096
:1013F00070B504460D4D4FF47A712878B1FBF0F0CA
:101400000B490968B1FBF0F000F0DEFB08B10120E8
:1014100070BD102C07D200222146501E00F032F879
:101420006C60002070BD012070BD00002C00002009
:10143000280000200B4882B0016841F4804101601F
:10144000006800F4804000900648001F016841F0E9
:1014500080510160006800F080500090072002B0C9
:1014600000F044B84438024000280ADB00F01F01B5
:10147000012202FA01F14009800000F1E020C0F8E9
:101480000011704710B4184B1B68C3F30223C3F15B
:10149000070CBCF1040F01D94FF0040C1C1D072CE4
:1014A00001D2002300E0DB1E012404FA0CFCACF1A5
:1014B000010C0CEA0101994004FA03F35B1E1A4087
:1014C0001143002806DB00F1E020090180F8001438
:1014D00010BC704700F00F0000F1E020090180F817
:1014E000141D10BC704700000CED00E000F0070078
:1014F000064A11684FF6FF03194041EA002040F008
:10150000FD7040F080601060704700000CED00E05E
:101510002DE9F04704460D46002C13D0DFF8549116
:10152000D9F80000EFB200F00700A8420DD289F808
:101530000070D9F8000000F00700A84205D0012093
:10154000BDE8F0870120BDE8F08720684A4E10F022
:10155000020F14D010F0040F03D0306840F4E050B4
:101560003060207810F0080F03D0306840F46040FD
:1015700030603068A16820F0F000084330602078C7
:1015800010F0010F3ED060683C49012808D00228C5
:101590000DD003280BD0096811F0020F28D00AE003
:1015A000096811F4003F06D10120BDE8F087096801
:1015B00011F0007F19D0316821F003010843306039
:1015C000FFF7EEFE80463068616800F00C00B0EB7B
:1015D000810F17D041F2883AFFF7E2FEA0EB080036
:1015E000504508D90320BDE8F0870120BDE8F08709
:1015F0000120BDE8F0873068616800F00C00B0EBB6
:10160000810FE9D1D9F8000000F00700A8420AD9FB
:1016100089F80070D9F8000000F00700A84202D055
:101620000120BDE8F087207810F0040F05D0306865
:10163000E16820F4E05008433060207810F0080F93
:1016400006D03068216920F4604040EAC100306073
:1016500000F042F831680A4AC1F30311515CC840F6
:101660000849086008480068FFF7C2FE0020BDE88E
:10167000F0870000003C0240083802400038024079
:10168000F02E0008280000203000002001480068EB
:10169000704700002800002000B5FFF7F7FF04495D
:1016A0000968044AC1F38221515CC84000BD0000B2
:1016B00008380240002F000800B5FFF7E7FF044993
:1016C0000968044AC1F34231515CC84000BD0000C2
:1016D00008380240002F000810B51748006810F0C5
:1016E0000C01164816D04310042912D0082911D134
:1016F000134C216801F03F02216811F4800F0AD0D9
:101700002068C0F38810A0FB03010023FEF75AFDF8
:1017100009E0184610BD21680023C1F38811A1FB20
:101720000001FEF74FFD2168C1F30141491C49004A
:10173000B0FBF1F010BD0000083802400024F400B6
:10174000043802402DE9F84F0446002C12D02078CE
:10175000FB4E10F0010FA6F1040563D0301D0168A7
:1017600001F00C0104290CD0006800F00C000828DE
:1017700003D010E00120BDE8F88F306810F4800F2E
:1017800009D0286810F4003F4CD06068002849D187
:101790000120BDE8F88F6068B0F5803F14D0B0F547
:1017A000A02F16D0286820F480302860286820F404
:1017B00080202860606810B3FFF7F2FD07462868B4
:1017C00010F4003F0ED02DE0286840F480302860EF
:1017D000F0E7286840F480202860286840F48030D2
:1017E0002860E7E7FFF7DCFDC01B642802D903206F
:1017F000BDE8F88F286810F4003FF3D012E0FFF73F
:10180000CFFD0746286810F4003F0BD0FFF7C8FD56
:10181000C01B642802D90320BDE8F88F286810F4A3
:10182000003FF3D12078C74F10F0020F4FF00009AE
:1018300057D0C548016811F00C0F14D0006800F0B3
:101840000C00082803D1306810F4800F0BD0E0683A
:1018500080B301203860FFF7A3FD8046286810F0B0
:10186000020F12D01EE0286810F0020F05D0E068C9
:10187000012802D00120BDE8F88F2868216920F0F6
:10188000F80040EAC10028602BE0FFF789FDA0EBDB
:101890000800022802D90320BDE8F88F286810F05C
:1018A000020FF2D02868216920F0F80040EAC10058
:1018B000286016E0FFE7C7F80090FFF771FD80464B
:1018C000286810F0020F0CD0FFF76AFDA0EB0800AB
:1018D000022802D90320BDE8F88F286810F0020F13
:1018E000F2D1207810F0080F35D09848DFF860A2C8
:1018F0006169C1B101210160FFF752FD8046DAF84C
:10190000000010F0020F26D1FFF74AFDA0EB0800FF
:10191000022802D90320BDE8F88FDAF8000010F0A1
:10192000020FF1D017E0C0F80090FFF739FD8046B4
:10193000DAF8000010F0020F0DD0FFF731FDA0EB38
:101940000800022802D90320BDE8F88FDAF8000069
:1019500010F0020FF1D1207810F0040F71D04FF089
:1019600000087C48006810F0805F0AD1794801685F
:1019700041F080510160006800F0805000904FF00D
:101980000108DFF8D4B1DBF8000010F4807F1BD130
:10199000DBF8000040F48070CBF80000FFF700FD9A
:1019A0008246DBF8000010F4807F0DD1FFF7F8FCD1
:1019B000A0EB0A00022802D90320BDE8F88FDBF86B
:1019C000000010F4807FF1D0A068DFF890B101280A
:1019D00018D005281DD0DBF8000020F00100CBF85E
:1019E0000000DBF8000020F00400CBF80000A06845
:1019F00040B3FFF7D5FC8246DBF8000010F0020F81
:101A000014D03EE0DBF8000040F00100CBF800000D
:101A1000EDE7DBF8000040F00400CBF80000DBF855
:101A2000000040F00100CBF80000E0E7FFF7B8FC51
:101A3000A0EB0A0141F28830814204D90320BDE8BD
:101A4000F88F26E005E0DBF8000010F0020FEDD083
:101A500017E0FFF7A5FC8246DBF8000010F0020F4C
:101A60000FD0FFF79DFCA0EB0A0141F288308142C4
:101A700002D90320BDE8F88FDBF8000010F0020F58
:101A8000EFD1B8F1010F04D13248016821F0805143
:101A90000160A069F0B32C4909684FF0FF3801F0EC
:101AA0000C01082966D0022810D0C7F86090FFF713
:101AB00077FC0446286810F0007F2BD0FFF770FCFD
:101AC000001B022851D90320BDE8F88FC7F86090A9
:101AD000FFF766FC8146286810F0007F0CD0FFF706
:101AE0005FFCA0EB0900022802D90320BDE8F88FB3
:101AF000286810F0007FF2D1216AE069A26A0843E9
:101B0000616A08EB5202890141EA0241084394F8F4
:101B10002C1000E055E040EA01603060012038669A
:101B2000FFF73EFC0446286810F0007F49D1FFF71C
:101B300037FC001B022813D90320BDE8F88F0000F2
:101B4000043802400000474208380240800E4742F5
:101B50007438024040380240007000407038024043
:101B6000286810F0007FE2D02BE0286810F0007F9A
:101B7000A4D126E0012822D03068E26900F4800177
:101B800091421AD1226A00F03F01914215D147F6E5
:101B9000C071626A0140B1EB821F0ED1A26A00F4EB
:101BA000403108EB5202B1EB024F06D194F82C10F1
:101BB00000F07060B0EB016F03D00120BDE70120A1
:101BC000BBE70020B9E70000401EB0F1807F01D3E1
:101BD000012070474FF0E0214861044AF020107066
:101BE00000208861072008610020704723ED00E095
:101BF00070477047F8B5044622681068D168536989
:101C000000F00F0CBCF1000F0AD110F0200F07D02C
:101C100011F0200F04D02046BDE8F84000F0D1BA02
:101C20000025BCF1000F6DD003F0010C01F490769B
:101C30005CEA060666D010F0010F06D011F4807F32
:101C400003D0226C42F00102226410F0040F06D08F
:101C500013F0010F03D0226C42F00202226410F054
:101C6000020F06D013F0010F03D0226C42F00402E1
:101C7000226410F0080F08D001F0200252EA0C0292
:101C800003D0226C42F008022264226C002A2FD07A
:101C900010F0200F05D011F0200F02D0204600F0E8
:101CA00090FA20684069C0F38010216C11F0080F91
:101CB00000D110B3204600F05FFA2068416911F0AE
:101CC000400F16D0416921F040014161A06B60B125
:101CD00047490165A06BFFF71CFA002808D0A06BEC
:101CE000016D01B0BDE8F04008472046FFF781FFD5
:101CF000F8BD2046FFF77DFFF8BD2046FFF779FFCE
:101D00002564F8BD236B012B5CD110F0100F59D066
:101D100011F0100F56D010685068009050694FF0C5
:101D2000200310F0400F2FD0A16B0868406880B2EC
:101D30000028E6D0B4F82CC08445E2D9E085C86913
:101D4000B0F5807F18D0D06820F48070D060206813
:101D5000416921F0010141612068416921F04001A0
:101D6000416184F83E3025632068C16821F010018C
:101D7000C160A06BFFF77CF9A08DE18D401A81B2A4
:101D80002046FFF735FFF8BDA08DE18D401A81B2E6
:101D9000E08D0028F7D00029F5D0D06820F49070AD
:101DA000D0602068426922F00102426184F83E302E
:101DB00025632068C26822F01002C2602046FFF747
:101DC00017FFF8BD10F0800F07D011F0800F04D07E
:101DD0002046BDE8F84000F0E6BA10F0400FF0D021
:101DE00011F0400FEDD02046BDE8F84000F0DCB91E
:101DF0006921000870B50446002C04D094F83D0019
:101E0000002510B106E0012070BD84F83C5020464A
:101E100000F022F8242084F83D002068C16821F4F5
:101E20000051C160204600F025FA2068016921F4C4
:101E3000904101612068416921F02A0141612068D7
:101E4000C16841F40051C1602564202084F83D0040
:101E500084F83E00002070BD10B586B00446142101
:101E60006846FEF7E7F917492068884228D11648E6
:101E70000021026842F400320260006800F4003081
:101E8000059011481038026842F0010202600068B3
:101E900000F0010005900C2000900220CDE9010126
:101EA000032003900720049069460848FFF758F97B
:101EB000002211462620FFF7E5FA2620FFF7D4FA84
:101EC00006B010BD0044004040380240000002400F
:101ED00090F83E30202B01D00220704759B152B10A
:101EE00090F83C30012B08D0012380F83C300023CF
:101EF000036300F03DBA01207047022070470000E4
:101F000010B50548FEF728FCBDE810400222024942
:101F10000248FFF7DDBF0000130000203C00002056
:101F20002DE9F84304460E4615461F4694F83D0039
:101F3000202802D00220BDE8F883C6B1BDB194F8D4
:101F40003C00012816D0012084F83C004FF0000925
:101F5000C4F84090212084F83D00FFF721FA804624
:101F6000A584E584A068B0F5805F06D007E0012075
:101F7000BDE8F8830220BDE8F883206980B13546CA
:101F8000002684F83C90E08CB8B1434600228021C2
:101F90002046009700F036FA20B10320BDE8F88310
:101FA0000025EEE7A5B12168287848606D1CE08C1B
:101FB000401EE084E08C0028E7D143460022402107
:101FC0002046009700F01EFA48B10320BDE8F883D0
:101FD00030882168C0F308004860B61CE7E720207D
:101FE00084F83D000020BDE8F8837047FEE700005C
:101FF0000F4810B50D49016000210322C0E90121FD
:102000004FF42022C0E903124FF48012426101769E
:10201000417681760122C27601774177FEF7CFFEC5
:10202000002801D072B6FEE710BD00000064004039
:102030008000002070B586B014216846FEF7FAF8DB
:102040001A480024016841F080010160016801F034
:1020500080010591016841F001010160016801F012
:1020600001010591016841F008010160016801F07A
:1020700008010591016841F00201016000680C4E01
:1020800000F002004FF470450590002229463046CA
:10209000FFF77EF901200095CDE90104694630463D
:1020A0000394FFF75DF806B070BD000030380240C1
:1020B000000C0240FEE7FEE770477047FFF776B975
:1020C00030B593B030216846FEF7B4F814210CA85F
:1020D000FEF7B0F81E480025016841F0805101600C
:1020E000006800F0805011901A48016841F4804166
:1020F00001600068022400F48040119001200090EB
:10210000000401908001CDE90640082008904FF4BA
:10211000A870CDE9090407200B906846FFF712FB71
:1021200008B172B6FEE70CA90F2081E831004FF428
:10213000A0500F904FF48050109005210CA8FFF78D
:10214000E7F9002801D072B6FEE713B030BD0000F9
:1021500040380240007000400248016841F47001BC
:102160000160704788ED00E010B5806B0021C185EB
:10217000C184FFF73EFD10BD0168CA6822F4907269
:10218000CA6001684A6922F001024A61016B0129B3
:1021900004D10168CA6822F01002CA60202180F8C8
:1021A0003E1000210163704710B50168CA6822F033
:1021B0004002CA60202180F83D10FFF716FF002082
:1021C00010BD10B5044694F83E00222801D002202C
:1021D00010BDA168B1F5805F01D1206928B1A06A66
:1021E000B1F5805F1DD051B10BE0A06A216849684C
:1021F000C1F308010180A06A801CA06209E0216986
:1022000079B12168496801F07F010170A06A401C22
:10221000A062E08D401E0004000CE08505D0002087
:1022200010BD216849680170F0E72068C16821F09D
:102230002001C1602068C16821F48071C1602068FC
:10224000416921F001014161202084F83E00206BAA
:10225000012805D02046FFF753FE0020206310BD63
:102260002068C16821F01001C160A18D2046FFF7F0
:10227000BFFCF2E72DE9F041044620680169E268FD
:1022800021F44051114301612169A068E2690843CA
:102290006169114301432068C26822F4037222F489
:1022A00014421143C16020684169A26921F4407160
:1022B000114341612068A0F18041B1F588312ED0F1
:1022C000A0F18041B1F58A3129D0FFF7E5F98446C4
:1022D000E16900201927254D3226B1F5004F22D0A3
:1022E0006068830F8200ACFB0701FDF76BFF0146BE
:1022F000A5FB002040097A42424301EB820106EB34
:102300000111A5FB0121490901F0F00202EB0010C7
:1023100001F00F01084421688860BDE8F081FFF7F3
:10232000CBF98446D4E761684A1840EB0003ACFB64
:102330000701FDF747FF0346A5FB001041091846BA
:102340000A016FF01803594300EB810006EBC0004F
:10235000A5FB0010400900F0F80102EB410100F07C
:102360000700084421688860BDE8F0811F85EB51B3
:1023700081628285C28500210164222280F83E208C
:1023800080F83C100168CA6842F48072CA60016833
:102390004A6942F001024A610068C16841F02001C7
:1023A000C1600020704790F83D10212901D0022023
:1023B00070478168B1F5805F01D1016961B1016A3F
:1023C0004A1C0262026809785160C18C491E0904E6
:1023D000090CC1840AD013E0016A02680988C1F3BC
:1023E00008015160016A891C0162EEE70168CA6850
:1023F00022F08002CA600068C16841F04001C160FB
:10240000002070472DE9F0410446069D8846174696
:102410001E462068006838EA000020D00020B8423C
:1024200027D1B5F1FF3F1CD025B1FEF7B9FF801BC6
:10243000A84216D92068C16821F4D071C160206813
:10244000416921F001014161202084F83D0084F8B8
:102450003E00002084F83C000320BDE8F08101200C
:10246000DDE72068006838EA000005D00020B842A7
:10247000D7D00020BDE8F0810120F8E70148FFF740
:10248000B9BB00003C000020FEE703B40198410006
:10249000009850EAC12018BF04204A0D18BF40F030
:1024A000010040F2FF72B2EB515F08BF40F0020042
:1024B000012808BF052002B070470000000000009E
:1024C00010B52F499FED2C1B2DED020B84B0059804
:1024D00020F000408842DCBF00209DED040B32DD7F
:1024E0002849884209D1049840B94FF0010000F012
:1024F0006FFC00F03DFC06B010BD05DB9DED040B4C
:1025000000F02AFC06B010BD68469DED040B00F0FB
:102510003BF810F0030011D0012818D09DED021BEC
:102520009DED000B02281AD000F04AFA51EC100B76
:1025300081F0004106B041EC100B10BD9DED021B77
:102540009DED000B012000F06FFB06B010BD9DED6E
:10255000021B9DED000B00F033FA06B010BD012008
:1025600000F062FB51EC100B81F0004106B041EC31
:10257000100B10BD00000000000000000000000073
:10258000FB21E93F0000F07F2DE9F14F04462DEDDE
:10259000020B2DED088B8AB09FEDE70B80ED020B4F
:1025A000139EE74826F0004585420ADC9DED120B9C
:1025B000002084ED000B0AB0BDEC088B03B0BDE831
:1025C000F08FE0489FEDE0AB9FEDE1BBA84247DD17
:1025D000E14F9FEDE39B9FEDE48B9DED120B53ECE0
:1025E0001A2B51EC100B002E1CDDFDF7CFFE41EC39
:1025F000100BBD4208D053EC1B2B51EC100BFDF718
:10260000C5FEC4E900010BE053EC192B51EC100B93
:10261000FDF7BCFE53EC182BFDF7B8FEC4E9000132
:102620000120C8E7FDF711FE41EC100BBD4208D0B8
:1026300053EC1B2B51EC100BFDF707FEC4E9000116
:102640000BE053EC192B51EC100BFDF7FEFD53EC96
:10265000182BFDF7FAFDC4E900014FF0FF30AAE79F
:10266000C348A84279DB9DED120B51EC100B00F032
:10267000B5FB41EC180B9FEDC00B53EC102BFDF795
:102680008BFE9FEDBF1B53EC112BFDF7DEFDFEF71C
:102690003CF80746FEF728F841EC190B53EC1A2BCF
:1026A000FDF77AFE53EC182BFDF773FE41EC180B87
:1026B00053EC1B2B51EC190BFDF76EFEDFF8C8A293
:1026C00041EC100B4FEA15580125FA4453EC102B3E
:1026D00051EC180BFDF75AFE032DC4E900013DD063
:1026E000C1F30A5005EB4511A8EB000011398142F6
:1026F00034DA0AEB051BB0EE48AA9BED000BF0EEB6
:1027000068AA53EC102B51EC190BFDF745FE41EC78
:102710001B0B51EC1A0B53EC1B2BFDF737FE41EC56
:10272000180B51EC1A0B53EC182BFDF72FFE53EC42
:102730001B2BFDF72BFE9BED020B41EC1A0B53EC10
:10274000102B51EC190BFDF727FE53EC1A2BFDF75C
:102750001DFE41EC100B6D1CB8E70EE0002EA8BF6B
:102760003846BFF628AF94ED000B51EC100B81F00A
:102770000041C4E9000178421DE7C6F3130040F4AC
:10278000801EC6F30A50A0F2F530471100F01F0575
:10279000C5F12000DDF848B00890002006900790B1
:1027A0000520EC467949002D07EB0002794408BF6B
:1027B00051F8221009D051F8223001EB8201AB40D0
:1027C0004A68089922FA01F11943A1FB0E26A1FBE0
:1027D0000B131A449A4234BF0123002303EB06086B
:1027E0000CEB8003D3E901A60E448E4234BF0121D5
:1027F000002192448A4411B1924502D903E09245E6
:1028000001D2012100E00021C3E901A641444CF8B6
:102810002010011EA0F10100C4DC029800F100505C
:10282000850F0298DDE903678000DDF81480FDF76D
:102830005BFF41EC1A0B3046FDF78FFE9FED541BFA
:1028400053EC112BFDF7A8FD41EC1B0B3846FDF7AF
:1028500084FE9FED511B53EC112BFDF79DFD41ECC8
:10286000180B4046FDF779FE9FED4D1B53EC112BE5
:10287000FDF792FD41EC190B51EC180B53EC192BA1
:10288000FDF7E3FC53EC1B2BFDF7DFFC53EC1A2B9D
:10289000FDF7DBFCCDE90801002008909DED080B59
:1028A00053EC1A2B51EC100BFDF770FD53EC1B2B66
:1028B000FDF76CFD53EC182BFDF768FD53EC192B5D
:1028C000FDF767FD9FED381B53EC112BFDF764FD01
:1028D0009FED370B41EC180B53EC102B9DED080BC3
:1028E00051EC100BFDF758FD53EC182BFDF7ADFC28
:1028F0009FED310B41EC180B53EC102B9DED080BA9
:1029000051EC100BFDF748FD53EC182BFDF79DFC27
:1029100041EC100B139810F0004F06D06D4251ECB3
:10292000100B81F0004141EC100B284684ED000BA8
:1029300041E6000000000000000000000000000070
:10294000FB21E93F7CD9024000004054FB21F93FC4
:102950003163621A61B4D03DFB21F93F00000000F1
:102960000000601A61B4D03D7370032E8A19A33B36
:10297000FB2139410000000083C8C96D305FE43F8E
:10298000000000000000E03F6A080000B8070000F7
:10299000000000000000103E000000000000103C9D
:1029A000000000000000103A182D4454FB21F93DAE
:1029B0003326A611460B113C00000054FB21F93DC3
:1029C00010B52DED040B2DED088B82B0B0EE419AC1
:1029D000F0EE619A0B9820F000449FED4BABB4F100
:1029E000795F11DA9DED0A0B51EC100BFDF78DFEAE
:1029F000002801BFB0EE4A0AF0EE6A0A02B0BDEC50
:102A0000088B04BF04B010BD9DED0A0B53EC102BD6
:102A100051EC100BFDF7C0FC41EC180B3C480621B3
:102A2000B0EE480AF0EE680A784400F081F853EC02
:102A3000182B51EC100BFDF7AFFC9DED0A0B41EC90
:102A40001B0B53EC192B51EC100BFDF7A5FC41ECC3
:102A5000190B53EC1B2B51EC180BFDF79DFC53ECA1
:102A6000192BFDF793FC9FED2C0B41EC190B53EC4C
:102A7000102B51EC180BFDF78FFC41EC100B284884
:102A8000844210DA53EC192B51EC100BFDF77EFC4D
:102A900053EC1A2BFDF77DFC41EC100B02B0BDECA2
:102AA000088B04B010BD1F48A042BCBF9FED1E1B89
:102AB0008DED001B06DBA4F50010019000200090B6
:102AC0009DED001B51EC100B53EC112BFDF75EFC40
:102AD0009DED000B41EC180B53EC102B51EC1A0B35
:102AE000FDF754FC41EC1A0B53EC192B51EC180B6D
:102AF000FDF74CFC53EC1A2BFDF74BFC41EC100B93
:102B0000CCE7000000000000000000000000F03FE3
:102B1000DC04000000000000000000000000E03FB6
:102B20003333D33F0000E93F000000000000D23FF4
:102B300070B504462DED028B4D1E00EBC500B0EEC6
:102B4000408AF0EE608A90ED000B35F0060017D059
:102B500053EC182B51EC100BFDF71EFC41EC100B45
:102B60006D1E04EBC50090ED001B51EC100B53ECF7
:102B7000112BFDF76AFB41EC100B35F00600E7D195
:102B8000022D36D0042D1CD0062D1CBFBDEC028BAF
:102B900070BD53EC182B51EC100BFDF7FDFB94EDC1
:102BA0000A1B53EC112BFDF750FB53EC182BFDF7D0
:102BB000F3FB94ED081B53EC112BFDF746FB41ECA6
:102BC000100B53EC182B51EC100BFDF7E5FB94EDBB
:102BD000061B53EC112BFDF738FB53EC182BFDF7BC
:102BE000DBFB94ED040B53EC102BFDF72EFB41ECBB
:102BF000100B53EC182B51EC100BFDF7CDFB94EDA3
:102C0000021B53EC112BFDF720FB53EC182BFDF7A7
:102C1000C3FB94ED001B53EC112BFDF716FBBDEC31
:102C2000028B41EC100B70BD31B504462DED040B49
:102C30002DED0A8BB0EE41BAF0EE61BA0B989DED26
:102C40000A0B20F00040B0F1795F0DDA51EC100B67
:102C5000FFF71BFC042808BF00F09AF89DED0A0B53
:102C6000BDEC0A8B05B030BD53EC102B51EC100BB2
:102C7000FDF792FB41EC180B9DED0A0B53EC182B62
:102C800051EC100BFDF788FB41EC190B2C48B0EE12
:102C9000480AF0EE680A05217844FFF749FF9FEDE6
:102CA0002ACBB0EE40AAF0EE60AA9CB353EC1C2BEA
:102CB00051EC190BFDF770FB41EC1C0B53EC1A2B7C
:102CC00051EC190BFDF768FB9FED210B41EC190B43
:102CD00053EC102B51EC1B0BFDF75EFB53EC192B47
:102CE000FDF754FB53EC182BFDF756FB53EC1B2B55
:102CF000FDF74CFB53EC1C2BFDF748FB9DED0A1B2D
:102D000053EC112BFDF745FBBDEC0A8B05B041ECF4
:102D1000100B30BDFFE753EC1A2B51EC180BFDF7ED
:102D20003BFB53EC1C2BFDF790FA53EC192BFDF7F2
:102D300033FB9DED0A1B53EC112BFDF786FAE3E7FD
:102D40006403000000000000495555555555C5BFA6
:102D5000000000000000E03F10B553EC102B51ECD8
:102D6000100BFDF772FA41EC100B10BD00000000D3
:102D70009FED050B10B553EC102B51EC100BFDF72C
:102D80007DFB41EC100B10BD0000000000000000B6
:102D90009FED050B10B553EC102B51EC100BFDF70C
:102DA000FBFA41EC100B10BD000000000000001009
:102DB00002E008C8121F08C1002AFAD17047704704
:102DC000002001E001C1121F002AFBD17047000062
:102DD00001490860704700003800002082B0CDE94A
:102DE000000121F0004001909DED000B02B051EC7C
:102DF000100B70472DED048BFEF7E0FAFFF760F93A
:102E0000FFF718F9FFF7F4F833483249002401605E
:102E10004FF4E131C0E901140C21C460C0E9044160
:102E20008461C461FEF7E6FF08B172B6FEE70222D4
:102E30002A492948FFF74CF827480121A0301222DF
:102E40000162C0E904424FF4A072C0E90024C0E965
:102E50000224C0E906411421416201465C38FDF7B5
:102E600049FD1D484430FEF7CAF81B480221443092
:102E7000FDF7ABFC194D9FED1A8B133D9FED1A9B8F
:102E80004FEA0504FEF78CFAFDF767FB41EC100BE7
:102E900053EC182B85ED080BFDF7F0FA41EC100B05
:102EA000FFF70EFB53EC182B51EC100BFDF774FAE7
:102EB00053EC192BFDF7C9F9FDF75CFB6880010A9B
:102EC0002170607005481338FDF746FC0120FEF7BD
:102ED00033F9D7E7004400403C00002013000020F5
:102EE0000000000000407F4000000000007097409C
:102EF00000000000000000000102030406070809AA
:102F000000000000010203044C5555555555A53FDE
:102F10007751C1166CC156BF9015CB19A001FA3E6E
:102F2000AD529C804F7E92BEC4B1B4BD9EEE213E98
:102F3000D43888BEE9FAA8BD00004054FB21F93F0F
:102F40003163621A61B4D03D0000601A61B4D03DB3
:102F50007370032E8A19A33B0000002E8A19A33B2D
:102F6000C14920259A837B39000000000000000041
:102F70006E83F9A22915444ED15727FCC0DD34F5E4
:102F8000999562DB4190433CAB6351FE61C5BBDE6A
:102F90003A6E24B7E0D24D42EA2E49061C92D1097E
:102FA0001CEB1DFE3EA729B1F53582E88444BB2EFB
:102FB00026709CE9417E5FB439D69139F439538348
:102FC0008B5F849C3B28F9BDFF97F81F0F9805DEA7
:102FD0008B112FEF1F6D0A5ACF7E366DB709CB27A5
:102FE000663F464F2DEA5F9EC7BA27757BF1E5EB3A
:102FF000F739073DEA92528AB15FFB6B085D8D1F7E
:10300000A6F810111111813FD561C119A0012ABF85
:103010007DFEB157E31DC73EEB9C2B8AE6E55ABE09
:103020007CD5CF5A3AD9E53D483000080000002051
:103030003C000000B02D0008843000083C00002057
:10304000CC040000C02D00080000000000000000BB
:103050000000000000000000000000000000000070
:103060000000000000000000000000000000000060
:103070000024F40001000000100000000000000027
:04308000000000004C
:040000050800018965
:00000001FF
