:020000040800F2
:1000000088050020A10100089B220008D1210008DA
:1000100099220008750700086D26000800000000FE
:100020000000000000000000000000009F22000807
:1000300041080008000000009D220008A1220008DD
:10004000BB010008BB010008BB010008BB010008A0
:10005000BB010008BB010008BB010008BB01000890
:10006000BB010008BB010008BB010008BB01000880
:10007000BB010008BB010008BB010008BB01000870
:10008000BB010008BB010008BB010008BB01000860
:1000900079070008BB010008BB010008BB0100088C
:1000A000BB010008BB010008BB010008BB01000840
:1000B000BB010008BB010008BB010008BB01000830
:1000C000BB010008BB010008BB010008BB01000820
:1000D000BB010008BB01000861260008BB01000845
:1000E000BB010008BB010008BB010008BB01000800
:1000F000BB010008BB010008BB010008BB010008F0
:10010000BB010008BB010008BB010008BB010008DF
:10011000BB010008BB010008BB010008BB010008CF
:10012000BB010008BB010008BB010008BB010008BF
:10013000BB010008BB010008BB010008BB010008AF
:10014000BB010008BB010008BB010008BB0100089F
:10015000BB010008BB010008BB010008BB0100088F
:10016000BB010008BB010008BB010008BB0100087F
:10017000BB010008BB010008BB0100080000000033
:10018000BB010008BB010008DFF810D000F0E0FA66
:10019000004800474D2F0008AFF30080880500207D
:1001A0000648804706480047FEE7FEE7FEE7FEE711
:1001B000FEE7FEE7FEE7FEE7FEE7FEE73D23000879
:1001C000890100082DE9F05F0546002092469B4614
:1001D00088460646814640241BE02846414647465D
:1001E000224600F093F953465A46C01A914110D363
:1001F00011461846224600F07AF92D1A67EB0108DD
:100200004F4622460120002100F071F917EB00094A
:100210004E41201EA4F10104DFDC484631462A4647
:100220004346BDE8F09FD2B201E000F8012B491E21
:10023000FBD270470022F6E710B513460A46044683
:100240001946FFF7F0FF204610BD2DE9FE4F80460E
:1002500081EA0300C00F0C46009021F0004123F01A
:100260000045B8EB0200A94105D240462146904620
:100270001C460B46024623F00040104347D0270D92
:10028000C7F30A00C3F30A510290401A01904028B4
:100290006BDAC3F3130040F4801B0098924620B140
:1002A0000023D2EB030A63EB0B0B01985946C0F114
:1002B0004002504600F01BF906460D46504659468E
:1002C000019A00F033F910EB08006141002487EA3D
:1002D000115284EAE7731A4340D0009A62B3019A3C
:1002E000012A4FEA075215DC001B61EB02014FF0B7
:1002F000004202EA0752CDE90042001C41F580119C
:1003000032462B4600F033F903B0BDE8F08F40468B
:100310002146F9E7001B61EB0201001C41F5801347
:1003200000185B412018A2F5001747EB030140EAD3
:10033000D570B6196D4111E06D084FEA360645EAF1
:10034000C0754FEA0752001B61EB0201001C41F52A
:10035000801149084FEA30000019514132462B46BE
:1003600003B0BDE8F04F00F0F3B800980122400060
:100370000023D0EB020263EBE073009821464FEAC2
:10038000E074B8EB000061EB0401E9E783F000439F
:100390005BE781F0004158E72DE9F04D81EA030465
:1003A00004F0004B21F0004514464FF0000A23F002
:1003B000004150EA050220D054EA01021DD0C5F3E5
:1003C0000A570246C5F31303C1F31300C1F30A56DB
:1003D00040F4801543F48013A7EB0608101BD646A3
:1003E00008F2FD3873EB050002D308F1010801E0C3
:1003F00092185B41B8F1000F03DA00200146BDE816
:10040000F08D00204FF48011064684460EE0171B45
:1004100073EB050705D3121B63EB050306434CEA98
:10042000010C49084FEA300092185B4150EA01077D
:10043000EDD152EA030012D082EA040083EA0501FA
:10044000084305D0101BAB4106D20122002306E071
:1004500000224FF0004302E06FF0010253101AEB4C
:1004600006004CEB085110EB0A0041EB0B01BDE814
:10047000F04D00F06DB80EB540F23341029100210D
:10048000CDE900110A460B4600F071F803B000BD3B
:10049000C1F30A5210B5C1F3130140F2FF3341F426
:1004A00080119A4201DA002010BD40F233439A4293
:1004B000A2F2334203DC524200F028F810BD904013
:1004C00010BD30B50B46014600202022012409E072
:1004D00021FA02F59D4205D303FA02F5491B04FAFD
:1004E00002F52844151EA2F10102F1DC30BD202ADC
:1004F00004DB203A00FA02F1002070479140C2F17B
:10050000200320FA03F3194390407047202A04DBAC
:10051000203A21FA02F00021704721FA02F3D0407C
:10052000C2F120029140084319467047202A06DB99
:10053000CB17203A41FA02F043EAE07306E041FAB1
:1005400002F3D040C2F1200291400843194670479F
:1005500010B5141E73F1000408DA401C41F10001CB
:1005600092185B411A4301D120F0010010BD2DE922
:10057000F04D92469B4611B1B1FA81F202E0B0FA19
:1005800080F220329046FFF7B2FF04460F4640EA61
:100590000A0041EA0B0153465A46084313D011465C
:1005A00053EA010019D0C8F140025046FFF7AEFFF0
:1005B00005460E46504659464246FFF798FF084307
:1005C00005D0012004E020463946BDE8F08D00202A
:1005D000054346EAE0762C4337430A986305E40A6C
:1005E000A0EB08000022FD0A44EA47540A3002D575
:1005F00000200146E9E7010510196941DDE90845D8
:1006000000196941BDE8F04DA2E72DE9FE4F81EAEE
:10061000030404F0004421F0004100944FF0000B6B
:1006200023F0004350EA01045ED052EA03045BD099
:10063000C3F30A54C1F30A552C44A4F2F3340194D1
:10064000A0FB0254C1F3130141F48011C3F313035F
:1006500043F4801301FB024400FB034E840A970A13
:1006600044EA815447EA8357A4FB076802958D0A40
:1006700005FB07854FEA932C04FB0C542705029DCC
:100680004FEA065847EA1637B5EB08056EEB070C3C
:10069000870E920E47EA811742EA8312A7FB0201F6
:1006A000B6EB0B0164EB00042B0D43EA0C335E1830
:1006B00044EB1C50DA465146E7FB0201C5F3130434
:1006C0004FEA0B3343EA14534FEA0432019C43EAE6
:1006D0000603A4F10C040294009CCDE900B4FFF7DA
:1006E00046FF03B0BDE8F08F00200146F9E7C1F3F3
:1006F0000A52C1F3130140F2FF3341F480119A42D0
:1007000002DA00200146704740F233439A42A2F2D7
:10071000334202DC5242FFF7F9BEFFF7E8BE0000A9
:1007200030B5041E71F1000404DB4FF00044404278
:1007300064EB0101141E73F1000405DB1C464FF04D
:100740000043524263EB0403994208BF904230BD1C
:10075000064C074D06E0E06840F0010394E807000E
:1007600098471034AC42F6D3FFF712FD343000083E
:1007700054300008FEE70000014800F05BBA0000BA
:1007800058000020184910B50A220A6007220A61A1
:1007900000228A60CA6015498022A1F10C040A7007
:1007A00087224A7077228A700278CA70407808716E
:1007B00002F5BF721044E080020A4A7188710B1F73
:1007C0000A460949A1F16C0000F04DF820B1012260
:1007D0005103074800F0CEFE0348A1686C3800F0D2
:1007E000F7FB0028F8D110BDC40000200C00002049
:1007F000000C02400F4A10B51060002090600220EB
:10080000C2E903010B490C4B0022A1F16C0000F07E
:100810002AF820B101225103084800F0ABFE064C33
:10082000083C0448A1686C3800F0D2FB0028F8D1DD
:1008300010BD0000C400002008000020000C024091
:10084000704790F82020012A07D0022A05D0416A7B
:1008500041F48021416201207047006842691143E0
:1008600041610020704770B490F82040D0F800C07B
:10087000DCF808C0012C08D0022C06D0416A41F4F3
:100880008021416270BC012070470CF080640CF044
:1008900000652C4302D11CF0805F5FD0CCF3016C6B
:1008A000BCF1020F06D9416A41F40001416270BCFB
:1008B00001207047012404FA0CF41C608B684FF48B
:1008C000C0749BB1CD6804EB0C162B434D6843EA12
:1008D000C5030568AB514FF4C273066803EB0C13F4
:1008E0000D69F550097D012909D00DE00D88CB680F
:1008F00004EB0C1643EA45530568AB51EBE701687E
:10090000CD5845F48075CD501179D379557941EAA8
:10091000036193791B0443EA052319434FF4C67519
:10092000036805EB0C1559511178D37841EA03613E
:10093000937852781B0443EA022211434FF4C473A4
:10094000026803EB0C13D150016804EB0C100A5839
:1009500042F001020A5070BC00207047416A41F425
:100960000011416270BC01207047000090F8202007
:10097000012A07D0022A05D0416A41F48021416250
:10098000012070474248D0F8002242F00102C0F82E
:100990000022D0F8002222F47C52C0F80022D0F8C5
:1009A00000224B6A42EA0322C0F800220A7D01239A
:1009B00002F01F0203FA02F2D0F81C329343C0F88F
:1009C0001C32CB69D3B9D0F80C329343C0F80C3247
:1009D000B1F80CC04B686CF31F43D1F814C000EBA6
:1009E000CC0CCCF84032B1F808C00B686CF31F4354
:1009F000D1F814C000EBCC0CCCF84432CB69012BFD
:100A00001AD1D0F80C321343C0F80C32B1F800C040
:100A10004B686CF31F43D1F814C000EBCC0CCCF83E
:100A20004032B1F808C0CB686CF31F43D1F814C052
:100A300000EBCC0CCCF844328B697BB1D0F804329B
:100A40001343C0F804320B6973B1D0F81432134366
:100A5000C0F81432096A01290CD010E0D0F8043231
:100A60009343C0F80432EEE7D0F814329343C0F851
:100A70001432EFE7D0F81C121143C0F81C12D0F862
:100A8000001221F00101C0F80012002070470000A0
:100A900000640040704710B490F820C0BCF1010F12
:100AA00009D0BCF1020F06D0416A41F480214162B5
:100AB00010BC0120704739B1D0F800C0DCF810C07C
:100AC0001CF0030F7DD006E0D0F800C0DCF80CC0AD
:100AD0001CF0030F7BD04FF4D87C04680CEB011C96
:100AE00054F80C4004F004049460002C7DD0046899
:100AF00054F80C40E4085460046854F80CC00CF03E
:100B0000020CC2F80CC04FF4DA7C04680CEB011C38
:100B100054F80C4004F00F041461046854F80C40BD
:100B2000C4F307249461046854F80CC04FEA1C4CC9
:100B3000C2F814C04FF4DC72D0F800C002EB01120E
:100B40005CF802C083F800C0D0F800C05CF802C0B6
:100B50004FEA1C2C83F801C0D0F800C05CF802C03A
:100B60004FEA1C4C83F802C0D0F800C05CF80220A9
:100B7000120EDA704FF4DE72D0F800C002EB0112F0
:100B80005CF802C083F804C0D0F800C05CF802C072
:100B90004FEA1C2C83F805C0D0F800C05CF802C0F6
:100BA0004FEA1C4C83F806C0D0F800C05CF8022065
:100BB000120EDA71F9B10068016941F0200101619A
:100BC00002E00BE003E010E010BC00207047416A37
:100BD00041F40011416210BC01207047416A41F4A8
:100BE0000011416210BC01207047046854F80C40A9
:100BF000640D146080E70068C16841F02001C160A5
:100C0000DEE70246002092F82010012901D00229D7
:100C10000FD111688A6812F0806F00D001208A68B5
:100C200012F0006F00D0401C896811F0805F00D086
:100C3000401C70472DE9F05F05460024286846698E
:100C4000D0F804908768D0F80CA0D0F810B0D0F895
:100C5000188016F0010F54D017F0010F17D00121A2
:100C6000816017F0020F03D0284600F0E5FA0EE08D
:100C700017F0040F02D04FF4006408E017F0080FDB
:100C800002D04FF4805402E0284600F0D4FA17F462
:100C9000807F19D029684FF48070886017F4007F36
:100CA00003D0284600F0CAFA0EE017F4806F02D095
:100CB00044F4005408E017F4006F02D044F4804478
:100CC00002E0284600F0B9FA17F4803F19D02968ED
:100CD0004FF48030886017F4003F03D0284600F0BE
:100CE000AFFA0EE017F4802F02D044F4004408E07D
:100CF00017F4002F02D044F4803402E0284600F0BC
:100D00009EFA16F0080F07D01AF0100F04D044F422
:100D1000007429681020C86016F0040F4FF008070F
:100D200007D01AF0080F04D02868C760284600F0E2
:100D30009DF916F0020F07D02868C06810F0030F65
:100D400002D0284600F094F916F0400F07D01BF0AF
:100D5000100F04D044F4806429681020086116F054
:100D6000200F07D01BF0080F04D028680761284621
:100D700000F02CFA16F0100F07D02868006910F068
:100D8000030F02D0284600F022FA16F4003F08D0E4
:100D900019F0100F05D0296810204860284600F08F
:100DA00017FA16F4803F07D019F0080F04D028680E
:100DB0004760284600F045FA16F4004F4AD019F073
:100DC000040F44D016F4807F04D018F0010F01D036
:100DD00044F0010416F4007F04D018F0020F01D093
:100DE00044F0020416F4806F04D018F0040F01D010
:100DF00044F0040416F4006F29D018F0700F26D0C8
:100E000008F07000402815D006DC102809D02028F2
:100E10000AD0302816D10AE050280ED0602811D10F
:100E20000EE044F008040DE044F010040AE044F041
:100E3000200407E044F0400404E044F0800401E0B2
:100E400044F480742868816921F070018161296807
:100E500004204860002C05D0686A20436862284658
:100E6000FFF718FEBDE8F09F70B50446002C03D0D4
:100E700094F8200010B104E0012070BD204600F07D
:100E8000B7F82068016821F00201016000F07AFBE8
:100E90000546206840684FF0050610F0020F11D09B
:100EA00000F070FB401B0A2807D9606A40F400304C
:100EB000606284F82060012070BD2068406810F0F6
:100EC000020FEDD12068016841F00101016000F0DE
:100ED00059FB05462068406810F0010F11D100F061
:100EE00051FB401B0A2807D9606A40F40030606259
:100EF00084F82060012070BD2068406810F0010F68
:100F0000EDD0207E01283FD02068016821F08001CB
:100F10000160607E01283DD02068016821F0400119
:100F20000160A07E01283BD02068016821F02001EB
:100F30000160E07E012839D02068016841F010018D
:100F40000160207F012837D02068016821F0080166
:100F50000160607F012835D02068016821F004011C
:100F60000160E168A0686269084321691143084390
:100F70006168491E08432168C86100206062012041
:100F800084F82000002070BD2068016841F08001D5
:100F90000160BEE72068016841F040010160C0E7E0
:100FA0002068016841F020010160C2E72068016803
:100FB00021F010010160C4E72068016841F00801D8
:100FC0000160C6E72068016841F004010160C8E7DC
:100FD000002390F82020012A01D0022A06D10068BF
:100FE0008906806831EA000000D001231846704766
:100FF00010B586B0044614216846FFF71BF918495E
:101000002068884229D117480021026842F0007206
:101010000260006800F00070059012481038026805
:1010200042F002020260006800F0020005904FF4F6
:10103000407000900220CDE90101032003900920B7
:1010400004906946084800F075F902220021142036
:1010500000F00AFB142000F0F9FA06B010BD000001
:101060000064004040380240000402407047000025
:101070002DE9F0433C4A3B4B00212DED068B89B016
:10108000A2F18400FFF707FD08B172B6FEE74FF446
:101090008041364800F066FA324C208840BAFFF7AB
:1010A000EAF99FED331B53EC112BFFF76FF99FED1E
:1010B00032AB53EC1A2BFFF76FF941EC190BA4F18B
:1010C000130585ED0E9BA078FFF7D5F99FED2C1B3E
:1010D00053EC112BFFF760F941EC180B85ED088BF1
:1010E000E078FFF7C8F953EC1A2BFFF755F9C5E97B
:1010F0000A0106460F462079FFF7BDF99FED221B36
:1011000053EC112BFFF742F9C5E90C018046E0884A
:10111000894640BAFFF7AFF9C5E910010D4604460C
:1011200051EC180BFFF7B4F90E4953EC192B133996
:10113000087002A8CDE9064580E8C0030A488DED95
:10114000008B13A11C3001F093FA09B006490A2361
:10115000BDEC068B3A221C31A1F17800BDE8F043CA
:1011600000F0D0BF13000020DC000020000C024083
:101170000000000000209C4000000000000024400F
:1011800000000000000014400000000000004E407D
:10119000416E676C3A20252E32660A766F6C743A7F
:1011A00020252E32660A637572723A20252E326629
:1011B0000A54656D703A20252E32660A43686563CD
:1011C0006B3A20252E32660A0000000070477047F7
:1011D000704770B5044694F82000012805D0606A75
:1011E00040F400206062012070BD022084F82000DD
:1011F0002068016821F00101016000F0C3F9054693
:101200002068406810F0010F12D000F0BBF9401BBD
:101210000A2808D9606A40F400306062052084F82A
:101220002000012070BD2068406810F0010FECD153
:101230000020606270BD704770477047704770470C
:10124000704770472DE9F0410446A66D00F09AF909
:10125000054694F835000027022806D080206065F6
:1012600084F834700120BDE8F0812068016821F025
:10127000160101602068416921F080014161206C04
:1012800008B9A06C20B12068016821F00801016054
:101290002068016821F0010101602068006810F0F9
:1012A000010F12D000F06EF9401B052808D920204C
:1012B000606584F83470032084F83500BDE8F0815F
:1012C0002068006810F0010FECD194F85C003F2119
:1012D00001FA00F0B06084F83470012084F8350021
:1012E0000020BDE8F08190F83510022903D080215C
:1012F000416501207047052180F8351000680168BC
:1013000021F00101016000207047000070B5044623
:1013100000F038F90546B4F1FF3F02D004480078E8
:10132000044400F02FF9401BA042FAD370BD000026
:101330004C0000202DE9F84F0022DFF81492DFF86E
:1013400014A2DFF814B24FF0010E03274FF00F087C
:101350000EFA02FC0B6803EA0C0363457DD10C799D
:1013600004F00304012C01D0022C14D18568540030
:1013700007FA04F6B543CE6806FA04F42C438460F9
:10138000446824EA0C0C0C79C4F30014944044EA39
:101390000C0CC0F804C0D1F804C037EA0C0C0CD017
:1013A000C4684FEA420C07FA0CF5AC438D6805FAA5
:1013B0000CFC4CEA040CC0F80CC091F804C00CF012
:1013C000030CBCF1020F12D14FEAD20C00EB8C04DB
:1013D000256A4FEA427C4FEADC6C08FA0CF6B5430A
:1013E0000E6906FA0CFC4CEA050CC4F820C004682F
:1013F0004FEA420C07FA0CF5AC430D7905F00305F2
:1014000005FA0CFC4CEA040CC0F800C0D1F804C08A
:101410001CF0805F7DD0D9F800C04CF4804CC9F836
:1014200000C0D9F800C00CF4804CCDF800C022F008
:10143000030C0CF1804505F59835D5F808C89407DC
:10144000240F08FA04F62CEA0606A0F1804CBCF53D
:10145000003C64D0A0F1804C00E05AE0BCF5013CB7
:1014600060D0A0F1804CBCF5023C5ED0A0F1804C75
:10147000BCF5033C5CD0A0F1804CBCF5043C5AD0D8
:10148000A0F1804CBCF5053C58D0A0F1804CBCF5D7
:10149000063C56D0A0F1804CBCF5073C54D04FF030
:1014A000080C0CFA04FC4CEA060CC5F808C8DAF87B
:1014B00000C02CEA030C4C6814F4803F01D04CEAC5
:1014C000030CCAF800C0254CD4F800C02CEA030C69
:1014D0004D6815F4003F01D04CEA030CC4F800C07D
:1014E000DBF800C02CEA030C4C6814F4801F01D018
:1014F0004CEA030CCBF800C0194CD4F800C02CEA1D
:10150000030C4D6815F4001F01D04CEA030CC4F81D
:1015100000C0521C102AFFF41BAFBDE8F88F4FF03B
:10152000000CBEE74FF0010CBBE74FF0020CB8E730
:101530004FF0030CB5E74FF0040CB2E74FF0050C89
:10154000AFE74FF0060CACE74FF0070CA9E700003F
:1015500044380240003C0140083C0140043C01404A
:101560000C3C0140426921EA0203114043EA014177
:1015700081617047002A01D081617047090481614F
:101580007047000001488068704700004C00002050
:101590000248816802781144816070474C00002045
:1015A00010B50B48016841F400710160016841F415
:1015B00080610160016841F480710160032000F0E6
:1015C00087F8002000F006F800F026F8002010BD93
:1015D000003C024070B504460D4D4FF47A712878F6
:1015E000B1FBF0F00B490968B1FBF0F000F0DEFB55
:1015F00008B1012070BD102C07D200222146501ED8
:1016000000F032F86C60002070BD012070BD000059
:101610004C000020480000200B4882B0016841F4D3
:1016200080410160006800F4804000900648001F7F
:10163000016841F080510160006800F08050009026
:10164000072002B000F044B84438024000280ADB0A
:1016500000F01F01012202FA01F14009800000F1AF
:10166000E020C0F80011704710B4184B1B68C3F39A
:101670000223C3F1070CBCF1040F01D94FF0040C95
:101680001C1D072C01D2002300E0DB1E012404FAFC
:101690000CFCACF1010C0CEA0101994004FA03F3D3
:1016A0005B1E1A401143002806DB00F1E02009010F
:1016B00080F8001410BC704700F00F0000F1E0202B
:1016C000090180F8141D10BC704700000CED00E00B
:1016D00000F00700064A11684FF6FF03194041EA7F
:1016E000002040F0FD7040F0806010607047000006
:1016F0000CED00E02DE9F04704460D46002C13D018
:10170000DFF85491D9F80000EFB200F00700A842CA
:101710000DD289F80070D9F8000000F00700A84247
:1017200005D00120BDE8F0870120BDE8F0872068E2
:101730004A4E10F0020F14D010F0040F03D030689E
:1017400040F4E0503060207810F0080F03D030688B
:1017500040F4604030603068A16820F0F000084339
:101760003060207810F0010F3ED060683C490128BD
:1017700008D002280DD003280BD0096811F0020F01
:1017800028D00AE0096811F4003F06D10120BDE825
:10179000F087096811F0007F19D0316821F003014A
:1017A00008433060FFF7EEFE80463068616800F065
:1017B0000C00B0EB810F17D041F2883AFFF7E2FE40
:1017C000A0EB0800504508D90320BDE8F0870120B0
:1017D000BDE8F0870120BDE8F0873068616800F05F
:1017E0000C00B0EB810FE9D1D9F8000000F0070040
:1017F000A8420AD989F80070D9F8000000F0070063
:10180000A84202D00120BDE8F087207810F0040F34
:1018100005D03068E16820F4E0500843306020785B
:1018200010F0080F06D03068216920F4604040EACB
:10183000C100306000F042F831680A4AC1F3031178
:10184000515CC8400849086008480068FFF7C2FEBC
:101850000020BDE8F0870000003C0240083802404C
:10186000003802401C3000084800002050000020D2
:1018700001480068704700004800002000B5FFF7ED
:10188000F7FF04490968044AC1F38221515CC8404A
:1018900000BD0000083802402C30000800B5FFF7FA
:1018A000E7FF04490968044AC1F34231515CC8406A
:1018B00000BD0000083802402C30000810B5174861
:1018C000006810F00C01164816D04310042912D0FD
:1018D000082911D1134C216801F03F02216811F44D
:1018E000800F0AD02068C0F38810A0FB03010023FA
:1018F000FEF768FC09E0184610BD21680023C1F31B
:101900008811A1FB0001FEF75DFC2168C1F30141D4
:10191000491C4900B0FBF1F010BD0000083802403E
:101920000024F400043802402DE9F84F0446002C4E
:1019300012D02078FB4E10F0010FA6F1040563D001
:10194000301D016801F00C0104290CD0006800F082
:101950000C00082803D010E00120BDE8F88F3068A3
:1019600010F4800F09D0286810F4003F4CD0606854
:10197000002849D10120BDE8F88F6068B0F5803FAC
:1019800014D0B0F5A02F16D0286820F4803028603D
:10199000286820F480202860606810B3FFF7F2FD0B
:1019A0000746286810F4003F0ED02DE0286840F468
:1019B00080302860F0E7286840F48020286028689C
:1019C00040F480302860E7E7FFF7DCFDC01B6428A7
:1019D00002D90320BDE8F88F286810F4003FF3D047
:1019E00012E0FFF7CFFD0746286810F4003F0BD048
:1019F000FFF7C8FDC01B642802D90320BDE8F88F9B
:101A0000286810F4003FF3D12078C74F10F0020F80
:101A10004FF0000957D0C548016811F00C0F14D0E1
:101A2000006800F00C00082803D1306810F4800F23
:101A30000BD0E06880B301203860FFF7A3FD80463B
:101A4000286810F0020F12D01EE0286810F0020F74
:101A500005D0E068012802D00120BDE8F88F286891
:101A6000216920F0F80040EAC10028602BE0FFF770
:101A700089FDA0EB0800022802D90320BDE8F88FF9
:101A8000286810F0020FF2D02868216920F0F800D1
:101A900040EAC100286016E0FFE7C7F80090FFF7B2
:101AA00071FD8046286810F0020F0CD0FFF76AFD28
:101AB000A0EB0800022802D90320BDE8F88F2868AF
:101AC00010F0020FF2D1207810F0080F35D09848AE
:101AD000DFF860A26169C1B101210160FFF752FD29
:101AE0008046DAF8000010F0020F26D1FFF74AFD19
:101AF000A0EB0800022802D90320BDE8F88FDAF82D
:101B0000000010F0020FF1D017E0C0F80090FFF7CE
:101B100039FD8046DAF8000010F0020F0DD0FFF713
:101B200031FDA0EB0800022802D90320BDE8F88FA0
:101B3000DAF8000010F0020FF1D1207810F0040F55
:101B400071D04FF000087C48006810F0805F0AD127
:101B50007948016841F080510160006800F08050D0
:101B600000904FF00108DFF8D4B1DBF8000010F46A
:101B7000807F1BD1DBF8000040F48070CBF80000C0
:101B8000FFF700FD8246DBF8000010F4807F0DD1E6
:101B9000FFF7F8FCA0EB0A00022802D90320BDE8F9
:101BA000F88FDBF8000010F4807FF1D0A068DFF838
:101BB00090B1012818D005281DD0DBF8000020F0D6
:101BC0000100CBF80000DBF8000020F00400CBF8A7
:101BD0000000A06840B3FFF7D5FC8246DBF80000A8
:101BE00010F0020F14D03EE0DBF8000040F00100DE
:101BF000CBF80000EDE7DBF8000040F00400CBF884
:101C00000000DBF8000040F00100CBF80000E0E746
:101C1000FFF7B8FCA0EB0A0141F28830814204D9F9
:101C20000320BDE8F88F26E005E0DBF8000010F0A7
:101C3000020FEDD017E0FFF7A5FC8246DBF80000AD
:101C400010F0020F0FD0FFF79DFCA0EB0A0141F24C
:101C50008830814202D90320BDE8F88FDBF800000C
:101C600010F0020FEFD1B8F1010F04D13248016832
:101C700021F080510160A069F0B32C4909684FF050
:101C8000FF3801F00C01082966D0022810D0C7F8EF
:101C90006090FFF777FC0446286810F0007F2BD097
:101CA000FFF770FC001B022851D90320BDE8F88F14
:101CB000C7F86090FFF766FC8146286810F0007F47
:101CC0000CD0FFF75FFCA0EB0900022802D903202B
:101CD000BDE8F88F286810F0007FF2D1216AE06932
:101CE000A26A0843616A08EB5202890141EA024193
:101CF000084394F82C1000E055E040EA01603060A1
:101D000001203866FFF73EFC0446286810F0007F8B
:101D100049D1FFF737FC001B022813D90320BDE887
:101D2000F88F0000043802400000474208380240A3
:101D3000800E474274380240403802400070004034
:101D400070380240286810F0007FE2D02BE028684D
:101D500010F0007FA4D126E0012822D03068E2698B
:101D600000F4800191421AD1226A00F03F019142B1
:101D700015D147F6C071626A0140B1EB821F0ED1E6
:101D8000A26A00F4403108EB5202B1EB024F06D1D7
:101D900094F82C1000F07060B0EB016F03D00120BC
:101DA000BDE70120BBE70020B9E70000401EB0F10D
:101DB000807F01D3012070474FF0E0214861044A41
:101DC000F020107000208861072008610020704713
:101DD00023ED00E070477047F8B5044622681068AC
:101DE000D168536900F00F0CBCF1000F0AD110F05C
:101DF000200F07D011F0200F04D02046BDE8F84096
:101E000000F0D1BA0025BCF1000F6DD003F0010C39
:101E100001F490765CEA060666D010F0010F06D059
:101E200011F4807F03D0226C42F00102226410F092
:101E3000040F06D013F0010F03D0226C42F002020F
:101E4000226410F0020F06D013F0010F03D0226CB1
:101E500042F00402226410F0080F08D001F02002C2
:101E600052EA0C0203D0226C42F008022264226C77
:101E7000002A2FD010F0200F05D011F0200F02D033
:101E8000204600F090FA20684069C0F38010216C71
:101E900011F0080F00D110B3204600F05FFA20685F
:101EA000416911F0400F16D0416921F040014161B4
:101EB000A06B60B147490165A06BFFF714FA0028D9
:101EC00008D0A06B016D01B0BDE8F0400847204686
:101ED000FFF781FFF8BD2046FFF77DFFF8BD2046E4
:101EE000FFF779FF2564F8BD236B012B5CD110F05F
:101EF000100F59D011F0100F56D010685068009094
:101F000050694FF0200310F0400F2FD0A16B0868EC
:101F1000406880B20028E6D0B4F82CC08445E2D9ED
:101F2000E085C869B0F5807F18D0D06820F4807053
:101F3000D0602068416921F0010141612068416958
:101F400021F04001416184F83E3025632068C1687A
:101F500021F01001C160A06BFFF774F9A08DE18D35
:101F6000401A81B22046FFF735FFF8BDA08DE18D04
:101F7000401A81B2E08D0028F7D00029F5D0D06852
:101F800020F49070D0602068426922F00102426122
:101F900084F83E3025632068C26822F01002C260D7
:101FA0002046FFF717FFF8BD10F0800F07D011F0A3
:101FB000800F04D02046BDE8F84000F0E6BA10F0EB
:101FC000400FF0D011F0400FEDD02046BDE8F840B2
:101FD00000F0DCB94D23000870B50446002C04D095
:101FE00094F83D00002510B106E0012070BD84F892
:101FF0003C50204600F022F8242084F83D00206860
:10200000C16821F40051C160204600F025FA206823
:10201000016921F4904101612068416921F02A01A0
:1020200041612068C16841F40051C16025642020ED
:1020300084F83D0084F83E00002070BD10B586B0E5
:10204000044614216846FEF7F5F8174920688842CF
:1020500028D116480021026842F40032026000686C
:1020600000F40030059011481038026842F0010277
:102070000260006800F0010005900C200090022032
:10208000CDE9010103200390072004906946084828
:10209000FFF750F9002211462620FFF7E5FA262027
:1020A000FFF7D4FA06B010BD0044004040380240AB
:1020B0000000024090F83E30202B01D002207047F3
:1020C00059B152B190F83C30012B08D0012380F86F
:1020D0003C300023036300F03DBA0120704702202A
:1020E0007047000010B50548FEF74CFBBDE81040F6
:1020F000022202490248FFF7DDBF00001300002062
:10210000800000202DE9F84304460E4615461F4680
:1021100094F83D00202802D00220BDE8F883C6B123
:10212000BDB194F83C00012816D0012084F83C0091
:102130004FF00009C4F84090212084F83D00FFF7DB
:1021400021FA8046A584E584A068B0F5805F06D0BA
:1021500007E00120BDE8F8830220BDE8F88320698C
:1021600080B13546002684F83C90E08CB8B14346F7
:10217000002280212046009700F036FA20B103208B
:10218000BDE8F8830025EEE7A5B12168287848600E
:102190006D1CE08C401EE084E08C0028E7D14346B3
:1021A000002240212046009700F01EFA48B103208B
:1021B000BDE8F88330882168C0F308004860B61C89
:1021C000E7E7202084F83D000020BDE8F883704751
:1021D000FEE700000F4810B50D4901600321416082
:1021E00000214FF420228160C0E903124FF48012D5
:1021F00042610176417681760122C276017741778C
:10220000FEF732FE002801D072B6FEE710BD0000D6
:10221000006400405800002070B586B01421684664
:10222000FEF708F81A480024016841F080010160B7
:10223000016801F080010591016841F00101016030
:10224000016801F001010591016841F00801016098
:10225000016801F008010591016841F00201016087
:1022600000680C4E00F002004FF47045059000220B
:1022700029463046FFF77EF901200095CDE901049B
:10228000694630460394FFF755F806B070BD00006C
:1022900030380240000C0240FEE7FEE7704770470E
:1022A000FFF776B930B593B030216846FDF7C2FF2D
:1022B00014210CA8FDF7BEFF1E480025016841F05F
:1022C00080510160006800F0805011901A48016848
:1022D00041F4804101600068022400F480401190C4
:1022E00001200090000401908001CDE90640082003
:1022F00008904FF4A870CDE9090407200B906846B8
:10230000FFF712FB08B172B6FEE70CA90F2081E8B7
:1023100031004FF4A0500F904FF4805010900521E1
:102320000CA8FFF7E7F9002801D072B6FEE713B05A
:1023300030BD000040380240007000400248016893
:1023400041F470010160704788ED00E010B5806BCA
:102350000021C185C184FFF73EFD10BD0168CA6838
:1023600022F49072CA6001684A6922F001024A614F
:10237000016B012904D10168CA6822F01002CA6009
:10238000202180F83E1000210163704710B50168DC
:10239000CA6822F04002CA60202180F83D10FFF791
:1023A00016FF002010BD10B5044694F83E00222808
:1023B00001D0022010BDA168B1F5805F01D1206974
:1023C00028B1A06AB1F5805F1DD051B10BE0A06AC1
:1023D00021684968C1F308010180A06A801CA062DD
:1023E00009E0216979B12168496801F07F01017034
:1023F000A06A401CA062E08D401E0004000CE08535
:1024000005D0002010BD216849680170F0E7206800
:10241000C16821F02001C1602068C16821F4807189
:10242000C1602068416921F001014161202084F8E8
:102430003E00206B012805D02046FFF753FE002008
:10244000206310BD2068C16821F01001C160A18D1A
:102450002046FFF7BFFCF2E72DE9F0410446206873
:102460000169E26821F44051114301612169A068CA
:10247000E26908436169114301432068C26822F49C
:10248000037222F414421143C16020684169A269B9
:1024900021F44071114341612068A0F18041B1F500
:1024A00088312ED0A0F18041B1F58A3129D0FFF7D3
:1024B000E5F98446E16900201927254D3226B1F55A
:1024C000004F22D06068830F8200ACFB0701FDF74C
:1024D00079FE0146A5FB002040097A42424301EB08
:1024E000820106EB0111A5FB0121490901F0F0026F
:1024F00002EB001001F00F01084421688860BDE87C
:10250000F081FFF7CBF98446D4E761684A1840EBC5
:102510000003ACFB0701FDF755FE0346A5FB0010C9
:10252000410918460A016FF01803594300EB810076
:1025300006EBC000A5FB0010400900F0F80102EB1B
:10254000410100F00700084421688860BDE8F0817F
:102550001F85EB5181628285C285002101642222A0
:1025600080F83E2080F83C100168CA6842F480720E
:10257000CA6001684A6942F001024A610068C168A4
:1025800041F02001C1600020704790F83D102129E2
:1025900001D0022070478168B1F5805F01D10169E7
:1025A00061B1016A4A1C0262026809785160C18CFB
:1025B000491E0904090CC1840AD013E0016A0268AB
:1025C0000988C1F308015160016A891C0162EEE7C4
:1025D0000168CA6822F08002CA600068C16841F0E0
:1025E0004001C160002070472DE9F0410446069D7E
:1025F000884617461E462068006838EA000020D04A
:102600000020B84227D1B5F1FF3F1CD025B1FEF71D
:10261000B9FF801BA84216D92068C16821F4D07187
:10262000C1602068416921F001014161202084F8E6
:102630003D0084F83E00002084F83C000320BDE803
:10264000F0810120DDE72068006838EA000005D04D
:102650000020B842D7D00020BDE8F0810120F8E783
:102660000148FFF7B9BB000080000020FEE7000032
:102670000FB4084B10B504A902AA039800F0DEF8C5
:10268000044602A9002000F05CFC204610BC5DF866
:1026900014FB0000432F000802E008C8121F08C105
:1026A000002AFAD170477047002001E001C1121FD3
:1026B000002AFBD1704700002DE9FF5F82B00021A6
:1026C000DDE90430020DDDF840B0034318D044F6D4
:1026D0001050A2F2FF3242431514119801281FD066
:1026E000A5EB0B00401C5FEA000A4FF000064E4FBE
:1026F000DFF83891B046504615D5CAF1000413E012
:10270000119801244AA3012801D16FEA0B01029814
:10271000119AC0E90031C0E9024206B0BDE8F09F5D
:10272000CBF10000DFE704460021404A491842EBA4
:102730000450CDE9001012E0E00707D032463B46D6
:1027400040464946FDF761FF8046894632463B4692
:1027500010461946FDF759FF06460F466410002C37
:10276000EAD1DDE90401DDE90023BAF1000F06DA60
:10277000FDF74BFF42464B46FDF747FF05E0FDF7EF
:102780000BFE42464B46FDF707FE04460E4600226E
:10279000284BFDF7C5FF03D84FF0FF30014607E097
:1027A0000022254B20463146FDF74FFDFDF79FFFE8
:1027B000102409E0002C0ADB0A220023FDF702FDA9
:1027C000039B30321A55641E50EA0102F2D1641C98
:1027D000039AC4F111031444119A012A03D001226F
:1027E00008430DD10AE0084304D000204FF0110B3C
:1027F000119072E7A3EB0B056D1E0DE05B4504DD48
:102800004FF0000205F1010504E003DA4FF0000289
:10281000A5F10105002AECD002981199C0E9023116
:10282000C0E9004579E70000000014400000F03FD7
:10283000300000000000F0430000E03F2DE9FF4FB2
:1028400095B09A46884606460025EEE1252877D1C0
:1028500000242746F94A0121039400E0044316F8B6
:10286000013F203B01FA03F01042F7D130782A28CB
:1028700011D06FF02F033078A0F13002092A16D85A
:10288000039A44F0020402EB820203EB420210447A
:10289000761C0390EFE758F8042B0392002A03DA22
:1028A000504244F40054039044F00204761C307803
:1028B0002E2816D116F8010F44F004042A280DD052
:1028C0006FF02F023078A0F13003092B09D807EB05
:1028D000870302EB4303C718761CF3E758F8047B21
:1028E000761C30786C280FD006DC4C2817D068286E
:1028F0000DD06A2814D104E0742810D07A280FD1A2
:102900000DE044F400140AE044F4801401E044F4BF
:1029100040147278824202D104F58014761C761C31
:10292000307866280BD013DC582877D009DC0028D3
:1029300075D04528F6D04628F4D047281AD193E11F
:1029400018E0632835D0642879D0652812D18BE14E
:10295000702873D008DC6728F1D069286FD06E2802
:102960000DD06F2806D1ACE073282CD0752874D018
:10297000782853D05246179990476D1C54E1C4F300
:102980000250022809D003280DD0D8F800100428DE
:102990000DD00D6008F1040846E1D8F80010EA17E0
:1029A000C1E90052F6E7D8F800100D80F2E70D708B
:1029B000F0E718F8041B8DF8001000208DF80100D6
:1029C000EB46012003E058F804BB4FF0FF306107ED
:1029D0004FF0000102D40DE009F101018946B9422E
:1029E0000FDA8145F8DB1BF809100029F4D108E063
:1029F00009F1010189468142FADB1BF8091000291F
:102A0000F6D103985346A0EB090721463846179A9A
:102A100000F080FA284400EB090507E044E008E1F3
:102A20000DE01BF8010B524617999047B9F10109C7
:102A3000F7D2534621463846179AF2E039E00A2188
:102A4000C4F302524FF0000B0091022A06D058F84E
:102A5000040BC117032A09D00AE023E008F107009C
:102A600020F00702F2E80201904605E000B2C1172B
:102A7000042A01D140B2C117002906DA0A46002112
:102A8000404261EB02012D2202E0220504D52B22F7
:102A90008DF80420012203E0E20701D02022F7E7AD
:102AA000914657E00A2100E010214FF0000B009101
:102AB0000BE010214FF0000B44F0040408270091B4
:102AC00003E008204FF0000B0090C4F30252022AEA
:102AD00005D058F8040B0021032A08D008E008F1BB
:102AE000070020F00702F2E80201904603E080B2FE
:102AF000042A00D1C0B24FF0000922072AD532784B
:102B0000702A07D0DDF800C08CF0100C5CEA0B0CCA
:102B100005D00EE040228DF80420012208E050EAA2
:102B2000010306D030238DF804308DF805200222F1
:102B30009146009B83F0080353EA0B030AD150EA45
:102B4000010201D1620705D530228DF804204FF033
:102B500001097F1E3278582A04D039A20C920CAA9F
:102B600002920BE03BA2F9E75B46009AFDF72AFBD5
:102B70000C9B9B5C029A521E0292137050EA010257
:102B8000F2D1029804A9081A00F1200B600702D5BF
:102B900024F4803400E001275F4502DDA7EB0B0041
:102BA00000E0002000EB0B01009003984944401A1C
:102BB0000390E00306D453462146179A039800F089
:102BC000A9F90544002706E001A85246C05D1799FF
:102BD00090476D1C7F1C4F45F6DBE0030CD5534638
:102BE0002146179A039800F095F9054404E0302037
:102BF0005246179990476D1C0099481E0090002975
:102C0000F5DC08E00298029952460078491C0291CE
:102C1000179990476D1CBBF10001ABF1010BF1DC82
:102C20005BE100F065F90544761C307800287FF4FC
:102C30000DAE19B02846BDE8F08F0000092801004C
:102C40003031323334353637383961626364656622
:102C500000000000303132333435363738394142E4
:102C60004344454600000000600700D4062708F1F1
:102C7000070020F00700F0E80223804603F0004C34
:102C80005FEA0C0001D097A009E0200501D596A0CD
:102C900005E0E00701D095A001E0AFF24C001390F1
:102CA000307823F0004365280CD006DC452809D095
:102CB00046281DD047287FD13BE0662818D06728DA
:102CC0007AD136E00021112F01DB112000E0781CC1
:102CD000CDE9000104A90CA8FFF7EEFCDDE90D0128
:102CE0000C9A4FF0000B07F10109109200914EE091
:102CF0004FF000400097CDE9011004A90CA8FFF7A0
:102D0000DBFCDDE90D020C9B0F994FF0000B9146A7
:102D10001093009211B9791C00EB0109B7EB09007F
:102D200003D4C0F1FF3B07F10109A9EB07000190B3
:102D300042E0012F00DA01270021112F01DD1120CF
:102D400000E03846CDE9000104A90CA8FFF7B4FC67
:102D5000DDE90D010C9A00914FF0000BB94610927D
:102D600021070FD4009A4A4503DA914601E0A9F100
:102D70000109B9F1010F05DD109AA9F10101515CBA
:102D80003029F4D0B84202DA10F1040F03DA01213D
:102D9000CDE9011010E0002803DC8344A9EB000119
:102DA00002E0411C494500DD8946A0EB0B00401CB8
:102DB00001904FF000400290200705D4019848454B
:102DC00002DB4FF0FF30019000208DF84B0002989D
:102DD0000DF14B07B0F1004F25D002200C902B20B5
:102DE0000D90029800280CDA404202902D200D90A0
:102DF00007E00A210298FDF764FB3031029007F8E2
:102E0000011D0C99481E0C900029F2DC0298002844
:102E1000EFD1791E0D980870307800F0200040F056
:102E2000450007F8020D11A8C01BC01D02901398A1
:102E3000007800B1012000EB0901019801EBE0717D
:102E4000029801440398401A401E0390E00306D400
:102E500053462146179A039800F05CF805441398EE
:102E6000007818B15246179990476D1CE00323D59E
:102E700053462146179A039800F04CF805441BE08E
:102E8000BBF1000F07DB0098584504DD1098179937
:102E900010F80B0001E01799302052469047019836
:102EA0000BF1010B401E05F10105019004D12E200C
:102EB0005246179990476D1CB9F10001A9F101091B
:102EC000DEDC05E017F8010B5246179990476D1CA0
:102ED0000299481E02900029F4DC53462146179AB5
:102EE00003989EE62D0000002B000000200000004B
:102EF0002DE9F041044600251E461746880404D4F7
:102F000005E039462020B0476D1C641EF9D52846DF
:102F1000BDE8F0812DE9F041044600251E469046AB
:102F2000C80301D5302700E02027880404D505E038
:102F300041463846B0476D1C641EF9D52846BDE8A9
:102F4000F0810A68531C0B6010707047FEF728FB75
:102F5000FFF7A8F9FFF760F9FFF73CF92C482B4978
:102F6000002401604FF4E131C0E901140C21C46078
:102F7000C0E904418461C461FFF72EF808B172B65C
:102F8000FEE7022223492248FFF794F820484FF435
:102F9000A071DC300461C0E9001484600121C161CA
:102FA000C46001620146A0F58270FDF7DFFC18489D
:102FB0002838FEF70EF9164802212838FDF741FCA3
:102FC000144E0527133EDFF850A040F2DC55741C68
:102FD0004FF0DC084FF48059B5800D48277084F815
:102FE00001802838FDF70DFE58B10A481238FDF768
:102FF000C9FB08210A20FDF7FDFB0120FEF786F939
:10300000EAE749465046FEF7ADFAE5E700440040DE
:103010008000002013000020000C0240000000008F
:103020000000000001020304060708090000000078
:103030000102030454300008000000205800000082
:1030400098260008AC300008580000203005000029
:10305000A82600080000000000000000000000009A
:103060000000000000000000000000000000000060
:103070000000000000000000000000000000000050
:103080000000000000000000000000000000000040
:103090000000000000000000000000000024F40018
:0C30A00001000000100000000000000013
:040000050800018965
:00000001FF
