:020000040800F2
:100000003809002451030008875A000831590008B4
:10001000855A00082B150008DD6500080000000067
:10002000000000000000000000000000CD5C00089F
:10003000E519000800000000895A0008CF5C00089C
:100040006B0300086B0300086B0300086B030008D8
:100050006B0300086B0300086B0300086B030008C8
:100060006B0300086B0300086B030008A115000870
:100070006B0300086B0300086B0300086B030008A8
:100080006B0300086B0300086B030008091A0008E3
:100090006B0300086B0300086B0300086B03000888
:1000A0006B0300086B0300086B0300086B03000878
:1000B0006B0300086B0300086B0300086B03000868
:1000C0006B0300086B0300086B0300086B03000858
:1000D0006B0300086B030008D16500086B03000880
:1000E0006B0300086B030008000000006B030008AE
:1000F0006B0300086B0300086B0300086B03000828
:100100006B0300086B0300086B0300086B03000817
:100110006B0300086B0300086B0300086B03000807
:100120006B0300086B0300086B0300086B030008F7
:100130006B0300086B0300086B030008151A000826
:1001400000000000000000000000000000000000AF
:100150006B0300086B0300086B0300086B030008C7
:100160006B0300086B0300086B0300086B030008B7
:100170006B0300086B0300086B030008000000001D
:100180006B0300086B0300086B0300086B03000897
:100190006B0300086B0300086B0300086B03000887
:1001A0006B0300086B0300086B0300086B03000877
:1001B0006B0300086B0300086B0300086B03000867
:1001C0006B0300086B0300086B0300086B03000857
:1001D0006B0300086B0300086B0300086B03000847
:1001E0006B0300086B0300086B0300086B03000837
:1001F0006B0300086B0300086B0300086B03000827
:100200006B0300086B0300086B0300086B03000816
:100210006B0300086B0300086B0300086B03000806
:100220006B0300086B0300086B030008000000006C
:100230006B0300086B030008000000006B0300085C
:100240006B0300086B0300086B0300086B030008D6
:100250006B0300086B0300086B0300086B030008C6
:100260006B0300086B0300086B0300086B030008B6
:100270006B0300086B0300086B030008000000001C
:100280006B0300086B0300086B030008000000000C
:10029000000000006B03000800F002F800F049F8CD
:1002A0000AA090E8000C82448344AAF10107DA45D1
:1002B00001D100F03EF8AFF2090EBAE80F0013F0DA
:1002C000010F18BFFB1A43F00103184760650000D7
:1002D00080650000103A24BF78C878C1FAD8520768
:1002E00024BF30C830C144BF04680C6070470000B0
:1002F0000023002400250026103A28BF78C1FBD82F
:10030000520728BF30C148BF0B607047662906F00E
:10031000F281002070471FB506F0E8F900F0D4FB29
:1003200004000020002106F0CBF9E0601FBD10B5ED
:1003300010BD00F0C9FC1146FFF7EDFF06F080F993
:1003400000F0E7FC03B4FFF7F2FF03BC00F01EFD72
:100350000948804709480047FEE7FEE7FEE7FEE759
:10036000FEE7FEE7FEE7FEE7FEE7FEE70448054995
:10037000054A064B70470000795D000899020008A5
:1003800038030024380900243805002438050024E7
:1003900053EA020C00F069802DE9F04B4FF00006A3
:1003A000002B1FBFB3FA83F503FA05F424FA05F610
:1003B0005E4012BF1643B2FA82F502FA05F4C5F1A7
:1003C00020051EBF22FA05FC44EA0C04203556EA3B
:1003D000044C4FEA144418BF641C4FF000084FF05F
:1003E0000009904271EB030C39D3002919BFB1FA0F
:1003F00081F701FA07F6B0FA80F700FA07F6C7F1BD
:1004000020071EBF20FA07FC46EA0C062037B6FB81
:10041000F4FCA7EB0507103F07F01F0BCBF12006FC
:100420000CFA0BFB2CFA06F644BFB3460026202F2D
:10043000A4BF5E464FF0000B5BEA060C08BF4FF00E
:10044000010B19EB0B09ABFB027C48EB0608C01B48
:1004500006FB02CC0BFB03CC71EB0C01C1E70B4696
:10046000024641464846BDE8F08B13B54FF0000008
:100470004FF00001AFF30080BDE81C407047000062
:100480000FB41CB5074B06AA7B446946009005983B
:1004900000F001FB0020694600F010FB1CBC5DF879
:1004A00014FB0000310600002DE9F0474FF0000A70
:1004B00089460446C0F820A02046E1688847002805
:1004C00076D0252806D0D4E901219047206A401C27
:1004D0002062F1E7E168204600258847C4F81CA0A7
:1004E00006460027C4F818A02A2E09D0304606F088
:1004F0009FF838B304EB8708303EC8F8186019E05D
:1005000059F8041B204604EB87029161E168884793
:10051000012F064618D1E069002820DA25F02005D1
:100520001DE0D8F8180000EB800006EB40003038E2
:10053000C8F818002046E1688847064606F078F8B3
:100540000028EED1012F0AD02E2E08D12046E168D6
:1005500088477F1C0646022F45F02005C4DBA069B2
:10056000002803DA404245F00105A061E80701D008
:1005700025F01005B6B1A6F14100192802D82036A1
:1005800045F400654A463146204625604D46FFF752
:10059000BDFE58B1012806D0ED1D25F0070000F181
:1005A000080989E704E005F1040985E730468AE790
:1005B000206ABDE8F08710B5203AC0F00B80B1E8A2
:1005C0001850203AA0E81850B1E81850A0E8185088
:1005D000BFF4F5AF5FEA027C24BFB1E81850A0E891
:1005E000185044BF18C918C0BDE810405FEA827CAB
:1005F00024BF51F8043B40F8043B08BF7047D207C2
:1006000028BF31F8023B48BF11F8012B28BF20F862
:10061000023B48BF00F8012B70474FF0000200B5C5
:10062000134694469646203922BFA0E80C50A0E815
:100630000C50B1F12001BFF4F7AF090728BFA0E8C3
:100640000C5048BF0CC05DF804EB890028BF40F88F
:10065000042B08BF704748BF20F8022B11F0804FD1
:1006600018BF00F8012B70477047704770477047FC
:100670002DE9FF4F0C461E464FF0FF378BB0D2E9F5
:100680000001DDF860800A908A46C1F30A5505B979
:100690003D46002108464FF00000BAF1000F00F47B
:1006A000400005DA00EB80004FF4400101EA500001
:1006B0004FEA9059B9F1010F00DDB9460A9850EAA6
:1006C0004A000ED044F61050A5F2FF3545432F14D2
:1006D000B8F1000F1ED07542291E1EDDC9F10002BF
:1006E0001CE0B8F1010F4FF0000001D0302103E011
:1006F000F24305E02154401CB042FBDB30460022AF
:10070000002121540B99C1F80880C1E900200FB0E5
:10071000BDE8F08FBD1B6D1CDEE74A4600DA69427A
:1007200006A800F05BFA06AB93E8070003AB83E88A
:10073000070050460A9900F030FB8DE80700A0F54D
:1007400000501F3800900398002D0ADD42F21F016F
:100750004A460844002303A90390684600F099FD27
:1007600009E0A0F500504A461F38002303A9039072
:10077000684600F0A3FD8DE807000004000C03D0DC
:100780004FF0FF30410800E01046B8F1000F03D0F1
:100790000022009215461EE0751E05D400F098F95F
:1007A000303262556D1EF9D5B3460122084302D09E
:1007B00000227F1C04E02078302801D100227F1E17
:1007C000002A099784D01DE0112D07DA00F080F986
:1007D000303262556D1C50EA0102F5D1084302D057
:1007E0000098C8B10EE00021681E05E0235C625C41
:1007F00063542254401E491C8142F7DBAB46A81BC0
:10080000401E0990002004F80B000B98099AC0F8CC
:100810000880C0E9002B7AE711264FF0000857E75F
:100820002DE9F04F88460446D21D22F0070191B011
:10083000D1E90001CDE90A0105F0D1FE02460B988D
:10084000C00F01D02D2007E02068810701D52B20A3
:1008500002E0202101EAC000032A099001D0072A02
:1008600005DB03464146204600F078F90BE120788D
:10087000800601D5E06900E00620B8F1650F8146E9
:1008800006D0B8F1660F18D0B8F1670F70D131E01B
:100890000020B9F1110F009001DB112301E009F1F3
:1008A00001030AAA01A90CA8FFF7E2FEDDE90C701A
:1008B000002609F10105834647E001204B460090E0
:1008C0004FF000470AAA01A90CA8FFF7D1FEDDE905
:1008D0000DB00C995D46002610B909F101000D1804
:1008E000B9EB050003D4C0F1FF3609F10105A5EB12
:1008F00009002BE0B9F1010F01DA4FF001090020E6
:10090000B9F1110F0090484601DD112300E00346C4
:100910000AAA01A90CA8FFF7ABFEDDE90C704D4651
:1009200000268346207800070AD4AB4500DA5D46EE
:1009300001A8012D04DD411911F8011C302907D04F
:100940004F4502DA17F1040F04DA012082460FE066
:100950006D1EEEE7002F02DCED1B3E4403E0781C29
:10096000A84200DD7D1CB81B00F1010A4FF00047D2
:100970002078000703D4AA4501DB4FF0FF3A00219D
:10098000B7F1004F0DF143088DF8431024D0022039
:100990002B23002F01DA7F422D230A21021EA0F112
:1009A000010000DC5FB197FBF1FC97FBF1F201FB6A
:1009B0001C7C17460CF1300C08F801CDEEE7A8F1CD
:1009C000010003702188090501D5452100E065215A
:1009D000A0F1010800F8011C09980FA9A1EB080774
:1009E000FF1D00B10120411901EBEA70A1693844F3
:1009F000081A401EA0612078C00602D42046AFF33A
:100A00000080099828B1D4E901219047206A401C50
:100A100020622078C00622D52046AFF300801EE079
:100A2000002E04DBB34502DD01A8805D00E030202C
:100A3000D4E901219047206A401C2062761CAAF16B
:100A400001005FEA000A0AD100F03EF8C0680168C0
:100A5000405CD4E901219047206A401C2062281E96
:100A6000A5F10105DCDC07E0D4E9012118F8010B50
:100A70009047206A401C2062381EA7F10107F3DC72
:100A80002046AFF30080032011B041E601694A1C03
:100A900002610878704700B58FB0CDE901310021BF
:100AA000059105497944CDE9031011466846FFF7E1
:100AB000FBFC0FB000BD0000E5FFFFFF0A6802F875
:100AC000010B0A607047000000487047F4020024E0
:100AD00030B5B0F10A024FEA900E71F100034EEA10
:100AE000817EB0EB0E0061EB91014FEA101E4EEAE1
:100AF000017E10EB0E0041EB11114FEA102E4EEA71
:100B0000016E10EB0E0041EB11214FEA104E4EEA40
:100B1000014E10EB0E0041EB1141401841F1000174
:100B20004FEAD00040EA41704FEAD10110EB800556
:100B30004FEA810444EA907444EB01046D1944EBDC
:100B40000404521BA3414FF0000348BF0A3200D5F2
:100B500030BD401C41F1000130BD00002DE9F041E5
:100B60001F46044603260168072A01F4006004DBDF
:100B700008B116A505E016A503E008B115A500E02B
:100B800015A521F010002060A069C01EA0610FB162
:100B9000401EA0612046AFF300804FB1D4E901218F
:100BA00038469047206A401C2062C01C206206E044
:100BB000206AFAE7D4E9012115F8010B9047761E67
:100BC000F8D22046AFF30080BDE8F0814E414E00E0
:100BD0006E616E00494E4600696E66002DE9F04771
:100BE000814616468AB0354878440DC88DE80D0018
:100BF00032487844801C03AC0DC884E80D0041F6EF
:100C00009B300844372190FBF1F290FBF1F5A5F100
:100C1000800501FB12041B3C02D56442012000E068
:100C20000020DFF898A080460027FA44AAF1BE0A07
:100C30000EE0E0070AD03246684607EB4701012381
:100C40000AEB810100F03AFB8DE8070064107F1C7D
:100C5000002CEED1194F7F44AE3F19E0E80715D0C4
:100C600007EB04100DF1180A90E80E008AE80E0058
:100C7000C068F04201D1981908903246012306A9B4
:100C800003A800F01BFB03AB83E807006D10641C96
:100C9000002DE3D14FF0010332466946B8F1000F51
:100CA00003A802D000F0F5FA01E000F007FBC9E963
:100CB0000001C9F808200AB0BDE8F087285C0000F0
:100CC00000487047D40200247546FFF7F9FFAE468E
:100CD00005006946534620F00700854618B020B548
:100CE000FFF744FBBDE820404FF000064FF000073F
:100CF0004FF000084FF0000B21F00701AC46ACE8C4
:100D0000C009ACE8C009ACE8C009ACE8C0098D4630
:100D1000704710B50446AFF300802046BDE8104090
:100D2000FFF710BB4FF0013C50F8042B51F8043B87
:100D30009A4215D1A2EB0C03934313EACC130BD1C7
:100D400050F8042B51F8043B9A4209D1A2EB0C0352
:100D5000934313EACC13E7D04FF00000704700BF75
:100D6000D01A01BAB1FA81F101F0180122FA01F0AA
:100D7000CB40C1F12001DBB2C0B2C01A2CFA01F3A2
:100D8000D11A914311EAC311E6D1704701491820E5
:100D9000ABBEFEE72600020070475FEA400C08BFCA
:100DA00091F0000F4FEA8C234FEAC12243EA5151E0
:100DB0004FEA1C5018BF00F5F0404FEA300018BF52
:100DC00041F000415FEA6C5C00F02980BCF1FF3F1C
:100DD00008BF40F080407047130C06BF12044FF06C
:100DE000100C4FF0000C130E04BF12020CF1080C93
:100DF000130F04BF12010CF1040C930F04BF9200F7
:100E00000CF1020CD30F04BF52000CF1010C11467F
:100E10004FF00002A0F11F00A0EB0C00704711F092
:100E2000004F08BF704731F000413FF4D5AF0B0CC5
:100E300006BF09044FF0100C4FF0000C0B0E04BF5E
:100E400009020CF1080C0B0F04BF09010CF1040C92
:100E50008B0F04BF89000CF1020CCB0F04BF4900BB
:100E60000CF1010CCCF12003A0EB0C0022FA03F3EF
:100E700002FA0CF241EA030100F10100704720F090
:100E80007F4C80EA030023F07F47ACEB070303F5B8
:100E90007C5300F0004003F1FF032DE980494FEA45
:100EA000154B09B44FEA144325EA0B4E24EA0348D4
:100EB0000FF2042606EB132749083E785FEA320258
:100EC00003FB0667C7F5000707FB06F64FEA543732
:100ED0004FEAD64606F1020607FB066CCCF1005C31
:100EE0004FEA1C472CEA074C07FB06F40CFB06F5FF
:100EF00004EB15464FEA961634BF00204FF0004031
:100F00004FEAD13706FB07FC4FEA1C4C0CFB0BF7F2
:100F1000D21B03FB0CF761EB07010CFB0EF7B0EBE8
:100F2000074072EB17420CFB08F734BFA2EB0742F5
:100F3000B2EB074261EB17414FEA0C444FEA9107CD
:100F400006FB07FC4FEA1C4C0CFB0BF7B0EBC74051
:100F500072EB573203FB0CF734BFA2EBC742B2EB84
:100F6000C74261EB57310CFB0EF7B0EBC70072EBD9
:100F700057720CFB08F734BFA2EBC702B2EBC702F3
:100F800061EB5771039F4FEA816141EA921104EBD3
:100F9000CC044FEAD1374FEA826206FB07FC42EAF3
:100FA00090124FEA80604FEA1C4C0CFB0BF7D21BEF
:100FB00003FB0CF761EB07010CFB0EF7B0EB0740EE
:100FC00072EB17420CFB08F734BFA2EB0742B2EBFF
:100FD000074261EB17414FEA8C554FEA910704EB4A
:100FE0009C2406FB07FC4FEA1C4C0CFB0BF7B0EBF8
:100FF000C74072EB573203FB0CF734BFA2EBC7427A
:10100000B2EBC74261EB57310CFB0EF7B0EBC700F8
:1010100072EB57720CFB08F734BFA2EBC702B2EBBE
:10102000C70261EB577115EB4C254FEA816141EA2C
:1010300092114FEA82624FEAD13742EA901206FBE0
:1010400007FC44F100044FEA80604FEA1C4C0CFBA3
:101050000BF7D21B03FB0CF761EB07010CFB0EF740
:10106000B0EB074072EB17420CFB08F734BFA2EB62
:101070000742B2EB074261EB174115EB1C154FEA33
:10108000813141EA92414FEA823242EA90424FEA8C
:1010900080304FEA0C7644F1000448EA03434EEAFC
:1010A0000B484FF0000EB2EB080C71EB030724BFA6
:1010B000624639464EEB0E0E4FF0000B00185241BF
:1010C00049414BEB0B0BB2EB080C71EB03077BF1C7
:1010D000000B24BF624639464EEB0E0E4FF0000B5C
:1010E0000018524149414BEB0B0BB2EB080C71EB72
:1010F00003077BF1000B24BF624639464EEB0E0E10
:1011000051EA020718BF46F0010616EB0E7655F1BC
:10111000000254F1000103D5BDE88901BDE8008853
:10112000BDE88901BDE80048B619524141EB010113
:10113000A3F10103704780807F7E7D7C7B7A797884
:10114000777676757473727171706F6E6E6D6C6C8C
:101150006B6A6A696868676666656464636362612E
:101160006160605F5F5E5E5D5D5C5C5B5B5A5A59AF
:10117000595858575756565555555454535352521B
:101180005251515050504F4F4F4E4E4D4D4D4C4C73
:101190004C4B4B4B4A4A4A494949484848474747BC
:1011A00047464646454545444444444343434342F9
:1011B000424242414141002B9C4630D477002BD023
:1011C0001CB54FEA370703B44FF010004FF0100181
:1011D000BAF1000F06D0BCF1000FDCBF40F00800F0
:1011E00040F008014FF000000FBCBDE810400BF1CB
:1011F000010BBBF1010F08BF5FEA170722BF12F115
:10120000010211F101014FF0004143F1000300F030
:10121000004043EA00007047F9D35708D0E746EA98
:10122000064613F1400F4FEA16461FDD13F1200F5B
:10123000DFBF16430A46002120335B42BED0C3F114
:10124000200746EA064602FA07F74FEA164646EA3C
:101250000706C3F1200722FA03F201FA07F721FA81
:1012600003F14FF0000342EA0702A7E746EA02064D
:1012700046EA06464FEA164646EA0106BCBF46EA7B
:101280000646360C4FF000034FF000024FF000010D
:1012900094E72DE9804C9A46934670B491E8380063
:1012A00007C831EA400C48BF34EA430C03D5FFF7C6
:1012B000E6FDFFF780FFF0BCBDE8008C2DE9804C17
:1012C0009A46934670B491E8380007C810F0804FF2
:1012D00008BF13F0804F03D100F005F8FFF76BFF54
:1012E000F0BCBDE8008C20F07F4780EA030023F0CB
:1012F0007F4C07EB0C03A3F57C5300F00040A3F1F7
:10130000FE0392F0000F00F0B38095F0000F00F0A4
:1013100077802DE901494FEA11404FEA144621EA4E
:10132000004800FB06FC24EA064708FB06F607FB1C
:1013300008F800FB07F718EB06484CEB164C4FEA91
:10134000124B18EB07484FEA15464CEB174022EAC0
:101350000B4E0BFB06FC25EA06470EFB06F607FBC9
:101360000EFE0BFB07F71EEB064E4CEB164C4FF038
:1013700000061EEB074E4CEB174B18EB0B0840F129
:10138000000018EB0E0B58EB000840F100008F1A1C
:101390004FF000013CBFC943661B14BFB5EB040C02
:1013A00000213CBFC943F61B4FEA17444EEA8E0E9C
:1013B00027EA04454FEA1C4704FB07622CEA074C66
:1013C00005FB07F70CFB05F604FB0CFC16EB0746C8
:1013D00042EB174216EB0C4642EB1C421BEB060697
:1013E00058EB0202414146EA9E0601D5BDE801895B
:1013F000B619524141EB0101A3F10103BDE8018996
:101400004FEA14454FEA114724EA054621EA074C02
:1014100005FB07F406FB07F70CFB06F105FB0CFCCC
:1014200011EB074144EB17444FEA124711EB0C4113
:1014300044EB1C4422EA074C05FB07F206FB07F7C6
:101440000CFB06F605FB0CFC16EB074642EB1742BD
:1014500016EB0C4642EB1C456A1854F1000148BFDC
:101460007047B619524141EB0101A3F101037047E6
:1014700095F0000F37D04FEA11424FEA144721EAA6
:10148000024624EA074C02FB07F106FB07F70CFBB8
:1014900006F402FB0CFC14EB074441EB17414FEA46
:1014A000154714EB0C4441EB1C4125EA074C02FBA9
:1014B00007F506FB07F70CFB06F602FB0CFC16EB28
:1014C000074645EB174516EB0C4645EB1C42121937
:1014D00051F1000148BF7047B619524141EB01017B
:1014E000A3F1010370474FEA14454FEA114724EA7C
:1014F000054621EA074C05FB07F106FB07F70CFB45
:1015000006F24FF0000605FB0CFC12EB074241EB24
:10151000174112EB0C4251EB1C4148BF7047921827
:1015200041EB0101A3F101037047FEE71949802354
:101530002DE9F04108609805002240F2052C4FF497
:10154000002EC1E9012014488724C1F80CE077255A
:101550008A61A0F10D0E03260370842744700221D6
:1015600085700522C6700771AEF802C04171094945
:1015700082710246A1F5DA7001F068FD20B10748DA
:101580004FF4804102F072FBBDE8F041012001F010
:1015900007BD0000100200240D00002400040258C2
:1015A000014800F055BE00005C020024294A016891
:1015B00091423AD0274A1832914236D0254A3032E9
:1015C000914232D0234A483291422ED0214A603291
:1015D00091422AD01F4A7832914226D01D4A903239
:1015E000914222D01B4AA83291421ED01A4A9142FF
:1015F0001BD0194A1832914217D0174A3032914203
:1016000013D0154A483291420FD0134A60329142AA
:101610000BD0114A7832914207D00F4A9032914252
:1016200003D00D4AA832914211D1CAB21823103A00
:10163000B2FBF3F26FF30901032A02F00703074A32
:10164000D25CC26500D9091D81650846704721F04A
:10165000FF01F9E71000024010040240686700082B
:1016600030B5224A012301689142CAB21BD01F4CF7
:101670001434A14217D01D4C2834A14213D01B4C66
:101680003C34A1420FD0194C5034A1420BD0174C1E
:101690006434A14207D0154C7834A14203D0134CD6
:1016A0008C34A1420CD11421114C083AB2FBF1F157
:1016B0000F4A803201F01F0504EB8101AB4010E0BE
:1016C0000C4D1824103A0D44B2FBF4F1A82D00D8AB
:1016D0000831094A01F01F0402EB8101064AA340C8
:1016E0008032603080E80E0030BD0000085402589F
:1016F00000580258F0FBFDBF0008024010B5027907
:10170000531E072B2DD8174C0168A1421BD0154C36
:101710001434A14217D0134C2834A14213D0114CD9
:101720003C34A1420FD00F4C5034A1420BD00D4C91
:101730006434A14207D00B4C7834A14203D0094C49
:101740008C34A14203D10849074C443102E00749D7
:10175000064C443104EB8202C0E91B21012199406F
:10176000416710BD08540258FC580258FC0802405A
:1017700010B583694FF0C074826A0146002053B1EE
:10178000B3F5005F15D072B1012A0CD0022A0AD03D
:10179000032A09D104E01AB1012A06D0022A03D192
:1017A000C96AC90100D5012010BDC96AA142FAD099
:1017B00010BD002AF7D0012AF2D0022AF3D0032A62
:1017C000F3D010BD2DE9F04F804E804FDFF8FC9133
:1017D0001836DFF8F8A148370468856D0AF1300A39
:1017E000DFF8ECB14C45DFF8ECC1DFF8ECE16DD08F
:1017F000B4426BD0544569D0BC4267D0DFF8D08189
:10180000A8F11808444561D05C455FD064455DD0BF
:1018100074455BD0DFF8C481444557D0DFF8BC8104
:1018200008F11808444551D0DFF8B08108F13008BC
:1018300044454BD0DFF8A48108F14808444545D021
:10184000DFF8988108F1600844453FD0DFF88C81CB
:1018500008F17808444539D0DFF8808108F1900814
:10186000444533D0DFF8748108F1A80844452DD0F1
:10187000DFF86C81444529D0DFF8648108F1140851
:10188000444523D0DFF8588108F1280844451DD08D
:10189000DFF84C8108F13C08444517D0DFF840815F
:1018A00008F15008444511D0DFF8348108F164088C
:1018B00044450BD0DFF8288108F17808444505D06D
:1018C000DFF81C8108F18C08444509D1D0E919489A
:1018D000C4F80480C46E1CB1D0E91C48C4F804806C
:1018E00004684C452ED0B4422CD054452AD0BC427A
:1018F00028D0374E183EB44224D05C4522D06445EF
:1019000020D074451ED0354EB4421BD0334E18360D
:10191000B44217D0314E3036B44213D02F4E483631
:10192000B4420FD02D4E6036B4420BD02B4E7836D9
:10193000B44207D0294E9036B44203D0274EA83681
:10194000B44215D190F85C603F2406F01F06B44005
:10195000AC600468256825F4802525602EE09A6037
:101960000068C160BDE8F08F99600068C260F9E767
:101970001B4EB4421BD01A4E1436B44217D0184E28
:101980002836B44213D0164E3C36B4420FD0144E13
:101990005036B4420BD0124E6436B44207D0104ECB
:1019A0007836B44203D00E4E8C36B442DAD190F879
:1019B0005C60012406F01F06B4406C60046863603C
:1019C0008368402B0368CFD1C9E7000010000240B4
:1019D00088000240A0000240B8000240100402400B
:1019E00008540258704700004FF4FA74044905483F
:1019F000C823052203F03CFF204601F0D1FAF5E7A9
:101A000008000024FC000024014801F061BC000033
:101A10005C000024014801F05BBC00005C00002475
:101A2000F0B503684FF6FC716D4C426BD3F88450EF
:101A30008D4345EA8205C3F88450036853F8845FF8
:101A4000068F25F47F0545EA06451D60836B654DCD
:101A50009F180268D2F888308B4343EA8703C2F8A4
:101A60008830026852F8883F868F23F4FE0343EAE9
:101A700006431360066856F8A03FC26B8B4307EB22
:101A8000420243EA82033360076857F8A03FB0F888
:101A9000406023F4FE0343EA06433B60D0E910367E
:101AA00003FB06220368D3F8B0608E4346EA820641
:101AB000C3F8B0600368B0F84860D3F8B07027F49A
:101AC000FE0747EA0646C3F8B060D0E9126703682C
:101AD00006FB0722D3F8AC608E4346EA8206C3F8C1
:101AE000AC60D0E91467036806FB0722D3F8F06006
:101AF0008E4346EA8206C3F8F0600368B0F8586087
:101B0000D3F8F07027F47C1747EA0646C3F8F06074
:101B10000368876D53F8C06F02EB47028E4346EAB5
:101B2000820119600168B0F85C20D1F8C03023F45C
:101B30007C1343EA0242C1F8C020016890F860209B
:101B4000D1F8C03023F07C5343EA0262C1F8C020D0
:101B5000416B04EB8101C166826B01EB820202677B
:101B6000C36B02EBC3024267D0E91034634302EB5C
:101B700083028267D0E91234634302EB8302C267B7
:101B8000D0E91434634302EB8302C0F88020836DF4
:101B900002EBC303C0F88430C46D826E544303EB80
:101BA0008403C0F88830046E544303EB8402C0F809
:101BB0009020AA420AD9D0F89C20032142F02002AA
:101BC000C0F89C2080F898100120F0BD002200E0B1
:101BD00004C1D0F890308B42FAD80020F0BD00004C
:101BE00000AC0040FCD30040F0B58E680C69D1E930
:101BF000005744EA0604DFB145F080452C43866E69
:101C0000D1E906C54F695E4391F8203045EA0C05DD
:101C1000D0F884E00020D1F80CC047EA0363114FEC
:101C20001D430EEB860345EA0C05E3E8024511E08F
:101C300044EA8544E3E71418155CA67894F803C0D9
:101C400094F801E0360445EA0C6446EA0E252C437C
:101C5000001D10C3CC6807EB144424788442EAD8F2
:101C6000F0BD00000C6700082DE9F84F044602F0B3
:101C700011F8002C009008D094F83500022805D007
:101C800080216165002084F83400E3E0C84DC84E2F
:101C9000C749183520683036DFF81883DFF8189305
:101CA0008842DFF818A3DFF818B32ED0A8422CD052
:101CB000B0422AD0404528D0484526D0504524D0AF
:101CC000584522D0BE4A183290421ED0BD4A90429A
:101CD0001BD0BC4A1832904217D0BA4A30329042D8
:101CE00013D0B84A483290420FD0B64A6032904280
:101CF0000BD0B44A7832904207D0B24A9032904228
:101D000003D0B04AA832904209D1026822F01E02E4
:101D100002602068426922F08002426103E00268AA
:101D200022F00E02026027688F4238464DD0A8424A
:101D30004BD0B04249D0404547D0484545D05045AA
:101D400043D0584541D09E4A183290423DD09D4ADA
:101D500090423AD09B4A1832904236D0994A30325B
:101D6000904232D0974A483290422ED0954A603203
:101D700090422AD0934A7832904226D0914A9032AB
:101D8000904222D08F4AA83290421ED08E4A904272
:101D90001BD08D4A1432904217D08B4A2832904281
:101DA00013D0894A3C3290420FD0874A5032904239
:101DB0000BD0854A6432904207D0834A78329042F1
:101DC00003D0814A8C32974204D1206E026822F4FB
:101DD0008072026076492068884228D0A84226D0C6
:101DE000B04224D0404522D0484520D050451ED096
:101DF00058451CD072491831884218D07149884220
:101E000015D070491831884211D06E49303188425E
:101E10000DD06C494831884209D06A496031884206
:101E200005D068497831884201D06649903101680F
:101E300021F00101016010E001F02CFF0099401A2F
:101E400005280AD9202262650020032184F8340085
:101E500084F835100120BDE8F88F3868C007EBD151
:101E6000534A0121206890422ED0A8422CD0B04283
:101E70002AD0404528D0484526D0504524D0584542
:101E800022D04F4B183398421ED04E4B98421BD055
:101E90004C4B1833984217D04A4B3033984213D0EA
:101EA000484B483398420FD0464B603398420BD092
:101EB000444B7833984207D0424B9033984203D03A
:101EC000404BA833984208D194F85C703F23A06D32
:101ED00007F01F07BB40836007E094F85C30A06DFB
:101EE00003F01F0301FA03F34360206890424DD0D2
:101EF000A8424BD0B04249D0404547D0484545D094
:101F0000504543D0584541D02D4A183290423DD0DB
:101F10002C4A90423AD02B4A1832904236D0294A65
:101F20003032904232D0274A483290422ED0254A51
:101F3000603290422AD0234A7832904226D0214AF9
:101F40009032904222D01F4AA83290421ED01E4AA0
:101F500090421BD01C4A1432904217D01A4A2832A1
:101F6000904213D0184A3C3290420FD0164A503259
:101F700090420BD0144A6432904207D0124A783211
:101F8000904203D0104A8C3290420BD1D4E919020E
:101F90004260E06E30B1026822F480720260D4E9DF
:101FA0001C024260002084F8340084F8351052E7A7
:101FB00010000240580002407000024088000240B9
:101FC000A000024010040240085402582DE9F05FBE
:101FD00028B190F83510022904D0802141650120F4
:101FE000BDE8F09F904C904B0168183C18338E4A26
:101FF000DFF83C92A1428D4CDFF838E28E4FDFF8DB
:102000003CB2DFF83CA28F4D8F4E31D091422FD0A1
:1020100099422DD0A1422BD0494529D0714527D0D6
:10202000B94225D0DFF810C20CF1180C61451FD061
:10203000DFF808C2ACF1600C614519D0DFF8FCC1D3
:10204000ACF1480C614513D0DFF8F0C1ACF1300CB5
:1020500061450DD0DFF8E4C1ACF1180C614507D043
:10206000594505D0514503D0A94201D0B1422CD1E8
:10207000DFF8B4C14FF0040880F83580ACF1180CDB
:1020800061451DD091421BD0994219D0A14217D071
:10209000494515D0714513D0B94211D06648183062
:1020A00081420DD065486038814209D06348483884
:1020B000814205D061483038814201D05F481838EC
:1020C000086820F001000860ABE0D1F800C02CF0F7
:1020D0000E08DFF854C1C1F80080ACF1180C01689B
:1020E000614527D0914225D0994223D0A14221D0E9
:1020F00049451FD071451DD0B9421BD0DFF838C10A
:102100000CF1180C614515D0DFF830C1ACF1600C52
:1021100061450FD0DFF824C1ACF1480C614509D00E
:10212000DFF818C1ACF1300C614503D0DFF80CC109
:10213000ACF1180CD1F800C02CF0010CC1F800C0B3
:10214000DFF8E4804FF0010C0168A8F11808414560
:1021500046D0914244D0994242D0A14240D0494514
:102160003ED071453CD0B9423AD0334A1832914200
:1021700036D0324A603A914232D0304A483A91429F
:102180002ED02E4A303A91422AD02C4A183A914207
:1021900026D0594524D0514522D0A94220D0B14261
:1021A0001ED02A4A91421BD0284A1432914217D09D
:1021B000264A2832914213D0244A3C3291420FD011
:1021C000224A503291420BD0204A6432914207D0C9
:1021D0001E4A7832914203D01C4A8C32914218D167
:1021E000016E0A6822F480720A6090F85C20816DAA
:1021F00002F01F020CFA02F24A60D0E919124A609A
:10220000C16E31B10A6822F480720A60D0E91C12F2
:102210004A600022016D80F8342080F835C001B199
:1022200088470020DCE600002800024058000240F9
:102230007000024088000240A0000240700402408A
:1022400088040240A0040240B80402400854025826
:102250002DE9FC5F0446FA4E0020DFF8E48300908D
:102260004FF41652F74808F11808A56DDFF8D0A30F
:10227000DFF8CCB301680AF1300A20680BF1480B93
:10228000B1FBF2F1B04201912F68D5F800C0DFF840
:10229000B89336D04146884233D0504531D0584566
:1022A0002FD0E749603188422BD0E5497831884208
:1022B00027D0E3499031884223D0E149A8318842B0
:1022C0001FD048451DD0E0491831884219D0DE4959
:1022D0003031884215D0DC4A4832904211D0DA4978
:1022E000603188420DD0DFF860E30EF1780E704562
:1022F00007D0D54B9033984203D0D349A8318842B8
:102300007ED194F85C20082102F01F0201FA02F24B
:102310003A424BD0B04233D0404531D050452FD017
:1023200058452DD0C64A6032904229D0C44A7832EE
:10233000904225D0C24A9032904221D0C04AA83261
:1023400090421DD048451BD0BF4A1832904217D04A
:10235000BD4A3032904213D0BB4A483290420FD02F
:10236000B94A603290420BD0B74A7832904207D0D7
:10237000B54A9032904203D0B34AA832904203D17A
:10238000026802F0040202E0026802F008026AB188
:10239000026822F00402026094F85C0000F01F0062
:1023A0008140A960606D40F00100606594F85C00B8
:1023B000012100F01F008140394241D02068B04225
:1023C00035D0404533D0504531D058452FD09C4A68
:1023D000603290422BD09A4A7832904227D0984A65
:1023E0009032904223D0964AA83290421FD048455E
:1023F0001DD0954A1832904219D0934A303200E0ED
:10240000B2E1904213D0904A483290420FD08E4AA7
:10241000603290420BD08C4A7832904207D08A4A80
:102420009032904203D0884AA83290427ED14069CF
:1024300010F0800F04D0A960606D40F0020060656C
:1024400094F85C00042100F01F00814039423FD025
:102450002068B04233D0404531D050452FD0584548
:102460002DD0774A6032904229D0754A7832904216
:1024700025D0734A9032904221D0714AA8329042BE
:102480001DD048451BD0704A1832904217D06E4A72
:102490003032904213D06C4A483290420FD06A4A90
:1024A000603290420BD0684A7832904207D0664A38
:1024B0009032904203D0644AA83290424FD10068D3
:1024C00010F0020F04D0A960606D40F00400606558
:1024D00094F85C00102100F01F008140394259D06F
:1024E0002068B04235D0404533D0504531D05845B2
:1024F0002FD0534A603290422BD0514A78329042CA
:1025000027D04F4A9032904223D04D4AA832904271
:102510001FD048451DD04C4A1832904219D04A4A23
:102520003032904215D0484A483200E015E09042DF
:102530000FD0454A603290420BD0434A78329042E5
:1025400007D0414A9032904203D03F4AA83290428D
:1025500007D1006800F0080006E0006870E7006836
:10256000B6E7006800F00400A0B1A9602068016827
:10257000490304D50068000308D5A16C07E0016891
:10258000C90503D4016821F008010160216C09B17B
:102590002046884794F85C00202100F01F0081400D
:1025A000394278D02068B04233D0404531D05045D0
:1025B0002FD058452DD0224A6032904229D0204A4F
:1025C0007832904225D01E4A9032904221D01C4A47
:1025D000A83290421DD048451BD01B4A1832904269
:1025E00017D0194A3032904213D0174A48329042DD
:1025F0000FD0154A603290420BD0134A7832904285
:1026000007D0114A9032904203D00F4AA83290422C
:1026100003D1006800F0100002E0006800F0020042
:10262000A0B3A96094F835000428206801680DD093
:1026300049037DD50068000329D4616C28E00000BF
:1026400010000240480000241004024021F016014E
:1026500001602068416921F080014161206C08B966
:10266000A06C20B12068016821F00801016094F895
:102670005C303F21002203F01F0301209940A96034
:1026800084F8342084F83500216D66E003E0E16BC6
:1026900009B120468847606D00287DD0606DC00775
:1026A0005AD02068042184F83510B0422BD0404520
:1026B00029D0504527D0584525D09E49884222D060
:1026C0009C49183188421ED09A49303188421AD02C
:1026D00098494831884216D0484514D096498842D6
:1026E00011D09549183188420DD093493031884234
:1026F00009D091494831884205D08F4960318842DC
:1027000001D08D497831016821F001010160206814
:102710000099019A491C0091914202D80168C907A9
:10272000F6D1002184F834100068C00711D000E011
:1027300001E003200EE00168C905A8D40368002267
:10274000012123F01003036084F8342084F835104D
:102750009DE7012084F83500E16C00291CD002B00F
:102760002046BDE8F05F0847744988421DD0734990
:102770001431884219D071492831884215D06F49E7
:102780003C31884211D06D49503188420DD06B499F
:102790006431884209D000E086E068497831884297
:1027A00003D066498C3188427ED194F85C8004273E
:1027B000016808F01F0807FA08F717EA0C0F0097DE
:1027C00046D04F0744D500980F04686003D5C8036E
:1027D0003CD4A16CC1E7880638D42068B0422DD023
:1027E00054494839884229D0504527D0584525D0EA
:1027F0005049884222D04F49183188421ED04D4955
:10280000303188421AD04B494831884216D0484569
:1028100014D04949884211D04749183188420DD017
:1028200090420BD044494831884207D0704505D0CA
:10283000984203D040499031884203D1016821F089
:10284000080102E0016821F004010160216C84E7C5
:10285000022707FA08F717EA0C0F00974ED08F07E8
:102860004CD500980F04686003D5C80344D4616C4C
:1028700073E7880640D42068B0422FD02D494839EC
:1028800088422BD0504529D0584527D02949884225
:1028900024D028491831884220D026493031884236
:1028A0001CD02449483100E041E0884216D0484518
:1028B00014D02149884211D01F49183188420DD0C7
:1028C00090420BD01C494831884207D0704505D052
:1028D000984203D018499031884203D1016821F011
:1028E000140102E0016821F00A010160002184F86E
:1028F0003410012084F83500E16B2EE7082202FA3B
:1029000008F212EA0C0F12D0090710D5016821F065
:102910000E01016094F85C100120002201F01F01FB
:1029200000FA01F16960606584F8342012E7BDE8BF
:10293000FC9F000070000240280402400854025826
:102940002DE9F05F044601F0A5F9002C07467DD083
:10295000E34E022120684FF00308DFF888934FF020
:102960000005DFF884A3B042DFF880B334D0DC4A3E
:102970001832904230D048452ED050452CD0584582
:102980002AD0DA4A1832904226D0D84A30329042C1
:1029900022D0D64A483290421ED0D54A90421BD00F
:1029A000D34A1832904217D0D14A3032904213D0D5
:1029B000CF4A483290420FD0CD4A603290420BD07D
:1029C000CB4A7832904207D0C94A9032904203D025
:1029D000C74AA83290427DD184F8345084F835102B
:1029E000B0422ED0BE49183188422AD0484528D05E
:1029F000504526D0584524D0BC491831884220D0B3
:102A0000BA49303188421CD0B8494831884218D080
:102A1000B749884215D0B6491831884211D0B44917
:102A2000303188420DD0B2494831884209D0B0498E
:102A30006031884205D0AE497831884201D0AC4936
:102A40009031016821F00101016008E027E100BF39
:102A500001F020F9C01B052801D920211CE12068C4
:102A60000068C007F4D104F108002168D4E9053CEE
:102A70008E4685C809681043D4E907281F43636A56
:102A800038439C4F40EA0C001043394040EA0800AC
:102A9000042B40EA010003D1D4E90B12114308438F
:102AA000954909686FF30F01B1F1005F0FD36168B9
:102AB000A1F12902052A08D9163A032A05D9083AAC
:102AC000012A02D94F39032901D840F48010CEF8E9
:102AD000000000E023E02068676A4069042F20F0CE
:102AE000070047EA00070DD1D4E90A01074349B1BD
:102AF0002046FEF73DFE28B140206065012184F8A4
:102B00003510CCE0206847612046FEF74FFD94F871
:102B10005C203F2102F01F029140816054E0774A1F
:102B200090421BD0754B1433984217D0734B283307
:102B3000984213D0714B3C3398420FD06F4B5033B7
:102B400098420BD06D4B6433984207D06B4B78336F
:102B5000984203D0694B8C3398427DD1684B84F8FE
:102B6000345084F835100168A26801EA030E402A47
:102B700073D0802A72D00022D4E90378D4E90531D9
:102B800042EAD70242EAD8085C4AD4E9077C48EA1C
:102B9000D30848EAD10141EAD701524241EA1C1167
:102BA000142341EA0E01016020681044B0FBF3F0E9
:102BB0008000E0652046FEF7F9FC94F85C200121D6
:102BC00002F01F02914041602068B04257D0444952
:102BD0001831884253D0484551D050454FD05845C0
:102BE0004DD042491831884249D04049303188425D
:102BF00045D03E494831884241D03D4988423ED087
:102C00003B49183188423AD039493031884236D070
:102C100037494831884232D03549603188422ED018
:102C20003349783188422AD031499031884226D0C0
:102C30002F49A831884222D0304988421FD02F49DD
:102C4000143188421BD02D492831884217D02B4996
:102C50003C31884213D002E01DE017E018E027491C
:102C6000503188420BD025496431884207D023492E
:102C70007831884203D021498C31884229D12046BD
:102C8000FEF7EEFCA06880280CD00CE0102273E761
:102C90004FF4804270E74021616584F8358001205F
:102CA000BDE8F09F6560216E20790860D4E91901C4
:102CB00041606068401E072808D82046FEF71EFDC8
:102CC000E06E0560D4E91C01416002E0E56625671D
:102CD00065670120656584F835000020E0E70000A5
:102CE00010000240400002405800024070000240C4
:102CF000100402403F8010FE0010005C085402588F
:102D00000F00FEFF2DE9F84F04008C464FF0000045
:102D1000009013D094F83400012811D094F8355065
:102D20000120002184F83400012D0BD084F83410E8
:102D3000C202009062650098BDE8F88F0120FBE7B1
:102D40000220F9E78C4D0226206884F83560A842FD
:102D50008A4D61658A4E8B4FDFF82C82DFF82C920A
:102D6000DFF82CA2DFF82CB226D0A84224D0B04243
:102D700022D0B84220D040451ED048451CD05045F6
:102D80001AD0584518D08449884215D08249183144
:102D9000884211D08049303188420DD07E49483177
:102DA000884209D07C496031884205D07A4978311F
:102DB000884201D078499031016821F00101016019
:102DC00061462046FEF7FEFC6B49206888422CD005
:102DD000A8422AD0B04228D0B84226D0404524D0BC
:102DE000484522D0504520D058451ED06A4A9042CE
:102DF0001BD0694A1832904217D0674A303290424D
:102E000013D0654A483290420FD0634A60329042F4
:102E10000BD0614A7832904207D05F4A903290429C
:102E200003D05D4AA83290420CD1026822F01E0203
:102E300042F016020260206C88B12068026842F0FD
:102E400008020BE0026822F00E0242F00A02026061
:102E5000206C20B12068026842F004020260206801
:102E600088424BD0A84249D0B04247D0B84245D062
:102E7000404543D0484541D050453FD058453DD0CE
:102E8000454A90423AD0444A1832904236D0424A9B
:102E90003032904232D0404A483290422ED03E4AA0
:102EA000603290422AD03C4A7832904226D03A4A48
:102EB0009032904222D0384AA83290421ED0374AEF
:102EC00090421BD0354A1432904217D0334A2832F0
:102ED000904213D0314A3C3290420FD02F4A5032A8
:102EE00090420BD02D4A6432904207D02B4A783260
:102EF000904203D0294A8C3290420DD1206E026854
:102F0000D20303D5026842F480720260E06E18B109
:102F1000026842F4807202602068884226D0A8428B
:102F200024D0B04222D0B84220D040451ED04845DF
:102F30001CD050451AD0584518D01749884215D092
:102F400015491831884211D01349303188420DD0CB
:102F500011494831884209D00F496031884205D073
:102F60000D497831884201D00B499031016841F018
:102F700001010160DFE6000010000240280002406D
:102F800040000240580002407000024088000240A9
:102F9000A0000240B8000240100402400854025849
:102FA00070B5044600F076FE0546601C02D0044869
:102FB0000078044400F06EFE401BA042FAD370BDBE
:102FC0005000002410B590F89830012B09D0022B46
:102FD00007D0D0F89C1041F00201C0F89C100120ED
:102FE00010BD03689C6D0C4203D1DC6D44F00104FC
:102FF00004E09C6D31EA04041FD00324DC658B05DA
:1030000005D50368D3F8E0401443C3F8E0404B050E
:1030100005D50368D3F8E4401443C3F8E4400068DE
:10302000084A01EA0203446D074A1C4344651068DC
:1030300040EA91701060002010BDDC6D44F0020485
:10304000DCE70000FFFFCF3F14A8004070B5044646
:1030500090F89800022804D0D4F89C0040F00800B2
:103060000DE02068D0F8C03013F07C5F0BD0D0F8B2
:10307000C4309B020CD5D4F89C0040F40070C4F816
:103080009C00012070BDD4F89C0040F02000F6E7C1
:10309000D0F8C400C0F3044520462B46FEF7A4FD3B
:1030A00021680120A840C1F8D000C4F89400002095
:1030B00070BD704770B590F89820012A09D0022A97
:1030C00007D0D0F89C1041F00201C0F89C100120FC
:1030D00070BD0B68CA6883B10B69072A43EA427363
:1030E00025D00C7A4A6942EA84724968006F00EB85
:1030F000C100C0E90032002070BD072A0DD00C7A53
:10310000D6060D8A4B6943EA847246EA0543C06ECF
:1031100049681A4340F82120EDE70B8A4FF06055CB
:10312000D1E9062442EA034245EA0423EFE78A692B
:10313000DBE7704770470000F0B590F89840002535
:10314000022C04D0D0F89C1041F008012BE040295B
:103150004FF0004605D0412929D0046D8C4219D981
:1031600042E00468D4F8A07017F4FE0F12D0D4F82F
:10317000A4707F0613D0D4F8A470FF0105D5D4F84D
:10318000A070B6EBD77F00D10125D4F8A470466FAC
:10319000446C24E0D0F89C1041F0200103E0D0F80A
:1031A0009C1041F48071C0F89C100120F0BD0468AF
:1031B000D4F8B07017F4FE0FECD0D4F8B4707F06DA
:1031C000EDD0D4F8B470FF0105D5D4F8B070B6EBEB
:1031D000D77F00D10125D4F8B470866FC46CC7F3D3
:1031E00005273D446C4302E0446DC66F4C4306EB3B
:1031F0008404266816F080465660266836D026F08D
:1032000060461660D4F800C000262F4F0CF0005C1A
:10321000C2F808C0D4F800C00CF0004CC2F810C0CE
:10322000B4F804C01FFA8CFCC2F81CC0D4F804C067
:103230000CF4702CC2F80CC0D4F804C00CF4801C40
:10324000C2F814C0D4F804C00CF4001CC2F818C0B2
:10325000D4F804C0CCF3066CC2F820C0D4F804C083
:1032600008344FEADC7CC2F824C008E0C6F38A4682
:10327000C7E700BF14F806C003F806C0761CD2F8F2
:103280000CC007EB1C4C9CF800C0B445F2D8402998
:103290000AD041290CD020294FF001020CD200683D
:1032A0008A40C0F898200DE00068C0F8A85009E0F6
:1032B0000068C0F8B85005E0006801F01F018A40BE
:1032C000C0F89C200020F0BD0C670008704700008B
:1032D0002DE9FC5FDFF804B3044600680BF104023B
:1032E0008246DBF80070D2F80080026D416D036DFC
:1032F000466DD0F85090456DD0F850C009F0F00000
:1033000005EA0009DAF85450DAF8500000F0607E5F
:10331000B80700EA88700090DAF85470DAF8548040
:1033200002F4704003F00F02014001910CF0715360
:103330005FEAC85106EA020605EA030507EA0E0736
:103340000DD5DAF85000C00509D500214FF480737F
:10335000CAF85030CBF800102046FFF7B7FF2068BE
:10336000416D490511D5016D49050ED5D0F8DC2018
:10337000D0F8E41000234FF48068C0F8508011406A
:10338000CBF80030204600F055FBDFF8548200985F
:1033900050B12268830F00EA08001065CBF80030B6
:1033A00020460099FFF785FE019850B12268830FEF
:1033B00000EA08001065CBF800302046019900F0C3
:1033C0003BFB56B12268B30F06EA08001065CBF844
:1033D00000303146204600F07FFAB9F1000F0BD0E3
:1033E00022684FEA997309EA08001065CBF80030AB
:1033F0004946204600F0FEFA2068416D09050BD5CC
:10340000016D090508D500214FF400630365CBF871
:103410000010204600F011FB2068416D890511D590
:10342000016D89050ED5D0F8D820D0F8E010002322
:103430004FF4007CC0F850C01140CBF8003020465B
:1034400000F0F9FA2068416D09030BD5016D0903FD
:1034500008D500214FF400230365CBF80010204667
:1034600000F038FA2068416DC9030BD5016DC9031E
:1034700008D500214FF480330365CBF800102046B7
:1034800000F0D7FA2068416D49030BD5016D49035F
:1034900008D500214FF480230365CBF800102046A7
:1034A00000F0C6FA2068416D89030ED5016D8903CD
:1034B0000BD500214FF400330365CBF80010D4F88E
:1034C0009C0040F08000C4F89C0057B12268BB0FFC
:1034D00007EA08001065CBF8003039462046FFF7B0
:1034E00029FE5DB12268AB0F05EA08001065CBF834
:1034F0000030D4F89C002843C4F89C003949206867
:10350000884262D160688146806880075DD0D9F8C2
:103510002060D9F82410D9F82080D9F82400D9F8EF
:103520002030D9F82470D9F82020D9F82450D9F8BF
:1035300020C002F4FC4206F00F0AD9F824601540BE
:1035400008F0300803F4C0730CF4F02C11EA0A01FF
:1035500000EA080807EA030706EA0C0604D0C9F8DF
:103560002010204600F061FAB8F1000005D0616833
:1035700008624146204600F05AFA6068416A4906EE
:103580000CD5016A490609D5C16BC26B40230362A1
:10359000090C204602F03F0200F048FA2FB16068A3
:1035A00007623946204600F03FFA35B1606805628F
:1035B000D4F89C002843C4F89C0036B160680662C9
:1035C000D4F89C003043C4F89C00D4F89C00002838
:1035D00002D02046FFF7ADFDBDE8FC9F10A80040DB
:1035E000FFFFCF3F00A000402DE9F04194B08D498E
:1035F0004C2204466846FCF7DEFF64B18A4D206821
:10360000A84202D100F58070606094F898004FF0F5
:10361000000820B108E0012014B0BDE8F081204688
:1036200084F8998000F002F92068816921F0100186
:10363000816100F02FFB0327064604E000F02AFB1F
:10364000801B0A2811D8206880690007F6D42068FA
:10365000816941F00101816100F01CFB06460DE02B
:1036600000F018FB801B0A2808D9D4F89C0040F011
:103670000100C4F89C0084F89870CCE72068806949
:10368000C007EDD02068816941F002018161207C92
:1036900001282068816937D041F040018161607C58
:1036A00001282068816932D021F480418161A07CA9
:1036B0000128206881692DD041F480518161206802
:1036C000A268816921F44071114381612068816998
:1036D00021F0A40181612068016921F010010161DC
:1036E000E068012819D010B302281BD02068816936
:1036F00041F0800181612068016941F010010161A0
:10370000E06803280ED012E021F04001C6E741F442
:103710008041CBE721F48051D0E72068816941F0F6
:10372000040103E02068816941F020018161207E6D
:103730006FF0FF02D4E90773A68A1102400602EB7C
:103740000727A0F10070384327685B1E184301EB80
:1037500006463043F861A068B0F5407F11D104F10E
:103760002800A68C6FF00F0C89C801EB0641401EA3
:1037700002EB0322104322680CEB071318430843A3
:10378000D060206E30B12068626ED0F8C010114356
:10379000C0F8C010D4E917126846D14209D0216898
:1037A000A36E51F8C82F50F8233022F007021A43B5
:1037B0000A60216C49B12168626C51F8BC3F50F835
:1037C000226023F0070232430A60A16C51B12168E4
:1037D000E36C51F8BC2F50F8233022F0700242EA1B
:1037E00003120A60216D51B12168626D51F8BC3F2E
:1037F00050F8220023F4E06242EA002008602068CA
:10380000A84204D16068816821F003018160C4F896
:1038100094800121C4F89C8084F898102046FEF71B
:10382000FFF8F9E61C67000800A0004010B5B6B02C
:10383000044614212FA8FCF7F0FEBC216846FCF7D3
:10384000ECFE2149206888423BD14FF400400090B3
:10385000410368461B9100F047FC08B1FEF7C4F82D
:103860001A48016841F480710160006800F48070BA
:10387000349016480C38016841F00201016000687C
:103880000923022200F0020034900020CDE9320327
:103890004FF440712F91CDE930200D482FA900F051
:1038A000CDF800221320114600F06CFA132000F02E
:1038B0005BFA00223F20114600F064FA3F2000F03E
:1038C00053FA36B010BD000000A00040EC4402588E
:1038D000000402587047000000B5324A4021304BC6
:1038E00089B0A2F5EC70FFF727FC2D489FED2E2B39
:1038F000B2EE044BA0F140010288B1EE041B9FED33
:103900002C5B52BA00EE102AB8EE400B30EE420BA0
:1039100080EE042B81ED0C2B827800EE102AB8EE9D
:10392000403B83EE010B81ED060BBCEEC01BC37860
:1039300011EE102A01EE103AB8EE411B81EE043B65
:1039400081ED083B037901EE103AB8EE411B31EEF0
:10395000454B81ED0A4BC08840BA01EE100A08467B
:10396000B8EE411B81ED0E1B027013A18DED061BFD
:103970000C488DED044B8DED023BA8388DED000B0E
:1039800053EC122BFCF77CFD064909B00A233A22BE
:10399000A8395DF804EBA1F1900001F069BF0000C7
:1039A00040000024340200240000000000209C405D
:1039B0000000000000004E40416E676C3A20252E4A
:1039C00032660A766F6C743A20252E32660A637569
:1039D00072723A20252E32660A54656D703A20259F
:1039E0002E32660A436865636B3A20252E32660ADA
:1039F00000000000704790F89810012907D0D0F817
:103A00009C1041F00401C0F89C1001207047022175
:103A100080F89810002201688B6923F001038B6104
:103A2000C0F89C2010467047704770477047704739
:103A30007047704770477047704770472DE9FC4FDB
:103A400001257E4C00234FF0030A4FF0B04E4FF09B
:103A50000F0BEBE005FA03F637403A0077D04F68DA
:103A6000012F05D0022F03D0112F01D0122F1AD110
:103A700087684FEA4308D1F80CC00AFA08F927EA28
:103A800009070CFA08FC4CEA070CC0F808C04768A4
:103A900091F804C0B743CCF3001C0CFA03FC4CEAC9
:103AA000070CC0F804C0C6684FEA430CD1F8088080
:103AB000E1460AFA0CF7BE43019708FA09F848EA0A
:103AC0000608C0F80C804E68022E01D0122E12D1CA
:103AD000DE084FEA437C00EB860600960F69366AE3
:103AE0004FEADC6C0BFA0CF807FA0CF726EA08062A
:103AF0003743009E37620E790768DDF804C006F090
:103B0000030606FA09F627EA0C073E4306604E68EC
:103B1000F6001CD54A4E376847F002073760366812
:103B20009F0706F00206009623F0030606F1B04652
:103B3000B1463F0FD6F80864DFF808810BFA07FC9E
:103B4000404526EA0C0603D14FF0000C41E06CE042
:103B5000DFF8F4C0604502D14FF0010C39E0DFF826
:103B6000ECC0604502D14FF0020C32E0DFF8E0C05B
:103B7000604502D14FF0030C2BE0DFF8D8C0604560
:103B800002D14FF0040C24E0DFF8CCC0604502D134
:103B90004FF0050C1DE0DFF8C4C0604502D14FF0C6
:103BA000060C16E0DFF8B8C0604502D14FF0070CF4
:103BB0000FE0DFF8B0C0604502D14FF0080C08E01C
:103BC000DFF8A4C0604502D14FF0090C01E04FF0CE
:103BD0000A0C0CFA07FC4CEA060CC9F808C4266863
:103BE0004F6826EA0206FF0300D516432660666882
:103BF0004F6826EA0206BF0300D516436660D1F877
:103C000004C07646DEF800705FEACC2C27EA020793
:103C100000D517433760D1F804C077685FEA8C2C71
:103C200027EA020700D5174377605B1C0A6817462E
:103C3000DA407FF40FAFBDE8FC8F00008000005831
:103C4000F4440258000002580004025800080258C8
:103C5000000C0258001002580014025800180258B4
:103C6000001C02580020025800240258426921EA30
:103C700002030A4043EA0241816170470AB181614F
:103C800070470904FBE7000001480068000C70471A
:103C90000010005C0148806870470000500000245C
:103CA0000248816802781144816070475000002406
:103CB000032010B500F086F800F0F4FF0F4A104919
:103CC00014681368C4F3032203F00F038A5CC95C11
:103CD00002F01F0201F01F01D0400A4A20FA01F150
:103CE000116009490860002000F010F808B10120B7
:103CF00010BD00F02BF8002010BD00001844025841
:103D0000FA6600084C0000244800002470B50D4DF0
:103D100004462878A0B14FF47A71B1FBF0F00A495B
:103D20000968B1FBF0F001F0DDFA48B9102C07D2B8
:103D300000222146501E00F025F800206C6070BD66
:103D4000012070BD5000002448000024054808B53B
:103D5000016841F002010160006800F0020000907B
:103D600008BD0000F4440258002809DB410900F0B6
:103D70001F028900012001F1E0219040C1F80001FB
:103D8000704700000E4BF0B41B680D46C3F30223CE
:103D9000C3F10706042E00D90426191D072901D2F4
:103DA000002300E0DB1E012404FA06F19C40491EBA
:103DB0002940641E994014402143F0BC02F027BC06
:103DC0000CED00E0064900F0070210B54FF6FF04C5
:103DD0000868044B204040EA02201843086010BDE8
:103DE0000CED00E00000FA05134970B50A68D243F3
:103DF000520705D5096801F00701814213D118E087
:103E00000A6822F0070202430A60FFF743FF0A4DE7
:103E10004FF47A760446083D07E000BFFFF73AFF0B
:103E2000001BB04201D9012070BD2868C043800446
:103E3000F4D4002070BD00000C48025810B500F00A
:103E4000EBFE05490968054AC1F30211515C01F016
:103E50001F01C84010BD000020440258FA66000847
:103E6000494930B5484C0B1D0A68143409681D686F
:103E7000246802F00303C5F30012C1F30531C4F353
:103E8000CC04002914FB02F200EE102AF8EE400ADE
:103E900075D03F4A9FED3D1AB7EE000A6BB1DFEDDA
:103EA0003D1A012B01D0022B64D002EE101A1168CA
:103EB000F8EE422A81EEA22A21E0334C283C236806
:103EC0009B0612D5344B246801EE901A1168C4F396
:103ED000C104F8EE612AE34001EE903AC1F3080113
:103EE000F8EE611A81EEA22A0BE001EE901ADFEDE6
:103EF0002B2A00BFF8EE611A116882EEA12AC1F3E5
:103F0000080101EE901A1168F8EE611A40EE811A6C
:103F100071EE800A62EE200AC1F3462101EE101A0A
:103F2000B8EE411A31EE001AC0EE811ABCEEE11A69
:103F300080ED001A1168C1F3064101EE101AB8EEC7
:103F4000411A31EE001AC0EE811ABCEEE11A80ED82
:103F5000011A1168C1F3066101EE101AB8EE411A98
:103F600031EE000A80EE801ABCEEC10A80ED020A32
:103F700030BD04E001EE901ADFED092ABAE7002116
:103F8000016041608160F3E7284402580000003975
:103F9000384402580024744A0090D0030024744C22
:103FA0000024F44A494930B5484C0B1D0A681C34BA
:103FB00009681D68246802F00303C5F30022C1F3F9
:103FC0000551C4F3CC04002914FB02F200EE102AC0
:103FD000F8EE400A75D03F4A9FED3D1AB7EE000A51
:103FE0006BB1DFED3D1A012B01D0022B64D002EE44
:103FF000101A1168F8EE422A81EEA22A21E0334C11
:10400000283C23689B0612D5344B246801EE901A95
:104010001168C4F3C104F8EE612AE34001EE903A5E
:10402000C1F30801F8EE611A81EEA22A0BE001EE5D
:10403000901ADFED2B2A00BFF8EE611A116882EEAC
:10404000A12AC1F3080101EE901A1168F8EE611A75
:1040500040EE811A71EE800A62EE200AC1F3462119
:1040600001EE101AB8EE411A31EE001AC0EE811AB4
:10407000BCEEE11A80ED001A1168C1F3064101EEB1
:10408000101AB8EE411A31EE001AC0EE811ABCEED9
:10409000E11A80ED011A1168C1F3066101EE101AF0
:1040A000B8EE411A31EE000A80EE801ABCEEC10A69
:1040B00080ED020A30BD04E001EE901ADFED092A1E
:1040C000BAE70021016041608160F3E728440258AB
:1040D00000000039404402580024744A0090D00384
:1040E0000024744C0024F44A2DE9FC5F044650F887
:1040F000241B002500902E460801FE4FDFF8F883B0
:104100001DD5606E50B1B0F5801F0CD0B0F5001F0A
:104110000ED0B0F5401F1DD001250FE0386840F4E7
:104120000030386016E00221201D01F0AFFC03E0F2
:104130000098022101F03AFD05000BD02E462088A0
:10414000C00523D5606D05281ED2DFE800F00C11F4
:10415000161B1B00626ED8F8001021F440111143A9
:10416000C8F80010EBE7386840F40030386009E028
:104170000021201D01F08AFC03E00098002101F0DD
:1041800015FD05466DB100E001252E46208880050D
:1041900028D5A06D80281ED00CDC90B140280ED10F
:1041A00014E0626DD8F8001021F007011143C8F83F
:1041B0000010EBE7C02813D0B0F5807F10D00125A8
:1041C0000FE0386840F40030386009E00021201D1D
:1041D00001F05CFC03E00098002101F0E7FC0546DB
:1041E00095B12E462088DFF81093400509F10809A3
:1041F0002CD5D4F8A400B0F5800F20D00DDCA0B1F0
:10420000B0F5001F0FD115E0A26DD8F8001021F411
:10421000E0711143C8F80010E4E7B0F5C00F13D007
:10422000B0F5000F10D001250FE0386840F40030E1
:10423000386009E00021201D01F028FC03E000980F
:10424000002101F0B3FC054675B12E46208800051B
:104250002DD5D4F8A800B0F1007F21D00EDCA8B194
:10426000B0F1807F10D116E0D4F8A420D9F8001066
:1042700021F460011143C9F80010E7E7B0F1407F75
:1042800013D0B0F1806F10D001250FE0386840F4F2
:104290000030386009E00021201D01F0F7FB03E049
:1042A0000098002101F082FC05466DB12E46206881
:1042B00080011FD5A06CD8B110280FD0202812D0B3
:1042C000302815D0012514E0D4F8A820D9F8001022
:1042D00021F0E0611143C9F80010E8E7386840F4C4
:1042E0000030386004E00221201D01F0CFFB0546BC
:1042F0006DB12E462088C0042BD5E06DB0F5005F6F
:1043000020D00DDCA0B1B0F5805F0FD115E07A4868
:10431000A26C001F016821F0300111430160E9E740
:10432000B0F5405F13D0B0F5804F10D001250FE0FD
:10433000386840F40030386009E00021201D01F0A9
:10434000A5FB03E00098002101F030FC054685B193
:104350002E462088800429D5206EB0F5403F23D01A
:1043600010DC08B3B0F5803F14D0B0F5003F0FD19A
:1043700015E0E26DD8F8001021F4E0411143C8F8CF
:104380000010E6E7B0F5802F0ED0B0F5A02F0BD0CF
:1043900001250AE00121201D01F078FB03E00098CF
:1043A000012101F003FC05468DB12E462088400412
:1043B0002AD5D4F8AC00B0F1405F23D010DC08B3AC
:1043C000B0F1805F14D0B0F1005F0FD115E0226E24
:1043D000D8F8001021F4E0211143C8F80010E5E7F7
:1043E000B0F1804F0ED0B0F1A04F0BD001250AE004
:1043F0000121201D01F04AFB03E00098012101F09A
:10440000D5FB05466DB12E46208800041FD5E06E11
:10441000D8B1B0F1805F0ED0B0F1005F10D00125AF
:1044200014E0D4F8AC20D9F8001021F0E041114399
:10443000C9F80010E8E7386840F40030386004E05C
:104440000121201D01F022FB05466DB12E4620689A
:10445000C0011ED5606CD0B101280ED0022811D049
:10446000032814D0012513E0E26ED8F8001021F0E3
:1044700040511143C8F80010E9E7386840F40030B3
:10448000386004E00221201D01F000FB054685B1E3
:104490002E462068DFF85CB04002ABF11C0B57D50C
:1044A0001648016841F480710160FFF7F3FB824612
:1044B0000EE01148626C001F016821F003011143F6
:1044C0000160E6E7FFF7E6FBA0EB0A0064283DD8B1
:1044D0000A480068C005F5D57DBBDFF81CA0B4F81C
:1044E000B0200AF1200ADAF8001002F4407001F45A
:1044F000407105E02C4402585044025800480258CC
:10450000814211D0DAF80010DAF8002021F440716D
:1045100042F48032CAF80020DAF8002022F4803217
:10452000CAF80020CAF80010D4F8B000B0F5807FB7
:1045300021D1FFF7AFFB019019E008E0FFF7AAFBDC
:104540000199411A41F28830814210D903252E4643
:104550002078DFF844A4C0073DD0A06F182838D0D9
:1045600026DC80B3082829D0102825D12CE0DAF8E1
:1045700000008007E2D5D4F8B010C1F30120032871
:1045800058460DD0016821F47C510160B4F8B02088
:10459000DAF80010C2F30B021143CAF80010D7E793
:1045A000FE4A036802EA111223F47C511143ECE73E
:1045B00020280ED028280CD001250BE00121201D39
:1045C00001F064FA04E004E00098012101F0EEFA41
:1045D00005465DB12E46207880071ED5606F0628FF
:1045E00019D2DFE800F0160C11161616A26FDAF8D1
:1045F000001021F038011143CAF80010EBE7012147
:10460000201D01F043FA03E00098012101F0CEFAE9
:10461000054675B100E001252E46207840071FD5DC
:10462000D4F89000062819D2DFE800F0160C111615
:104630001616626FDAF8001021F007011143CAF86C
:104640000010EAE70121201D01F020FA03E00098A4
:10465000012101F0ABFA05469DB100E001252E468F
:10466000207880062BD5D4F88C00B0F1405F24D0A0
:1046700011DC10B3B0F1805F15D0B0F1005F10D144
:1046800016E0D4F89020D9F8001021F0070111436A
:10469000C9F80010E4E7B0F1804F0ED0B0F1A04FA0
:1046A0000BD001250AE00021201D01F0EFF903E005
:1046B0000098022101F07AFA05468DB12E46207845
:1046C00040062BD5D4F89800B0F5406F24D011DC0B
:1046D00010B3B0F5806F15D0B0F5006F10D116E0B3
:1046E000D4F88C20DAF8001021F0E0411143CAF828
:1046F0000010E4E7B0F5805F0ED0B0F5A05F0BD0FE
:1047000001250AE00021201D01F0C0F903E0009816
:10471000022101F04BFA05468DB12E4620780006A5
:104720002BD5D4F89C00B0F5C04F24D011DC10B3C9
:10473000B0F5005F15D0B0F5804F10D116E0D4F879
:104740009820D9F8001021F4E0511143C9F8001065
:10475000E4E7B0F5004F0ED0B0F5204F0BD00125A7
:104760000AE00021201D01F091F903E000980221E8
:1047700001F01CFA05464DB12E46207800071ED5E3
:10478000D4F88000B0F5805F0AD00FE0D4F89C2008
:10479000D9F8001021F460411143C9F80010ECE78A
:1047A0000098022101F002FA00B10126D4F880201D
:1047B000DAF8001021F440511143CAF800102078B3
:1047C000C00613D5D4F89400B0F5807F05D10098C9
:1047D000022101F0EBF900B10126D4F89420D9F8B8
:1047E000001021F440711143C9F800102068000343
:1047F00016D5D4F8A00038B1B0F5803F09D0B0F597
:10480000003F0BD001250AE00021201D01F03EF9F8
:1048100003E00098022101F0C9F9054685B12E4652
:104820002068400322D5D4F88400B0F5801F11D051
:10483000B0F5001F13D0B0F5401F15D0012514E0CE
:10484000D4F8A020D9F8001021F440311143C9F860
:104850000010E5E7386840F40030386004E0009864
:10486000012101F0A3F9054655B12E462068C00389
:104870001CD5E06C70B1B0F5803F10D0012514E07C
:10488000D4F88420DAF8001021F440111143CAF85A
:104890000010EBE7386840F40030386004E0022193
:1048A000201D01F0F3F80546CDB12E4620688000AA
:1048B00005D50098022101F079F900B101262068A0
:1048C00080031BD5E06FB8B1B0F5807F10D0B0F594
:1048D000007F11D0B0F5407F0ED001250DE02E48AD
:1048E000E26C0838016821F4803111430160DDE792
:1048F000386840F400303860F5B32E462068C002B6
:1049000007D5226FD8F8001021F000411143C8F8F4
:1049100000102068C00008D5D4F8B420DBF80010DF
:1049200021F480411143CBF800102068800207D5A4
:10493000A26ED8F8001021F080711143C8F8001061
:10494000206840000CD5DBF8001021F40041CBF8C2
:104950000010DBF80010D4F8B8201143CBF8001099
:104960002068002807DA0C48226D0838016821F019
:1049700040511143016000E014E02068000208D5B6
:10498000D4F88820DAF8001021F440011143CAF865
:10499000001086B1012003E054440258CFFFFF000D
:1049A000BDE8FC9FE26FDAF8001021F4407111437A
:1049B000CAF80010A2E70020EDE700002DE9F05F43
:1049C00004000F467ED0DFF83882D8F8000000F0EF
:1049D0000F00B8420CD2D8F8001021F00F01394373
:1049E000C8F80010D8F8000000F00F00B84269D1F4
:1049F0002078844D40070AD52069296801F07001AC
:104A0000884204D9296821F0700101432960207887
:104A10007C4E361D00070AD56069316801F07001CF
:104A2000884204D9316821F0700101433160207857
:104A3000C0060AD5A069316801F4E061884204D952
:104A4000316821F4E061014331602078DFF8B4B1CE
:104A500080060BF1080B0CD5E1695846DBF8002005
:104A600002F07002914204D9026822F070020A43F7
:104A70000260207880070AD5E068296801F00F01FC
:104A8000884204D9296821F00F0101432960207868
:104A9000C0073ED05B49A2682868183920F47060CE
:104AA000104328606068022818D0032819D00968CC
:104AB000012819D0490700294ADADFF848A1AAF1EC
:104AC000080A00E044E0DAF8002022F0070202437E
:104AD000CAF80020FFF7DEF8814612E00968890372
:104AE000E9E709688901E6E7C905E4E7FFF7D2F8D5
:104AF000A0EB090141F28830814202D90320BDE8D0
:104B0000F09F6168DAF8000000F03800B0EBC10FE8
:104B1000ECD1207880070AD5E068296801F00F0100
:104B2000884204D2296821F00F0101432960D8F896
:104B30000010404601F00F01B9420BD9016821F085
:104B40000F0139430160006800F00F00B84201D046
:104B50000120D4E7207840070AD52069296801F0B0
:104B60007001884204D2296821F070010143296054
:104B7000207800070AD56069316801F07001884229
:104B800004D2316821F07001014331602078C00601
:104B90000AD5A069316801F4E061884204D2316825
:104BA00021F4E06101433160207880060CD5E16991
:104BB0005846DBF8002002F07002914204D20268ED
:104BC00022F070020A43026000F06CF80E492A6875
:104BD0002B68C2F3032203F00F038A5CC95C02F066
:104BE0001F0201F01F01D040084A20FA01F11160B4
:104BF0000749086007480068BDE8F05FFFF786B81E
:104C00000020005218440258FA6600084C000024A4
:104C1000480000245400002430B500F043F80B4A4B
:104C20000B490C4B15681468C5F3032204F00F04FC
:104C30008A5C095D02F01F0201F01F01D040064AA4
:104C400020FA01F119601060084630BD184402587E
:104C5000FA6600084C0000244800002400B5FFF765
:104C6000DBFF05490968054AC1F30211515C01F0F7
:104C70001F01C84000BD00001C440258FA6600082D
:104C800000B5FFF7C9FF05490968054AC1F30221CC
:104C9000515C01F01F01C84000BD00001C440258D7
:104CA000FA660008454970B545480968434B103B12
:104CB00011F0380208D00111082A03D0102A0BD0B5
:104CC000182A0BD0084670BD19688906FBD51968EB
:104CD000C1F3C101C84070BD3A4870BD3749374D76
:104CE00018310C1D24350A68096826682D6802F001
:104CF000030406F00102C1F30511C5F3CC0515FB51
:104D000002F200EE102AB8EE400AE9B32F4ADFEDB6
:104D10002E0AB7EE001A6CB1DFED2D1A012C01D06E
:104D2000022C43D002EE101A1068F8EE422A81EEEF
:104D3000A22A1EE01C68A40611D51B6801EE901A79
:104D40001168C3F3C103F8EE612AD84001EE900A5E
:104D5000C1F30800F8EE611A81EEA22A0BE001EE21
:104D6000901ADFED1C2A00BFF8EE611A106882EE7F
:104D7000A12AC0F3080001EE900AF8EE611A40EE95
:104D8000201A31EE810A00E015E022EE000A1068D8
:104D9000C0F34620401C00EE900AF8EE600A80EE58
:104DA000201ABCEEC10A10EE100A70BD01EE901A76
:104DB000DFED092AD8E7002070BD0000104402583A
:104DC0000090D00300127A000000003930440258ED
:104DD0000024744A0024744C0024F44A2DE9F05F46
:104DE00004007CD0FF4F2078FE4D1837DFF8F49395
:104DF000103DC00748D0D9F80000396800F03800ED
:104E0000102815D0182803D101F0030002280FD074
:104E10006068B0F5803F12D010B1B0F5A02F18D067
:104E2000286820F480302860286820F4802009E079
:104E30002868800328D560680028D2D024E028683C
:104E400040F480302860606888B1FEF723FF064692
:104E500009E0286840F480202860F0E7FEF71AFF98
:104E6000801B64287ED828688003F7D50CE0FEF705
:104E700011FF064605E000BFFEF70CFF801B64280B
:104E8000F0D828688003F7D4207841F20308D54E83
:104E90000C3E800753D5D9F80000396810F038006F
:104EA0000ED0182801D188070AD0E068A8B3296875
:104EB00021F0190101432960FEF7ECFE82461BE058
:104EC0002868400702D5E06800288AD0FEF7DCFE9B
:104ED00040451BD82069402812D0316800E0CCE062
:104EE00021F47C3141EA0030306028E0FEF7D2FE48
:104EF000A0EB0A000228B5D828684007F6D5E5E7F8
:104F0000306820F47C3040F40030EDE7207C3168DC
:104F100021F0FE4141EA0060E6E7FFE7286820F063
:104F200001002860FEF7B6FE824605E0FEF7B2FEFD
:104F3000A0EB0A00022895D828684007F6D420780C
:104F4000C0065FD5D9F80000DFF898B2396800F0E4
:104F50003800ABF1040B082812D0182805D101F055
:104F6000030000E0EAE001280AD0E0690028286890
:104F700038D040F080002860FEF78CFE824623E0A7
:104F80002868C00523D5E069802876D11FE0206A13
:104F9000202821D0316821F0F84141EA806030605A
:104FA00030E000BF94F82010DBF8002022F07C52A3
:104FB00042EA0161CBF8001024E000BFFEF76AFE70
:104FC000A0EB0A00022896D82868C005F6D5FEF79F
:104FD0005BFE4045E6D8DAE7306820F0F84040F064
:104FE0008040DCE720F080002860FEF753FE064694
:104FF00005E000BFFEF74EFE801B02289BD8286804
:10500000C005F7D42078000729D576486169643057
:1050100000298046016811D041F001010160FEF7CE
:1050200039FE064605E000BFFEF734FE801B02286D
:10503000C9D8D8F800008007F6D510E021F00101AA
:105040000160FEF727FE064605E000BFFEF722FEE0
:10505000801B022872D8D8F800008007F6D4207888
:10506000800623D5A0690028286810D040F480501D
:105070002860FEF70FFE064605E02CE1FEF70AFE6B
:10508000801B02285AD828688004F7D50EE020F447
:1050900080502860FEF7FEFD064604E0FEF7FAFDAC
:1050A000801B02284AD828688004F7D4207840075B
:1050B0004FD5DFF83481D8F8001041F48071C8F87A
:1050C0000010FEF7E7FD064605E000BFFEF7E2FD33
:1050D000801B642832D8D8F80000C005F6D5414EB0
:1050E000A068603601280AD008B1052813D03068BE
:1050F00020F001003060306820F0040002E03068E9
:1051000040F001003060A06841F2883A90B1FEF7AB
:10511000C1FD80460AE0306840F004003060EEE7F0
:10512000FEF7B8FDA0EB0801514507D830688007AD
:10513000F6D50EE0FEF7AEFD804607E084E000BF46
:10514000FEF7A8FDA0EB080151457DD83068800727
:10515000F6D4606AF0B3DFF88C80D9F8001008F15B
:105160002008C1F3C20103296FD00228286820F06B
:105170008070286003D0FEF78DFD044680E0FEF7C6
:1051800089FD064605E000BFFEF784FD801B02286E
:1051900073D828688001F7D4E26A40F2F3313868A6
:1051A00054F8283F884340EA021018433860217BB6
:1051B0004FF4FE0C22894FF0FE47208A4902267DDB
:1051C000521E401EA1F5007189B20CEA0040C2F3E4
:1051D000080200E081E01143761E0143014807EA1E
:1051E000066203E010440258004802581C30114384
:1051F0003B4AC8F80010016821F001010160116804
:105200004FF6F876236AB14341EAC30111600168A1
:10521000A26921F00C01114301600168E26921F0EB
:10522000020111430160016841F4803101600168AD
:1052300041F400310160016841F48021016001689E
:1052400041F00101016001E017E01DE0286840F035
:1052500080702860FEF71EFD044604E0FEF71AFD8C
:10526000001B022809D828688001F7D535E000BF67
:10527000FEF710FD001B022802D90320BDE8F09FB5
:1052800028688001F4D428E039680128D8F80000A3
:1052900021D0A26A01F0030393421CD1E26AC1F358
:1052A00005118A4217D1216BC0F30802491E8A42B8
:1052B00011D1616BC0F34622491E91420BD1A16B03
:1052C000C0F30642491E914205D1E16BC0F306606E
:1052D000491E814201D00120D0E70020CEE7000026
:1052E00034440258401EB0F1807F10B501D3012034
:1052F00010BD4FF0E02460610F21601701F087F9C5
:105300000020A0610721216110BD30B590F8801008
:10531000012918D0012280F880202421C0F88410AF
:105320000022202450F8641B0B680D6823F0005302
:1053300025F001050D60026050F8641C0B600462EA
:105340000277104630BD022030BD7047704770B5FF
:10535000044690F8800001281DD0012284F88020A6
:105360002420C4F8840020680568026822F0010245
:1053700002602068826822F060620A4382602046F0
:1053800000F06CFD2268202100201560C4F8841014
:1053900084F8800070BD022070BD70B5044690F89E
:1053A000800001281DD0012284F880202420C4F828
:1053B000840020680568026822F00102026020680B
:1053C000826822F060420A438260204600F046FD77
:1053D0002268202100201560C4F8841084F8800021
:1053E00070BD022070BD7047704770472DE9F041D5
:1053F00003680446002540F60F06D86919689A68C4
:10540000304209D186067DD501F0200602F0805792
:105410003E4377D0216F39E1AF4EB04F16400F4079
:1054200037436FD0C70709D0CF0507D501271F62C3
:10543000D4F88C3043F00103C4F88C3083070AD5CC
:10544000D30708D0276802233B62D4F88C3043F09E
:105450000403C4F88C3043070AD5D30708D0276863
:1054600004233B62D4F88C3043F00203C4F88C3040
:1054700003070CD501F02003334308D02668082326
:105480003362D4F88C3043F00803C4F88C30030541
:105490000BD54B0109D526684FF400633362D4F86D
:1054A0008C3043F02003C4F88C30D4F88C30002BBF
:1054B00034D0800609D501F0200002F08051084365
:1054C00003D0216F09B1204688472168D4F88C00A9
:1054D0008968490602D410F0280F21D0204600F038
:1054E000E1FD20688168490615D5816821F04001F9
:1054F0008160E06F78B17A490165E06FFCF766FD85
:10550000002800E012E009D0E06F016D00E02046C5
:10551000BDE8F04108472046FFF767FFBDE8F0818E
:105520002046FFF762FFC4F88C50F7E7E76E2026AD
:10553000012F71D1C7066FD5CF066DD51020186227
:1055400022689068400669D5E16F664B086898420A
:1055500034D0644B1833984230D0624B3033984289
:105560002CD0604B4833984228D05E4B6033984231
:1055700024D05C4B7833984220D05A4B90339842D9
:105580001CD0584BA833984218D0574B984215D08E
:10559000554B1833984211D0534B303398420DD0AD
:1055A000514B4833984209D04F4B6033984205D055
:1055B0004D4B7833984201D04B4B903340680004F8
:1055C000000CABD0B4F85C308342A7D9A4F85E00DD
:1055D000C869B0F5807F18D0106820F48070106022
:1055E0002068816821F0010181602068816821F0D4
:1055F00040018160C4F88860E5662068016821F098
:1056000010010160E06FFCF72FFBB4F85C00B4F808
:105610005E10401A81B220E023E0FFE7B4F85C009E
:10562000B4F85E10B4F85E30401A81B2002BC8D0D6
:105630000029C6D010682D4B20F4907010602068AF
:10564000826802EA03028260C4F88860E566256722
:105650002068026822F0100202602046FFF775FE03
:105660005CE7C70209D5570207D54FF480101862CE
:105670002046BDE8F041FFF7B7BE07060AD501F0A6
:10568000800702F40002174304D0616F00297FF401
:105690003EAF43E742060CD54A060AD519682046B4
:1056A00021F040011960C4F88460656700F03FF99B
:1056B00034E7020206D54A0004D52046BDE8F04191
:1056C000FFF791BEC001CBD50029C9DA2046BDE85D
:1056D000F041FFF73BBE0000010000102001000474
:1056E000C95F00081000024010040240FEFFFFEFF7
:1056F00010B5040003D0D4F8840010B107E00120F5
:1057000010BD002084F88000204600F027F82420F7
:10571000C4F884002068016821F00101016020467E
:1057200000F0EAFC0128EBD0A06A10B1204600F09E
:10573000B7FB2068416821F490414160206881688E
:1057400021F02A0181602068016841F001010160B7
:105750002046BDE8104000F007BC000070B5B6B0B0
:10576000064614212FA8FAF758FFBC216846FAF71D
:1057700054FF26493068884245D1022468460025F6
:105780001D950094FEF7B0FC08B1FCF72DF92048F8
:10579000016841F400310160006800F40030349089
:1057A0001B480838016841F00101016000682FAA18
:1057B000072100F0010034900C2082E83100CDE98F
:1057C000325114482FA9FEF739F914482B21124CF5
:1057D0000215831584E82300C4E90352656120465D
:1057E000C4E9065325626562FDF7AAF808B1FCF723
:1057F000FBF80022F46726201146A663FEF7C2FAE2
:105800002620FEF7B1FA36B070BD0000004400401B
:10581000E8440258000002585C02002410000240D4
:10582000F0B4D0F88830202B1BD1B9B1B2B190F8C8
:105830008030012B15D0036801260B4D002480F821
:105840008060C466AB4206D05C68240203D51C6845
:1058500044F080641C60F0BC00F024BE0120F0BC69
:1058600070470220FBE70000000C005870477047AB
:105870002DE9F8430446D0F884001F4616460D462D
:10588000202852D1DDB1D6B194F8800001284CD047
:10589000012084F8800021224FF00008C4F88C8099
:1058A000C4F884201834FEF7F5F9814654F8100C3A
:1058B000A687E687183CB0F5805F03D004E001209E
:1058C000BDE8F883206920B12E46002584F8808049
:1058D00010E00026FAE78021204600F027FEB8B944
:1058E000C6B116F8010B21688862B4F85600401E54
:1058F000A4F85600B4F856004B464FF0000200974B
:105900000028E8D14FF04001204600F00FFE38B1EA
:105910000320D5E735F8020B2168C0F30800E3E760
:105920002020C4F884000020CAE70220C8E770479E
:10593000FEE700001F48042170B51D4A00240260E4
:10594000012584600322C460022605740D2344747B
:105950008474C0E90525C0E90D45C0E90F45C0E9DB
:105960001114C0E913148465C0E91745C0E9194151
:10597000C0E90736FDF738FEB8B90F480A210460C0
:10598000C0E90145C0E90351416101460948FDF7FD
:1059900091FB50B90748FEF72EF830B905480022B0
:1059A0000121FDF70FFB002801D0FCF71DF870BDA9
:1059B00000A000405C000024F001002430B587B056
:1059C00014216846FAF729FE1648016841F0800163
:1059D0000160016801F080010591016841F0010159
:1059E0000160016801F001010591016841F00201C7
:1059F0000160006844F281040B4D002200F00200B7
:105A0000214605902846FEF739F90021009401202F
:105A1000CDE90101284603916946FEF70FF807B06A
:105A200030BD0000E0440258000402581448002130
:105A300010B5124C0C224FF4E1330460C0E901317F
:105A4000C160C0E904128161C16101624162816289
:105A5000FFF74EFE70B90A480021FFF79EFC48B9D7
:105A600007480021FFF773FC20B90548FFF74DFCFC
:105A7000002801D0FBF7B8FF10BD00000044004033
:105A8000FC000024FEE7FEE7704700002DE9F04728
:105A9000454D044689464FF0000A2868C0438007F8
:105AA0000AD0414E283E306820F080603060FEF71A
:105AB000F1F80746B04608E00120BDE8F08700BFD6
:105AC000FEF7E8F8C01B022867D8D8F800000001EC
:105AD000F6D4206829684FF4FE0721F47C313E0299
